{
  "_format": "hh-sol-artifact-1",
  "contractName": "Lottery",
  "sourceName": "contracts/Lottery.sol",
  "abi": [
    {
      "inputs": [
        {
          "internalType": "address",
          "name": "_randomGenerator",
          "type": "address"
        },
        {
          "internalType": "address",
          "name": "_lotteryNFT",
          "type": "address"
        }
      ],
      "stateMutability": "nonpayable",
      "type": "constructor"
    },
    {
      "anonymous": false,
      "inputs": [],
      "name": "GameReseted",
      "type": "event"
    },
    {
      "anonymous": false,
      "inputs": [
        {
          "indexed": false,
          "internalType": "address",
          "name": "player",
          "type": "address"
        }
      ],
      "name": "PlayerJoined",
      "type": "event"
    },
    {
      "anonymous": false,
      "inputs": [
        {
          "indexed": false,
          "internalType": "address",
          "name": "winner",
          "type": "address"
        },
        {
          "indexed": false,
          "internalType": "uint256",
          "name": "prize",
          "type": "uint256"
        },
        {
          "indexed": false,
          "internalType": "uint256",
          "name": "winnerNFTId",
          "type": "uint256"
        }
      ],
      "name": "WinnerPicked",
      "type": "event"
    },
    {
      "inputs": [],
      "name": "getCurrentRound",
      "outputs": [
        {
          "internalType": "uint256",
          "name": "",
          "type": "uint256"
        }
      ],
      "stateMutability": "view",
      "type": "function"
    },
    {
      "inputs": [],
      "name": "getDeadlines",
      "outputs": [
        {
          "internalType": "uint256",
          "name": "",
          "type": "uint256"
        }
      ],
      "stateMutability": "view",
      "type": "function"
    },
    {
      "inputs": [],
      "name": "getManager",
      "outputs": [
        {
          "internalType": "address",
          "name": "",
          "type": "address"
        }
      ],
      "stateMutability": "view",
      "type": "function"
    },
    {
      "inputs": [],
      "name": "getMaxTicket",
      "outputs": [
        {
          "internalType": "uint256",
          "name": "",
          "type": "uint256"
        }
      ],
      "stateMutability": "view",
      "type": "function"
    },
    {
      "inputs": [
        {
          "internalType": "uint256",
          "name": "_round",
          "type": "uint256"
        }
      ],
      "name": "getPlayersByRound",
      "outputs": [
        {
          "internalType": "address[]",
          "name": "",
          "type": "address[]"
        }
      ],
      "stateMutability": "view",
      "type": "function"
    },
    {
      "inputs": [],
      "name": "getTicketCount",
      "outputs": [
        {
          "internalType": "uint256",
          "name": "",
          "type": "uint256"
        }
      ],
      "stateMutability": "view",
      "type": "function"
    },
    {
      "inputs": [],
      "name": "getTicketPrice",
      "outputs": [
        {
          "internalType": "uint256",
          "name": "",
          "type": "uint256"
        }
      ],
      "stateMutability": "view",
      "type": "function"
    },
    {
      "inputs": [],
      "name": "getTotalPool",
      "outputs": [
        {
          "internalType": "uint256",
          "name": "",
          "type": "uint256"
        }
      ],
      "stateMutability": "view",
      "type": "function"
    },
    {
      "inputs": [
        {
          "internalType": "uint256",
          "name": "_round",
          "type": "uint256"
        }
      ],
      "name": "getWinnerByRound",
      "outputs": [
        {
          "internalType": "address",
          "name": "",
          "type": "address"
        }
      ],
      "stateMutability": "view",
      "type": "function"
    },
    {
      "inputs": [
        {
          "internalType": "uint256",
          "name": "_round",
          "type": "uint256"
        }
      ],
      "name": "getWinningTokenId",
      "outputs": [
        {
          "internalType": "uint256",
          "name": "",
          "type": "uint256"
        }
      ],
      "stateMutability": "view",
      "type": "function"
    },
    {
      "inputs": [
        {
          "internalType": "uint256",
          "name": "",
          "type": "uint256"
        }
      ],
      "name": "historyTokenId",
      "outputs": [
        {
          "internalType": "uint256",
          "name": "",
          "type": "uint256"
        }
      ],
      "stateMutability": "view",
      "type": "function"
    },
    {
      "inputs": [],
      "name": "isGameActive",
      "outputs": [
        {
          "internalType": "bool",
          "name": "",
          "type": "bool"
        }
      ],
      "stateMutability": "view",
      "type": "function"
    },
    {
      "inputs": [],
      "name": "joinLottery",
      "outputs": [],
      "stateMutability": "payable",
      "type": "function"
    },
    {
      "inputs": [],
      "name": "lotteryNFT",
      "outputs": [
        {
          "internalType": "contract NFT",
          "name": "",
          "type": "address"
        }
      ],
      "stateMutability": "view",
      "type": "function"
    },
    {
      "inputs": [],
      "name": "pickWinner",
      "outputs": [],
      "stateMutability": "nonpayable",
      "type": "function"
    },
    {
      "inputs": [],
      "name": "resetGames",
      "outputs": [],
      "stateMutability": "nonpayable",
      "type": "function"
    }
  ],
  "bytecode": "0x60806040526000600581905566038d7ea4c68000600655600755600a60085561002b42620151806100ae565b60095534801561003a57600080fd5b50604051610b44380380610b44833981016040819052610059916100f1565b60008054336001600160a01b031991821617909155600a8054600b80549093166001600160a01b03948516179092556001600160a81b0319909116610100939092169290920260ff1916176001179055610124565b808201808211156100cf57634e487b7160e01b600052601160045260246000fd5b92915050565b80516001600160a01b03811681146100ec57600080fd5b919050565b6000806040838503121561010457600080fd5b61010d836100d5565b915061011b602084016100d5565b90509250929050565b610a11806101336000396000f3fe6080604052600436106100f35760003560e01c806390254c3a1161008a578063b830ac8b11610059578063b830ac8b14610285578063c334745b1461029a578063d5009584146102af578063e8adfbc7146102cd57600080fd5b806390254c3a1461020157806397a8b9171461022e578063a32bf5971461025b578063b5b5dcbc1461027057600080fd5b80636c77f989116100c65780636c77f9891461018357806375f4d6771461018b57806382b0db4f1461019e57806387bb7ae0146101ec57600080fd5b80630c0ef2b0146100f857806321c63a471461012057806342f3442a1461013f5780635d495aea1461016c575b600080fd5b34801561010457600080fd5b50600a5460ff1660405190151581526020015b60405180910390f35b34801561012c57600080fd5b506007545b604051908152602001610117565b34801561014b57600080fd5b5061013161015a366004610915565b60009081526004602052604090205490565b34801561017857600080fd5b506101816102ed565b005b61018161051c565b34801561019757600080fd5b5047610131565b3480156101aa57600080fd5b506101d46101b9366004610915565b6000908152600260205260409020546001600160a01b031690565b6040516001600160a01b039091168152602001610117565b3480156101f857600080fd5b50600654610131565b34801561020d57600080fd5b5061022161021c366004610915565b6106d7565b604051610117919061092e565b34801561023a57600080fd5b50610131610249366004610915565b60046020526000908152604090205481565b34801561026757600080fd5b50600554610131565b34801561027c57600080fd5b50600954610131565b34801561029157600080fd5b50610181610743565b3480156102a657600080fd5b50600854610131565b3480156102bb57600080fd5b506000546001600160a01b03166101d4565b3480156102d957600080fd5b50600b546101d4906001600160a01b031681565b6000546001600160a01b0316331461033a5760405162461bcd60e51b815260206004820152600b60248201526a2737ba1036b0b730b3b2b960a91b60448201526064015b60405180910390fd5b600a5460ff166103815760405162461bcd60e51b815260206004820152601260248201527111d85b5948185b1c9958591e48195b99195960721b6044820152606401610331565b6000600754116103c55760405162461bcd60e51b815260206004820152600f60248201526e139bc81d1a58dad95d1cc81cdbdb19608a1b6044820152606401610331565b600a546007546040516387cc49b960e01b8152600481019190915260009161010090046001600160a01b0316906387cc49b990602401602060405180830381865afa158015610418573d6000803e3d6000fd5b505050506040513d601f19601f8201168201806040525081019061043c919061097a565b6005546000818152600160209081526040808320858452825280832054938352600290915280822080546001600160a01b0319166001600160a01b03948516908117909155600b5491516306d0804360e31b81526004810182905294955093919216906336840218906024016020604051808303816000875af11580156104c7573d6000803e3d6000fd5b505050506040513d601f19601f820116820180604052508101906104eb919061097a565b600554600090815260046020526040902081905590504761050c8382610834565b5050600a805460ff191690555050565b600a5460ff1615156001146105605760405162461bcd60e51b815260206004820152600a60248201526911d85b5948195b99195960b21b6044820152606401610331565b6009544211156105a45760405162461bcd60e51b815260206004820152600f60248201526e111958591b1a5b99481c185cdcd959608a1b6044820152606401610331565b600854600754106105ec5760405162461bcd60e51b815260206004820152601260248201527113585e081d1a58dad95d081c995858da195960721b6044820152606401610331565b60065434146106365760405162461bcd60e51b8152602060048201526016602482015275496e636f7272656374207469636b657420707269636560501b6044820152606401610331565b6005805460009081526001602081815260408084206007805486529083528185208054336001600160a01b03199182168117909255965486526003845291852080549485018155855291842090920180549094169091179092558154919061069d836109a9565b90915550506040513381527f31e760aa525306aba638a784082a013b6a1cc0a9a1789f3f22281c0453b10b1f9060200160405180910390a1565b60008181526003602090815260409182902080548351818402810184019094528084526060939283018282801561073757602002820191906000526020600020905b81546001600160a01b03168152600190910190602001808311610719575b50505050509050919050565b6000546001600160a01b0316331461078b5760405162461bcd60e51b815260206004820152600b60248201526a2737ba1036b0b730b3b2b960a91b6044820152606401610331565b600a5460ff16156107d25760405162461bcd60e51b815260206004820152601160248201527047616d65207374696c6c2061637469766560781b6044820152606401610331565b60006007556107e442620151806109c2565b600955600a805460ff1916600117905560058054906000610804836109a9565b90915550506040517fb099e5cd2bc762336d73805fea2535fffd73f2b0386cf45adeb96ad906991d3090600090a1565b8047101561087b5760405162461bcd60e51b8152602060048201526014602482015273496e73756666696369656e742062616c616e636560601b6044820152606401610331565b6000826001600160a01b03168260405160006040518083038185875af1925050503d80600081146108c8576040519150601f19603f3d011682016040523d82523d6000602084013e6108cd565b606091505b50509050806109105760405162461bcd60e51b815260206004820152600f60248201526e151c985b9cd9995c8819985a5b1959608a1b6044820152606401610331565b505050565b60006020828403121561092757600080fd5b5035919050565b602080825282518282018190526000918401906040840190835b8181101561096f5783516001600160a01b0316835260209384019390920191600101610948565b509095945050505050565b60006020828403121561098c57600080fd5b5051919050565b634e487b7160e01b600052601160045260246000fd5b6000600182016109bb576109bb610993565b5060010190565b808201808211156109d5576109d5610993565b9291505056fea264697066735822122087a8da0846662c941b56ab9aeb3395f4bee7a5a3b37b88649220897c2efd4f4f64736f6c634300081c0033",
  "linkReferences": {},
  "deployedLinkReferences": {}
}