{
  "_format": "hh-sol-artifact-1",
  "contractName": "Lottery",
  "sourceName": "contracts/Lottery.sol",
  "abi": [
    {
      "inputs": [
        {
          "internalType": "address",
          "name": "_randomGenerator",
          "type": "address"
        },
        {
          "internalType": "address",
          "name": "_lotteryNFT",
          "type": "address"
        }
      ],
      "stateMutability": "nonpayable",
      "type": "constructor"
    },
    {
      "anonymous": false,
      "inputs": [],
      "name": "GameReseted",
      "type": "event"
    },
    {
      "anonymous": false,
      "inputs": [
        {
          "indexed": false,
          "internalType": "address",
          "name": "player",
          "type": "address"
        }
      ],
      "name": "PlayerJoined",
      "type": "event"
    },
    {
      "anonymous": false,
      "inputs": [
        {
          "indexed": false,
          "internalType": "address",
          "name": "winner",
          "type": "address"
        },
        {
          "indexed": false,
          "internalType": "uint256",
          "name": "prize",
          "type": "uint256"
        },
        {
          "indexed": false,
          "internalType": "uint256",
          "name": "winnerNFTId",
          "type": "uint256"
        }
      ],
      "name": "WinnerPicked",
      "type": "event"
    },
    {
      "anonymous": false,
      "inputs": [
        {
          "indexed": false,
          "internalType": "address",
          "name": "winner",
          "type": "address"
        },
        {
          "indexed": false,
          "internalType": "uint256",
          "name": "prize",
          "type": "uint256"
        },
        {
          "indexed": false,
          "internalType": "uint256",
          "name": "winnerNFTId",
          "type": "uint256"
        },
        {
          "indexed": false,
          "internalType": "string",
          "name": "tokenURI",
          "type": "string"
        }
      ],
      "name": "WinnerPicked",
      "type": "event"
    },
    {
      "inputs": [],
      "name": "getCurrentRound",
      "outputs": [
        {
          "internalType": "uint256",
          "name": "",
          "type": "uint256"
        }
      ],
      "stateMutability": "view",
      "type": "function"
    },
    {
      "inputs": [],
      "name": "getDeadlines",
      "outputs": [
        {
          "internalType": "uint256",
          "name": "",
          "type": "uint256"
        }
      ],
      "stateMutability": "view",
      "type": "function"
    },
    {
      "inputs": [],
      "name": "getManager",
      "outputs": [
        {
          "internalType": "address",
          "name": "",
          "type": "address"
        }
      ],
      "stateMutability": "view",
      "type": "function"
    },
    {
      "inputs": [],
      "name": "getMaxTicket",
      "outputs": [
        {
          "internalType": "uint256",
          "name": "",
          "type": "uint256"
        }
      ],
      "stateMutability": "view",
      "type": "function"
    },
    {
      "inputs": [
        {
          "internalType": "uint256",
          "name": "_round",
          "type": "uint256"
        }
      ],
      "name": "getPlayersByRound",
      "outputs": [
        {
          "internalType": "address[]",
          "name": "",
          "type": "address[]"
        }
      ],
      "stateMutability": "view",
      "type": "function"
    },
    {
      "inputs": [],
      "name": "getTicketCount",
      "outputs": [
        {
          "internalType": "uint256",
          "name": "",
          "type": "uint256"
        }
      ],
      "stateMutability": "view",
      "type": "function"
    },
    {
      "inputs": [],
      "name": "getTicketPrice",
      "outputs": [
        {
          "internalType": "uint256",
          "name": "",
          "type": "uint256"
        }
      ],
      "stateMutability": "view",
      "type": "function"
    },
    {
      "inputs": [],
      "name": "getTotalPool",
      "outputs": [
        {
          "internalType": "uint256",
          "name": "",
          "type": "uint256"
        }
      ],
      "stateMutability": "view",
      "type": "function"
    },
    {
      "inputs": [
        {
          "internalType": "uint256",
          "name": "_round",
          "type": "uint256"
        }
      ],
      "name": "getWinnerByRound",
      "outputs": [
        {
          "internalType": "address",
          "name": "",
          "type": "address"
        }
      ],
      "stateMutability": "view",
      "type": "function"
    },
    {
      "inputs": [
        {
          "internalType": "uint256",
          "name": "_round",
          "type": "uint256"
        }
      ],
      "name": "getWinningTokenId",
      "outputs": [
        {
          "internalType": "uint256",
          "name": "",
          "type": "uint256"
        }
      ],
      "stateMutability": "view",
      "type": "function"
    },
    {
      "inputs": [
        {
          "internalType": "uint256",
          "name": "",
          "type": "uint256"
        }
      ],
      "name": "historyTokenId",
      "outputs": [
        {
          "internalType": "uint256",
          "name": "",
          "type": "uint256"
        }
      ],
      "stateMutability": "view",
      "type": "function"
    },
    {
      "inputs": [],
      "name": "isGameActive",
      "outputs": [
        {
          "internalType": "bool",
          "name": "",
          "type": "bool"
        }
      ],
      "stateMutability": "view",
      "type": "function"
    },
    {
      "inputs": [],
      "name": "joinLottery",
      "outputs": [],
      "stateMutability": "payable",
      "type": "function"
    },
    {
      "inputs": [],
      "name": "lotteryNFT",
      "outputs": [
        {
          "internalType": "contract NFT",
          "name": "",
          "type": "address"
        }
      ],
      "stateMutability": "view",
      "type": "function"
    },
    {
      "inputs": [
        {
          "internalType": "string",
          "name": "_tokenURI",
          "type": "string"
        }
      ],
      "name": "pickWinner",
      "outputs": [],
      "stateMutability": "nonpayable",
      "type": "function"
    },
    {
      "inputs": [],
      "name": "resetGames",
      "outputs": [],
      "stateMutability": "nonpayable",
      "type": "function"
    }
  ],
  "bytecode": "0x60806040526000600581905566038d7ea4c68000600655600755600a60085561002b42620151806100ae565b60095534801561003a57600080fd5b50604051610d0c380380610d0c833981016040819052610059916100f1565b60008054336001600160a01b031991821617909155600a8054600b80549093166001600160a01b03948516179092556001600160a81b0319909116610100939092169290920260ff1916176001179055610124565b808201808211156100cf57634e487b7160e01b600052601160045260246000fd5b92915050565b80516001600160a01b03811681146100ec57600080fd5b919050565b6000806040838503121561010457600080fd5b61010d836100d5565b915061011b602084016100d5565b90509250929050565b610bd9806101336000396000f3fe6080604052600436106100f35760003560e01c806390254c3a1161008a578063b830ac8b11610059578063b830ac8b14610290578063c334745b146102a5578063d5009584146102ba578063e8adfbc7146102d857600080fd5b806390254c3a1461020c57806397a8b91714610239578063a32bf59714610266578063b5b5dcbc1461027b57600080fd5b80636c77f989116100c65780636c77f9891461018e57806375f4d6771461019657806382b0db4f146101a957806387bb7ae0146101f757600080fd5b80630c0ef2b0146100f857806321c63a471461012057806327e250691461013f57806342f3442a14610161575b600080fd5b34801561010457600080fd5b50600a5460ff1660405190151581526020015b60405180910390f35b34801561012c57600080fd5b506007545b604051908152602001610117565b34801561014b57600080fd5b5061015f61015a36600461097b565b6102f8565b005b34801561016d57600080fd5b5061013161017c366004610a34565b60009081526004602052604090205490565b61015f61056c565b3480156101a257600080fd5b5047610131565b3480156101b557600080fd5b506101df6101c4366004610a34565b6000908152600260205260409020546001600160a01b031690565b6040516001600160a01b039091168152602001610117565b34801561020357600080fd5b50600654610131565b34801561021857600080fd5b5061022c610227366004610a34565b610727565b6040516101179190610a4d565b34801561024557600080fd5b50610131610254366004610a34565b60046020526000908152604090205481565b34801561027257600080fd5b50600554610131565b34801561028757600080fd5b50600954610131565b34801561029c57600080fd5b5061015f610793565b3480156102b157600080fd5b50600854610131565b3480156102c657600080fd5b506000546001600160a01b03166101df565b3480156102e457600080fd5b50600b546101df906001600160a01b031681565b6000546001600160a01b031633146103455760405162461bcd60e51b815260206004820152600b60248201526a2737ba1036b0b730b3b2b960a91b60448201526064015b60405180910390fd5b600a5460ff1661038c5760405162461bcd60e51b815260206004820152601260248201527111d85b5948185b1c9958591e48195b99195960721b604482015260640161033c565b6000600754116103d05760405162461bcd60e51b815260206004820152600f60248201526e139bc81d1a58dad95d1cc81cdbdb19608a1b604482015260640161033c565b600a546007546040516387cc49b960e01b8152600481019190915260009161010090046001600160a01b0316906387cc49b990602401602060405180830381865afa158015610423573d6000803e3d6000fd5b505050506040513d601f19601f820116820180604052508101906104479190610a99565b6005546000818152600160209081526040808320858452825280832054938352600290915280822080546001600160a01b0319166001600160a01b03948516908117909155600b54915163d0def52160e01b8152949550939192169063d0def521906104b99085908890600401610af8565b6020604051808303816000875af11580156104d8573d6000803e3d6000fd5b505050506040513d601f19601f820116820180604052508101906104fc9190610a99565b600554600090815260046020526040902081905590504761051d8382610884565b600a805460ff191690556040517fbe0b95e1549d0a817d0cb9610e9ff3bb5c53114a9c2306ffe2c3f2d0c5133c8e9061055d908590849086908a90610b24565b60405180910390a15050505050565b600a5460ff1615156001146105b05760405162461bcd60e51b815260206004820152600a60248201526911d85b5948195b99195960b21b604482015260640161033c565b6009544211156105f45760405162461bcd60e51b815260206004820152600f60248201526e111958591b1a5b99481c185cdcd959608a1b604482015260640161033c565b6008546007541061063c5760405162461bcd60e51b815260206004820152601260248201527113585e081d1a58dad95d081c995858da195960721b604482015260640161033c565b60065434146106865760405162461bcd60e51b8152602060048201526016602482015275496e636f7272656374207469636b657420707269636560501b604482015260640161033c565b6005805460009081526001602081815260408084206007805486529083528185208054336001600160a01b0319918216811790925596548652600384529185208054948501815585529184209092018054909416909117909255815491906106ed83610b71565b90915550506040513381527f31e760aa525306aba638a784082a013b6a1cc0a9a1789f3f22281c0453b10b1f9060200160405180910390a1565b60008181526003602090815260409182902080548351818402810184019094528084526060939283018282801561078757602002820191906000526020600020905b81546001600160a01b03168152600190910190602001808311610769575b50505050509050919050565b6000546001600160a01b031633146107db5760405162461bcd60e51b815260206004820152600b60248201526a2737ba1036b0b730b3b2b960a91b604482015260640161033c565b600a5460ff16156108225760405162461bcd60e51b815260206004820152601160248201527047616d65207374696c6c2061637469766560781b604482015260640161033c565b60006007556108344262015180610b8a565b600955600a805460ff191660011790556005805490600061085483610b71565b90915550506040517fb099e5cd2bc762336d73805fea2535fffd73f2b0386cf45adeb96ad906991d3090600090a1565b804710156108cb5760405162461bcd60e51b8152602060048201526014602482015273496e73756666696369656e742062616c616e636560601b604482015260640161033c565b6000826001600160a01b03168260405160006040518083038185875af1925050503d8060008114610918576040519150601f19603f3d011682016040523d82523d6000602084013e61091d565b606091505b50509050806109605760405162461bcd60e51b815260206004820152600f60248201526e151c985b9cd9995c8819985a5b1959608a1b604482015260640161033c565b505050565b634e487b7160e01b600052604160045260246000fd5b60006020828403121561098d57600080fd5b813567ffffffffffffffff8111156109a457600080fd5b8201601f810184136109b557600080fd5b803567ffffffffffffffff8111156109cf576109cf610965565b604051601f8201601f19908116603f0116810167ffffffffffffffff811182821017156109fe576109fe610965565b604052818152828201602001861015610a1657600080fd5b81602084016020830137600091810160200191909152949350505050565b600060208284031215610a4657600080fd5b5035919050565b602080825282518282018190526000918401906040840190835b81811015610a8e5783516001600160a01b0316835260209384019390920191600101610a67565b509095945050505050565b600060208284031215610aab57600080fd5b5051919050565b6000815180845260005b81811015610ad857602081850181015186830182015201610abc565b506000602082860101526020601f19601f83011685010191505092915050565b6001600160a01b0383168152604060208201819052600090610b1c90830184610ab2565b949350505050565b60018060a01b0385168152836020820152826040820152608060608201526000610b516080830184610ab2565b9695505050505050565b634e487b7160e01b600052601160045260246000fd5b600060018201610b8357610b83610b5b565b5060010190565b80820180821115610b9d57610b9d610b5b565b9291505056fea2646970667358221220827749b42e393610cb215356df535660e467f495bdb77b443ea44b81a962cad664736f6c634300081c0033",
  "linkReferences": {},
  "deployedLinkReferences": {}
}