{
  "_format": "hh-sol-artifact-1",
  "contractName": "Lottery",
  "sourceName": "contracts/Lottery.sol",
  "abi": [
    {
      "inputs": [
        {
          "internalType": "address",
          "name": "_randomConsumer",
          "type": "address"
        },
        {
          "internalType": "address",
          "name": "_lotteryNFT",
          "type": "address"
        }
      ],
      "stateMutability": "nonpayable",
      "type": "constructor"
    },
    {
      "anonymous": false,
      "inputs": [],
      "name": "GameReseted",
      "type": "event"
    },
    {
      "anonymous": false,
      "inputs": [
        {
          "indexed": false,
          "internalType": "address",
          "name": "player",
          "type": "address"
        }
      ],
      "name": "PlayerJoined",
      "type": "event"
    },
    {
      "anonymous": false,
      "inputs": [
        {
          "indexed": false,
          "internalType": "uint256",
          "name": "requestId",
          "type": "uint256"
        },
        {
          "indexed": false,
          "internalType": "uint256",
          "name": "round",
          "type": "uint256"
        },
        {
          "indexed": false,
          "internalType": "uint256",
          "name": "ticketCount",
          "type": "uint256"
        }
      ],
      "name": "RandomnessRequested",
      "type": "event"
    },
    {
      "anonymous": false,
      "inputs": [
        {
          "indexed": false,
          "internalType": "address",
          "name": "winner",
          "type": "address"
        },
        {
          "indexed": false,
          "internalType": "uint256",
          "name": "prize",
          "type": "uint256"
        },
        {
          "indexed": false,
          "internalType": "uint256",
          "name": "winnerNFTId",
          "type": "uint256"
        }
      ],
      "name": "WinnerPicked",
      "type": "event"
    },
    {
      "inputs": [],
      "name": "getCurrentRound",
      "outputs": [
        {
          "internalType": "uint256",
          "name": "",
          "type": "uint256"
        }
      ],
      "stateMutability": "view",
      "type": "function"
    },
    {
      "inputs": [],
      "name": "getDeadlines",
      "outputs": [
        {
          "internalType": "uint256",
          "name": "",
          "type": "uint256"
        }
      ],
      "stateMutability": "view",
      "type": "function"
    },
    {
      "inputs": [],
      "name": "getManager",
      "outputs": [
        {
          "internalType": "address",
          "name": "",
          "type": "address"
        }
      ],
      "stateMutability": "view",
      "type": "function"
    },
    {
      "inputs": [],
      "name": "getMaxTicket",
      "outputs": [
        {
          "internalType": "uint256",
          "name": "",
          "type": "uint256"
        }
      ],
      "stateMutability": "view",
      "type": "function"
    },
    {
      "inputs": [],
      "name": "getPendingRequestId",
      "outputs": [
        {
          "internalType": "uint256",
          "name": "",
          "type": "uint256"
        }
      ],
      "stateMutability": "view",
      "type": "function"
    },
    {
      "inputs": [
        {
          "internalType": "uint256",
          "name": "_round",
          "type": "uint256"
        }
      ],
      "name": "getPlayersByRound",
      "outputs": [
        {
          "internalType": "address[]",
          "name": "",
          "type": "address[]"
        }
      ],
      "stateMutability": "view",
      "type": "function"
    },
    {
      "inputs": [],
      "name": "getTicketCount",
      "outputs": [
        {
          "internalType": "uint256",
          "name": "",
          "type": "uint256"
        }
      ],
      "stateMutability": "view",
      "type": "function"
    },
    {
      "inputs": [],
      "name": "getTicketPrice",
      "outputs": [
        {
          "internalType": "uint256",
          "name": "",
          "type": "uint256"
        }
      ],
      "stateMutability": "view",
      "type": "function"
    },
    {
      "inputs": [],
      "name": "getTotalPool",
      "outputs": [
        {
          "internalType": "uint256",
          "name": "",
          "type": "uint256"
        }
      ],
      "stateMutability": "view",
      "type": "function"
    },
    {
      "inputs": [
        {
          "internalType": "uint256",
          "name": "_round",
          "type": "uint256"
        }
      ],
      "name": "getWinnerByRound",
      "outputs": [
        {
          "internalType": "address",
          "name": "",
          "type": "address"
        }
      ],
      "stateMutability": "view",
      "type": "function"
    },
    {
      "inputs": [
        {
          "internalType": "uint256",
          "name": "_round",
          "type": "uint256"
        }
      ],
      "name": "getWinningTokenId",
      "outputs": [
        {
          "internalType": "uint256",
          "name": "",
          "type": "uint256"
        }
      ],
      "stateMutability": "view",
      "type": "function"
    },
    {
      "inputs": [
        {
          "internalType": "uint256",
          "name": "",
          "type": "uint256"
        }
      ],
      "name": "historyTokenId",
      "outputs": [
        {
          "internalType": "uint256",
          "name": "",
          "type": "uint256"
        }
      ],
      "stateMutability": "view",
      "type": "function"
    },
    {
      "inputs": [],
      "name": "isAwaitingRandomness",
      "outputs": [
        {
          "internalType": "bool",
          "name": "",
          "type": "bool"
        }
      ],
      "stateMutability": "view",
      "type": "function"
    },
    {
      "inputs": [],
      "name": "isGameActive",
      "outputs": [
        {
          "internalType": "bool",
          "name": "",
          "type": "bool"
        }
      ],
      "stateMutability": "view",
      "type": "function"
    },
    {
      "inputs": [],
      "name": "joinLottery",
      "outputs": [],
      "stateMutability": "payable",
      "type": "function"
    },
    {
      "inputs": [],
      "name": "lotteryNFT",
      "outputs": [
        {
          "internalType": "contract NFT",
          "name": "",
          "type": "address"
        }
      ],
      "stateMutability": "view",
      "type": "function"
    },
    {
      "inputs": [
        {
          "internalType": "uint256",
          "name": "requestId",
          "type": "uint256"
        },
        {
          "internalType": "uint256[]",
          "name": "randomWords",
          "type": "uint256[]"
        }
      ],
      "name": "onRandomWords",
      "outputs": [],
      "stateMutability": "nonpayable",
      "type": "function"
    },
    {
      "inputs": [],
      "name": "pickWinner",
      "outputs": [],
      "stateMutability": "nonpayable",
      "type": "function"
    },
    {
      "inputs": [],
      "name": "randomConsumer",
      "outputs": [
        {
          "internalType": "contract IRandomNumberConsumerV2Plus",
          "name": "",
          "type": "address"
        }
      ],
      "stateMutability": "view",
      "type": "function"
    },
    {
      "inputs": [],
      "name": "resetGames",
      "outputs": [],
      "stateMutability": "nonpayable",
      "type": "function"
    }
  ],
  "bytecode": "0x60806040526000600581905566038d7ea4c68000600655600755600a60085561002b42620151806100ae565b60095534801561003a57600080fd5b50604051611067380380611067833981016040819052610059916100f1565b60008054336001600160a01b031991821617909155600b80549091166001600160a01b03938416179055600a80546001600160a81b031916610100929093169190910260ff1916919091176001179055610124565b808201808211156100cf57634e487b7160e01b600052601160045260246000fd5b92915050565b80516001600160a01b03811681146100ec57600080fd5b919050565b6000806040838503121561010457600080fd5b61010d836100d5565b915061011b602084016100d5565b90509250929050565b610f34806101336000396000f3fe60806040526004361061011f5760003560e01c806390254c3a116100a0578063b830ac8b11610064578063b830ac8b1461030a578063c334745b1461031f578063d500958414610334578063e8adfbc714610352578063faf390d01461037757600080fd5b806390254c3a1461026e578063948a9fb41461029b57806397a8b917146102b3578063a32bf597146102e0578063b5b5dcbc146102f557600080fd5b80636c77f989116100e75780636c77f989146101d057806375f4d677146101d857806382b0db4f146101eb57806387bb7ae0146102395780638c5c8eab1461024e57600080fd5b80630c0ef2b01461012457806321c63a471461014d5780634046bad31461016c57806342f3442a1461018e5780635d495aea146101bb575b600080fd5b34801561013057600080fd5b50600a5460ff165b60405190151581526020015b60405180910390f35b34801561015957600080fd5b506007545b604051908152602001610144565b34801561017857600080fd5b5061018c610187366004610d7f565b61038c565b005b34801561019a57600080fd5b5061015e6101a9366004610e00565b60009081526004602052604090205490565b3480156101c757600080fd5b5061018c610646565b61018c6108d9565b3480156101e457600080fd5b504761015e565b3480156101f757600080fd5b50610221610206366004610e00565b6000908152600260205260409020546001600160a01b031690565b6040516001600160a01b039091168152602001610144565b34801561024557600080fd5b5060065461015e565b34801561025a57600080fd5b50600b54610221906001600160a01b031681565b34801561027a57600080fd5b5061028e610289366004610e00565b610a94565b6040516101449190610e19565b3480156102a757600080fd5b5060105460ff16610138565b3480156102bf57600080fd5b5061015e6102ce366004610e00565b60046020526000908152604090205481565b3480156102ec57600080fd5b5060055461015e565b34801561030157600080fd5b5060095461015e565b34801561031657600080fd5b5061018c610b00565b34801561032b57600080fd5b5060085461015e565b34801561034057600080fd5b506000546001600160a01b0316610221565b34801561035e57600080fd5b50600a546102219061010090046001600160a01b031681565b34801561038357600080fd5b50600f5461015e565b600b546001600160a01b031633146103e35760405162461bcd60e51b8152602060048201526015602482015274556e617574686f72697a65642063616c6c6261636b60581b60448201526064015b60405180910390fd5b60105460ff1661042e5760405162461bcd60e51b8152602060048201526016602482015275139bc81c195b991a5b99c8159491881c995c5d595cdd60521b60448201526064016103da565b600f5483146104755760405162461bcd60e51b81526020600482015260136024820152720a4cae2eacae6e840928840dad2e6dac2e8c6d606b1b60448201526064016103da565b6000838152600e6020908152604080832054808452600c90925290912054806104d65760405162461bcd60e51b8152602060048201526013602482015272139bc81c1b185e595c9cc81a5b881c9bdd5b99606a1b60448201526064016103da565b600081858560008181106104ec576104ec610e65565b905060200201356104fd9190610e7b565b6000848152600160209081526040808320848452825280832054878452600290925280832080546001600160a01b0319166001600160a01b03938416908117909155600a5491516306d0804360e31b81526004810182905294955093610100909104909116906336840218906024016020604051808303816000875af115801561058b573d6000803e3d6000fd5b505050506040513d601f19601f820116820180604052508101906105af9190610e9d565b60055460009081526004602052604090208190559050476105d08382610c9e565b6010805460ff191690556000600f819055898152600e602090815260408083209290925581516001600160a01b03861681529081018390529081018390527f7e57d825a2478cc8123a008d7d1e20c0f6e8cbca89a7bc100c9b05ecb3698deb9060600160405180910390a1505050505050505050565b6000546001600160a01b0316331461068e5760405162461bcd60e51b815260206004820152600b60248201526a2737ba1036b0b730b3b2b960a91b60448201526064016103da565b600a5460ff166106d55760405162461bcd60e51b815260206004820152601260248201527111d85b5948185b1c9958591e48195b99195960721b60448201526064016103da565b60105460ff161561071a5760405162461bcd60e51b815260206004820152600f60248201526e2bb0b4ba34b733903337b9102b292360891b60448201526064016103da565b60095442118061072d5750600854600754145b6107835760405162461bcd60e51b815260206004820152602160248201527f446f206e6f74206d65657420636f6e646974696f6e7320746f20656e642079656044820152601d60fa1b60648201526084016103da565b6000600754116107c75760405162461bcd60e51b815260206004820152600f60248201526e139bc81d1a58dad95d1cc81cdbdb19608a1b60448201526064016103da565b600a805460ff19908116909155601080549091166001179055600754600580546000908152600c602090815260408083209490945591548152600d8252828120479055600b54835163c155f06b60e01b8152935191936001600160a01b039091169263c155f06b92600480840193829003018187875af115801561084f573d6000803e3d6000fd5b505050506040513d601f19601f820116820180604052508101906108739190610e9d565b600f8190556005546000828152600e6020908152604091829020839055600754825185815291820193909352908101919091529091507f34e010a4ef37e7b53b3d02e76e84b745a250daa244a2768dabaf7c0c1947963e9060600160405180910390a150565b600a5460ff16151560011461091d5760405162461bcd60e51b815260206004820152600a60248201526911d85b5948195b99195960b21b60448201526064016103da565b6009544211156109615760405162461bcd60e51b815260206004820152600f60248201526e111958591b1a5b99481c185cdcd959608a1b60448201526064016103da565b600854600754106109a95760405162461bcd60e51b815260206004820152601260248201527113585e081d1a58dad95d081c995858da195960721b60448201526064016103da565b60065434146109f35760405162461bcd60e51b8152602060048201526016602482015275496e636f7272656374207469636b657420707269636560501b60448201526064016103da565b6005805460009081526001602081815260408084206007805486529083528185208054336001600160a01b031991821681179092559654865260038452918520805494850181558552918420909201805490941690911790925581549190610a5a83610ecc565b90915550506040513381527f31e760aa525306aba638a784082a013b6a1cc0a9a1789f3f22281c0453b10b1f9060200160405180910390a1565b600081815260036020908152604091829020805483518184028101840190945280845260609392830182828015610af457602002820191906000526020600020905b81546001600160a01b03168152600190910190602001808311610ad6575b50505050509050919050565b6000546001600160a01b03163314610b485760405162461bcd60e51b815260206004820152600b60248201526a2737ba1036b0b730b3b2b960a91b60448201526064016103da565b600a5460ff1615610b8f5760405162461bcd60e51b815260206004820152601160248201527047616d65207374696c6c2061637469766560781b60448201526064016103da565b60105460ff1615610bd85760405162461bcd60e51b8152602060048201526013602482015272105dd85a5d1a5b99c8159491881c995cdd5b1d606a1b60448201526064016103da565b6005546000908152600260205260409020546001600160a01b0316610c375760405162461bcd60e51b815260206004820152601560248201527415da5b9b995c881b9bdd081c1a58dad959081e595d605a1b60448201526064016103da565b6000600755610c494262015180610ee5565b600955600a805460ff1916600117905560058054906000610c6983610ecc565b90915550506000600f8190556040517fb099e5cd2bc762336d73805fea2535fffd73f2b0386cf45adeb96ad906991d309190a1565b80471015610ce55760405162461bcd60e51b8152602060048201526014602482015273496e73756666696369656e742062616c616e636560601b60448201526064016103da565b6000826001600160a01b03168260405160006040518083038185875af1925050503d8060008114610d32576040519150601f19603f3d011682016040523d82523d6000602084013e610d37565b606091505b5050905080610d7a5760405162461bcd60e51b815260206004820152600f60248201526e151c985b9cd9995c8819985a5b1959608a1b60448201526064016103da565b505050565b600080600060408486031215610d9457600080fd5b83359250602084013567ffffffffffffffff811115610db257600080fd5b8401601f81018613610dc357600080fd5b803567ffffffffffffffff811115610dda57600080fd5b8660208260051b8401011115610def57600080fd5b939660209190910195509293505050565b600060208284031215610e1257600080fd5b5035919050565b602080825282518282018190526000918401906040840190835b81811015610e5a5783516001600160a01b0316835260209384019390920191600101610e33565b509095945050505050565b634e487b7160e01b600052603260045260246000fd5b600082610e9857634e487b7160e01b600052601260045260246000fd5b500690565b600060208284031215610eaf57600080fd5b5051919050565b634e487b7160e01b600052601160045260246000fd5b600060018201610ede57610ede610eb6565b5060010190565b80820180821115610ef857610ef8610eb6565b9291505056fea2646970667358221220ed7df368437225417e82965cdc3f5ff552e93be7f2b45c0549adabfe34cacdb364736f6c634300081c0033",
  "linkReferences": {},
  "deployedLinkReferences": {}
}