{
  "_format": "hh-sol-artifact-1",
  "contractName": "Lottery",
  "sourceName": "contracts/Lottery.sol",
  "abi": [
    {
      "inputs": [
        {
          "internalType": "address",
          "name": "_randomGenerator",
          "type": "address"
        },
        {
          "internalType": "address",
          "name": "_lotteryNFT",
          "type": "address"
        }
      ],
      "stateMutability": "nonpayable",
      "type": "constructor"
    },
    {
      "anonymous": false,
      "inputs": [],
      "name": "GameReseted",
      "type": "event"
    },
    {
      "anonymous": false,
      "inputs": [
        {
          "indexed": false,
          "internalType": "address",
          "name": "player",
          "type": "address"
        }
      ],
      "name": "PlayerJoined",
      "type": "event"
    },
    {
      "anonymous": false,
      "inputs": [
        {
          "indexed": false,
          "internalType": "address",
          "name": "winner",
          "type": "address"
        },
        {
          "indexed": false,
          "internalType": "uint256",
          "name": "prize",
          "type": "uint256"
        },
        {
          "indexed": false,
          "internalType": "uint256",
          "name": "winnerNFTId",
          "type": "uint256"
        }
      ],
      "name": "WinnerPicked",
      "type": "event"
    },
    {
      "inputs": [],
      "name": "getCurrentRound",
      "outputs": [
        {
          "internalType": "uint256",
          "name": "",
          "type": "uint256"
        }
      ],
      "stateMutability": "view",
      "type": "function"
    },
    {
      "inputs": [],
      "name": "getDeadlines",
      "outputs": [
        {
          "internalType": "uint256",
          "name": "",
          "type": "uint256"
        }
      ],
      "stateMutability": "view",
      "type": "function"
    },
    {
      "inputs": [],
      "name": "getManager",
      "outputs": [
        {
          "internalType": "address",
          "name": "",
          "type": "address"
        }
      ],
      "stateMutability": "view",
      "type": "function"
    },
    {
      "inputs": [],
      "name": "getMaxTicket",
      "outputs": [
        {
          "internalType": "uint256",
          "name": "",
          "type": "uint256"
        }
      ],
      "stateMutability": "view",
      "type": "function"
    },
    {
      "inputs": [
        {
          "internalType": "uint256",
          "name": "_round",
          "type": "uint256"
        }
      ],
      "name": "getPlayersByRound",
      "outputs": [
        {
          "internalType": "address[]",
          "name": "",
          "type": "address[]"
        }
      ],
      "stateMutability": "view",
      "type": "function"
    },
    {
      "inputs": [],
      "name": "getTicketCount",
      "outputs": [
        {
          "internalType": "uint256",
          "name": "",
          "type": "uint256"
        }
      ],
      "stateMutability": "view",
      "type": "function"
    },
    {
      "inputs": [],
      "name": "getTicketPrice",
      "outputs": [
        {
          "internalType": "uint256",
          "name": "",
          "type": "uint256"
        }
      ],
      "stateMutability": "view",
      "type": "function"
    },
    {
      "inputs": [],
      "name": "getTotalPool",
      "outputs": [
        {
          "internalType": "uint256",
          "name": "",
          "type": "uint256"
        }
      ],
      "stateMutability": "view",
      "type": "function"
    },
    {
      "inputs": [
        {
          "internalType": "uint256",
          "name": "_round",
          "type": "uint256"
        }
      ],
      "name": "getWinnerByRound",
      "outputs": [
        {
          "internalType": "address",
          "name": "",
          "type": "address"
        }
      ],
      "stateMutability": "view",
      "type": "function"
    },
    {
      "inputs": [],
      "name": "isGameActive",
      "outputs": [
        {
          "internalType": "bool",
          "name": "",
          "type": "bool"
        }
      ],
      "stateMutability": "view",
      "type": "function"
    },
    {
      "inputs": [],
      "name": "joinLottery",
      "outputs": [],
      "stateMutability": "payable",
      "type": "function"
    },
    {
      "inputs": [],
      "name": "lotteryNFT",
      "outputs": [
        {
          "internalType": "contract NFT",
          "name": "",
          "type": "address"
        }
      ],
      "stateMutability": "view",
      "type": "function"
    },
    {
      "inputs": [],
      "name": "pickWinner",
      "outputs": [],
      "stateMutability": "nonpayable",
      "type": "function"
    },
    {
      "inputs": [],
      "name": "resetGames",
      "outputs": [],
      "stateMutability": "nonpayable",
      "type": "function"
    },
    {
      "inputs": [
        {
          "internalType": "address",
          "name": "_winner",
          "type": "address"
        }
      ],
      "name": "winnerTokenIds",
      "outputs": [
        {
          "internalType": "uint256",
          "name": "",
          "type": "uint256"
        }
      ],
      "stateMutability": "view",
      "type": "function"
    }
  ],
  "bytecode": "0x60806040526000600581905566038d7ea4c68000600655600755600a60085561002b42620151806100ae565b60095534801561003a57600080fd5b50604051610b2e380380610b2e833981016040819052610059916100f1565b60008054336001600160a01b031991821617909155600a8054600b80549093166001600160a01b03948516179092556001600160a81b0319909116610100939092169290920260ff1916176001179055610124565b808201808211156100cf57634e487b7160e01b600052601160045260246000fd5b92915050565b80516001600160a01b03811681146100ec57600080fd5b919050565b6000806040838503121561010457600080fd5b61010d836100d5565b915061011b602084016100d5565b90509250929050565b6109fb806101336000396000f3fe6080604052600436106100e85760003560e01c806387bb7ae01161008a578063b830ac8b11610059578063b830ac8b14610256578063c334745b1461026b578063d500958414610280578063e8adfbc71461029e57600080fd5b806387bb7ae0146101ea57806390254c3a146101ff578063a32bf5971461022c578063b5b5dcbc1461024157600080fd5b80635d495aea116100c65780635d495aea1461016a5780636c77f9891461018157806375f4d6771461018957806382b0db4f1461019c57600080fd5b80630c0ef2b0146100ed57806321c63a4714610115578063499829a714610134575b600080fd5b3480156100f957600080fd5b50600a5460ff1660405190151581526020015b60405180910390f35b34801561012157600080fd5b506007545b60405190815260200161010c565b34801561014057600080fd5b5061012661014f3660046108cf565b6001600160a01b031660009081526004602052604090205490565b34801561017657600080fd5b5061017f6102be565b005b61017f6104d6565b34801561019557600080fd5b5047610126565b3480156101a857600080fd5b506101d26101b73660046108ff565b6000908152600260205260409020546001600160a01b031690565b6040516001600160a01b03909116815260200161010c565b3480156101f657600080fd5b50600654610126565b34801561020b57600080fd5b5061021f61021a3660046108ff565b610691565b60405161010c9190610918565b34801561023857600080fd5b50600554610126565b34801561024d57600080fd5b50600954610126565b34801561026257600080fd5b5061017f6106fd565b34801561027757600080fd5b50600854610126565b34801561028c57600080fd5b506000546001600160a01b03166101d2565b3480156102aa57600080fd5b50600b546101d2906001600160a01b031681565b6000546001600160a01b0316331461030b5760405162461bcd60e51b815260206004820152600b60248201526a2737ba1036b0b730b3b2b960a91b60448201526064015b60405180910390fd5b600a5460ff166103525760405162461bcd60e51b815260206004820152601260248201527111d85b5948185b1c9958591e48195b99195960721b6044820152606401610302565b6009544211806103655750600854600754145b6103bb5760405162461bcd60e51b815260206004820152602160248201527f446f206e6f74206d65657420636f6e646974696f6e7320746f20656e642079656044820152601d60fa1b6064820152608401610302565b6000600754116103ff5760405162461bcd60e51b815260206004820152600f60248201526e139bc81d1a58dad95d1cc81cdbdb19608a1b6044820152606401610302565b600a546007546040516387cc49b960e01b8152600481019190915260009161010090046001600160a01b0316906387cc49b990602401602060405180830381865afa158015610452573d6000803e3d6000fd5b505050506040513d601f19601f820116820180604052508101906104769190610964565b60055460008181526001602090815260408083208584528252808320549383526002909152902080546001600160a01b0319166001600160a01b039092169182179055909150476104c782826107ee565b5050600a805460ff1916905550565b600a5460ff16151560011461051a5760405162461bcd60e51b815260206004820152600a60248201526911d85b5948195b99195960b21b6044820152606401610302565b60095442111561055e5760405162461bcd60e51b815260206004820152600f60248201526e111958591b1a5b99481c185cdcd959608a1b6044820152606401610302565b600854600754106105a65760405162461bcd60e51b815260206004820152601260248201527113585e081d1a58dad95d081c995858da195960721b6044820152606401610302565b60065434146105f05760405162461bcd60e51b8152602060048201526016602482015275496e636f7272656374207469636b657420707269636560501b6044820152606401610302565b6005805460009081526001602081815260408084206007805486529083528185208054336001600160a01b03199182168117909255965486526003845291852080549485018155855291842090920180549094169091179092558154919061065783610993565b90915550506040513381527f31e760aa525306aba638a784082a013b6a1cc0a9a1789f3f22281c0453b10b1f9060200160405180910390a1565b6000818152600360209081526040918290208054835181840281018401909452808452606093928301828280156106f157602002820191906000526020600020905b81546001600160a01b031681526001909101906020018083116106d3575b50505050509050919050565b6000546001600160a01b031633146107455760405162461bcd60e51b815260206004820152600b60248201526a2737ba1036b0b730b3b2b960a91b6044820152606401610302565b600a5460ff161561078c5760405162461bcd60e51b815260206004820152601160248201527047616d65207374696c6c2061637469766560781b6044820152606401610302565b600060075561079e42620151806109ac565b600955600a805460ff19166001179055600580549060006107be83610993565b90915550506040517fb099e5cd2bc762336d73805fea2535fffd73f2b0386cf45adeb96ad906991d3090600090a1565b804710156108355760405162461bcd60e51b8152602060048201526014602482015273496e73756666696369656e742062616c616e636560601b6044820152606401610302565b6000826001600160a01b03168260405160006040518083038185875af1925050503d8060008114610882576040519150601f19603f3d011682016040523d82523d6000602084013e610887565b606091505b50509050806108ca5760405162461bcd60e51b815260206004820152600f60248201526e151c985b9cd9995c8819985a5b1959608a1b6044820152606401610302565b505050565b6000602082840312156108e157600080fd5b81356001600160a01b03811681146108f857600080fd5b9392505050565b60006020828403121561091157600080fd5b5035919050565b602080825282518282018190526000918401906040840190835b818110156109595783516001600160a01b0316835260209384019390920191600101610932565b509095945050505050565b60006020828403121561097657600080fd5b5051919050565b634e487b7160e01b600052601160045260246000fd5b6000600182016109a5576109a561097d565b5060010190565b808201808211156109bf576109bf61097d565b9291505056fea2646970667358221220027c5b244f81c6aeeb7695581c02f7bb9550593eaa3bcafb8c54be7243d91e8264736f6c634300081c0033",
  "linkReferences": {},
  "deployedLinkReferences": {}
}