{
  "_format": "hh-sol-artifact-1",
  "contractName": "Lottery",
  "sourceName": "contracts/Lottery.sol",
  "abi": [
    {
      "inputs": [
        {
          "internalType": "address",
          "name": "_randomGenerator",
          "type": "address"
        },
        {
          "internalType": "address",
          "name": "_lotteryNFT",
          "type": "address"
        }
      ],
      "stateMutability": "nonpayable",
      "type": "constructor"
    },
    {
      "anonymous": false,
      "inputs": [],
      "name": "GameReseted",
      "type": "event"
    },
    {
      "anonymous": false,
      "inputs": [
        {
          "indexed": false,
          "internalType": "address",
          "name": "player",
          "type": "address"
        }
      ],
      "name": "PlayerJoined",
      "type": "event"
    },
    {
      "anonymous": false,
      "inputs": [
        {
          "indexed": false,
          "internalType": "address",
          "name": "winner",
          "type": "address"
        },
        {
          "indexed": false,
          "internalType": "uint256",
          "name": "prize",
          "type": "uint256"
        },
        {
          "indexed": false,
          "internalType": "uint256",
          "name": "winnerNFTId",
          "type": "uint256"
        }
      ],
      "name": "WinnerPicked",
      "type": "event"
    },
    {
      "inputs": [],
      "name": "getDeadlines",
      "outputs": [
        {
          "internalType": "uint256",
          "name": "",
          "type": "uint256"
        }
      ],
      "stateMutability": "view",
      "type": "function"
    },
    {
      "inputs": [],
      "name": "getManager",
      "outputs": [
        {
          "internalType": "address",
          "name": "",
          "type": "address"
        }
      ],
      "stateMutability": "view",
      "type": "function"
    },
    {
      "inputs": [],
      "name": "getMaxTicket",
      "outputs": [
        {
          "internalType": "uint256",
          "name": "",
          "type": "uint256"
        }
      ],
      "stateMutability": "view",
      "type": "function"
    },
    {
      "inputs": [
        {
          "internalType": "uint256",
          "name": "_round",
          "type": "uint256"
        }
      ],
      "name": "getPlayersByRound",
      "outputs": [
        {
          "internalType": "address[]",
          "name": "",
          "type": "address[]"
        }
      ],
      "stateMutability": "view",
      "type": "function"
    },
    {
      "inputs": [],
      "name": "getTicketCount",
      "outputs": [
        {
          "internalType": "uint256",
          "name": "",
          "type": "uint256"
        }
      ],
      "stateMutability": "view",
      "type": "function"
    },
    {
      "inputs": [],
      "name": "getTicketPrice",
      "outputs": [
        {
          "internalType": "uint256",
          "name": "",
          "type": "uint256"
        }
      ],
      "stateMutability": "view",
      "type": "function"
    },
    {
      "inputs": [
        {
          "internalType": "uint256",
          "name": "_round",
          "type": "uint256"
        }
      ],
      "name": "getWinnerByRound",
      "outputs": [
        {
          "internalType": "address",
          "name": "",
          "type": "address"
        }
      ],
      "stateMutability": "view",
      "type": "function"
    },
    {
      "inputs": [],
      "name": "isGameActive",
      "outputs": [
        {
          "internalType": "bool",
          "name": "",
          "type": "bool"
        }
      ],
      "stateMutability": "view",
      "type": "function"
    },
    {
      "inputs": [],
      "name": "joinLottery",
      "outputs": [],
      "stateMutability": "payable",
      "type": "function"
    },
    {
      "inputs": [],
      "name": "lotteryNFT",
      "outputs": [
        {
          "internalType": "contract NFT",
          "name": "",
          "type": "address"
        }
      ],
      "stateMutability": "view",
      "type": "function"
    },
    {
      "inputs": [],
      "name": "pickWinner",
      "outputs": [],
      "stateMutability": "nonpayable",
      "type": "function"
    },
    {
      "inputs": [],
      "name": "resetGames",
      "outputs": [],
      "stateMutability": "nonpayable",
      "type": "function"
    },
    {
      "inputs": [
        {
          "internalType": "address",
          "name": "_winner",
          "type": "address"
        }
      ],
      "name": "winnerTokenIds",
      "outputs": [
        {
          "internalType": "uint256",
          "name": "",
          "type": "uint256"
        }
      ],
      "stateMutability": "view",
      "type": "function"
    }
  ],
  "bytecode": "0x60806040526000600581905566038d7ea4c68000600655600755600a60085561002b42620151806100ae565b60095534801561003a57600080fd5b506040516109f23803806109f2833981016040819052610059916100f1565b60008054336001600160a01b031991821617909155600a8054600b80549093166001600160a01b03948516179092556001600160a81b0319909116610100939092169290920260ff1916176001179055610124565b808201808211156100cf57634e487b7160e01b600052601160045260246000fd5b92915050565b80516001600160a01b03811681146100ec57600080fd5b919050565b6000806040838503121561010457600080fd5b61010d836100d5565b915061011b602084016100d5565b90509250929050565b6108bf806101336000396000f3fe6080604052600436106100c25760003560e01c806387bb7ae01161007f578063b830ac8b11610059578063b830ac8b14610208578063c334745b1461021d578063d500958414610232578063e8adfbc71461025057600080fd5b806387bb7ae0146101b157806390254c3a146101c6578063b5b5dcbc146101f357600080fd5b80630c0ef2b0146100c757806321c63a47146100ef578063499829a71461010e5780635d495aea146101445780636c77f9891461015b57806382b0db4f14610163575b600080fd5b3480156100d357600080fd5b50600a5460ff1660405190151581526020015b60405180910390f35b3480156100fb57600080fd5b506007545b6040519081526020016100e6565b34801561011a57600080fd5b50610100610129366004610793565b6001600160a01b031660009081526004602052604090205490565b34801561015057600080fd5b50610159610270565b005b61015961047b565b34801561016f57600080fd5b5061019961017e3660046107c3565b6000908152600260205260409020546001600160a01b031690565b6040516001600160a01b0390911681526020016100e6565b3480156101bd57600080fd5b50600654610100565b3480156101d257600080fd5b506101e66101e13660046107c3565b610636565b6040516100e691906107dc565b3480156101ff57600080fd5b50600954610100565b34801561021457600080fd5b506101596106a2565b34801561022957600080fd5b50600854610100565b34801561023e57600080fd5b506000546001600160a01b0316610199565b34801561025c57600080fd5b50600b54610199906001600160a01b031681565b6000546001600160a01b031633146102bd5760405162461bcd60e51b815260206004820152600b60248201526a2737ba1036b0b730b3b2b960a91b60448201526064015b60405180910390fd5b600a5460ff166103045760405162461bcd60e51b815260206004820152601260248201527111d85b5948185b1c9958591e48195b99195960721b60448201526064016102b4565b6009544211806103175750600854600754145b61036d5760405162461bcd60e51b815260206004820152602160248201527f446f206e6f74206d65657420636f6e646974696f6e7320746f20656e642079656044820152601d60fa1b60648201526084016102b4565b6000600754116103b15760405162461bcd60e51b815260206004820152600f60248201526e139bc81d1a58dad95d1cc81cdbdb19608a1b60448201526064016102b4565b600a546007546040516387cc49b960e01b8152600481019190915260009161010090046001600160a01b0316906387cc49b990602401602060405180830381865afa158015610404573d6000803e3d6000fd5b505050506040513d601f19601f820116820180604052508101906104289190610828565b600554600081815260016020908152604080832094835293815283822054928252600290529190912080546001600160a01b0319166001600160a01b0390921691909117905550600a805460ff19169055565b600a5460ff1615156001146104bf5760405162461bcd60e51b815260206004820152600a60248201526911d85b5948195b99195960b21b60448201526064016102b4565b6009544211156105035760405162461bcd60e51b815260206004820152600f60248201526e111958591b1a5b99481c185cdcd959608a1b60448201526064016102b4565b6008546007541061054b5760405162461bcd60e51b815260206004820152601260248201527113585e081d1a58dad95d081c995858da195960721b60448201526064016102b4565b60065434146105955760405162461bcd60e51b8152602060048201526016602482015275496e636f7272656374207469636b657420707269636560501b60448201526064016102b4565b6005805460009081526001602081815260408084206007805486529083528185208054336001600160a01b0319918216811790925596548652600384529185208054948501815585529184209092018054909416909117909255815491906105fc83610857565b90915550506040513381527f31e760aa525306aba638a784082a013b6a1cc0a9a1789f3f22281c0453b10b1f9060200160405180910390a1565b60008181526003602090815260409182902080548351818402810184019094528084526060939283018282801561069657602002820191906000526020600020905b81546001600160a01b03168152600190910190602001808311610678575b50505050509050919050565b6000546001600160a01b031633146106ea5760405162461bcd60e51b815260206004820152600b60248201526a2737ba1036b0b730b3b2b960a91b60448201526064016102b4565b600a5460ff16156107315760405162461bcd60e51b815260206004820152601160248201527047616d65207374696c6c2061637469766560781b60448201526064016102b4565b60006007556107434262015180610870565b600955600a805460ff191660011790556005805490600061076383610857565b90915550506040517fb099e5cd2bc762336d73805fea2535fffd73f2b0386cf45adeb96ad906991d3090600090a1565b6000602082840312156107a557600080fd5b81356001600160a01b03811681146107bc57600080fd5b9392505050565b6000602082840312156107d557600080fd5b5035919050565b602080825282518282018190526000918401906040840190835b8181101561081d5783516001600160a01b03168352602093840193909201916001016107f6565b509095945050505050565b60006020828403121561083a57600080fd5b5051919050565b634e487b7160e01b600052601160045260246000fd5b60006001820161086957610869610841565b5060010190565b8082018082111561088357610883610841565b9291505056fea2646970667358221220a790103acc6b65f3919ede663d04775705f3ff4f4e0a634519670d7dd2a34f9064736f6c634300081c0033",
  "linkReferences": {},
  "deployedLinkReferences": {}
}