{
  "_format": "hh-sol-artifact-1",
  "contractName": "MockVRFCoordinatorV2Plus",
  "sourceName": "contracts/mocks/MockVRFCoordinatorV2Plus.sol",
  "abi": [
    {
      "anonymous": false,
      "inputs": [
        {
          "indexed": true,
          "internalType": "bytes32",
          "name": "keyHash",
          "type": "bytes32"
        },
        {
          "indexed": false,
          "internalType": "uint256",
          "name": "requestId",
          "type": "uint256"
        },
        {
          "indexed": false,
          "internalType": "uint256",
          "name": "subId",
          "type": "uint256"
        },
        {
          "indexed": false,
          "internalType": "uint16",
          "name": "requestConfirmations",
          "type": "uint16"
        },
        {
          "indexed": false,
          "internalType": "uint32",
          "name": "callbackGasLimit",
          "type": "uint32"
        },
        {
          "indexed": false,
          "internalType": "uint32",
          "name": "numWords",
          "type": "uint32"
        },
        {
          "indexed": true,
          "internalType": "address",
          "name": "sender",
          "type": "address"
        }
      ],
      "name": "RandomWordsRequested",
      "type": "event"
    },
    {
      "inputs": [
        {
          "internalType": "uint256",
          "name": "requestId",
          "type": "uint256"
        },
        {
          "internalType": "uint256[]",
          "name": "randomWords",
          "type": "uint256[]"
        }
      ],
      "name": "fulfillRandomWords",
      "outputs": [],
      "stateMutability": "nonpayable",
      "type": "function"
    },
    {
      "inputs": [
        {
          "internalType": "uint256",
          "name": "",
          "type": "uint256"
        }
      ],
      "name": "requestIdToConsumer",
      "outputs": [
        {
          "internalType": "address",
          "name": "",
          "type": "address"
        }
      ],
      "stateMutability": "view",
      "type": "function"
    },
    {
      "inputs": [
        {
          "components": [
            {
              "internalType": "bytes32",
              "name": "keyHash",
              "type": "bytes32"
            },
            {
              "internalType": "uint256",
              "name": "subId",
              "type": "uint256"
            },
            {
              "internalType": "uint16",
              "name": "requestConfirmations",
              "type": "uint16"
            },
            {
              "internalType": "uint32",
              "name": "callbackGasLimit",
              "type": "uint32"
            },
            {
              "internalType": "uint32",
              "name": "numWords",
              "type": "uint32"
            },
            {
              "internalType": "bytes",
              "name": "extraArgs",
              "type": "bytes"
            }
          ],
          "internalType": "struct VRFV2PlusClient.RandomWordsRequest",
          "name": "req",
          "type": "tuple"
        }
      ],
      "name": "requestRandomWords",
      "outputs": [
        {
          "internalType": "uint256",
          "name": "",
          "type": "uint256"
        }
      ],
      "stateMutability": "nonpayable",
      "type": "function"
    }
  ],
  "bytecode": "0x60806040526001600055348015601457600080fd5b50610544806100246000396000f3fe608060405234801561001057600080fd5b50600436106100415760003560e01c806338ba4614146100465780639b1c385e1461005b578063b12beeb514610081575b600080fd5b6100596100543660046102eb565b6100c2565b005b61006e6100693660046103c4565b6101ff565b6040519081526020015b60405180910390f35b6100aa61008f366004610406565b6001602052600090815260409020546001600160a01b031681565b6040516001600160a01b039091168152602001610078565b6000828152600160205260409020546001600160a01b0316806101205760405162461bcd60e51b815260206004820152601160248201527014995c5d595cdd081b9bdd08199bdd5b99607a1b60448201526064015b60405180910390fd5b6000816001600160a01b0316848460405160240161013f92919061041f565b60408051601f198184030181529181526020820180516001600160e01b0316631fe543e360e01b17905251610174919061046e565b6000604051808303816000865af19150503d80600081146101b1576040519150601f19603f3d011682016040523d82523d6000602084013e6101b6565b606091505b50509050806101f95760405162461bcd60e51b815260206004820152600f60248201526e10d85b1b189858dac819985a5b1959608a1b6044820152606401610117565b50505050565b60008054819081806102108361049d565b9091555060008181526001602090815260409182902080546001600160a01b031916339081179091559293508535917f7bbad7664892a065d3bb84a8a31c6c53a917217f9af27ed132f7d002a8abc5af91859190880135906102789060608a01908a016104c4565b61028860808a0160608b016104e8565b61029860a08b0160808c016104e8565b60408051958652602086019490945261ffff929092168484015263ffffffff9081166060850152166080830152519081900360a00190a392915050565b634e487b7160e01b600052604160045260246000fd5b600080604083850312156102fe57600080fd5b82359150602083013567ffffffffffffffff81111561031c57600080fd5b8301601f8101851361032d57600080fd5b803567ffffffffffffffff811115610347576103476102d5565b8060051b604051601f19603f830116810181811067ffffffffffffffff82111715610374576103746102d5565b60405291825260208184018101929081018884111561039257600080fd5b6020850194505b838510156103b557843580825260209586019590935001610399565b50809450505050509250929050565b6000602082840312156103d657600080fd5b813567ffffffffffffffff8111156103ed57600080fd5b820160c081850312156103ff57600080fd5b9392505050565b60006020828403121561041857600080fd5b5035919050565b6000604082018483526040602084015280845180835260608501915060208601925060005b81811015610462578351835260209384019390920191600101610444565b50909695505050505050565b6000825160005b8181101561048f5760208186018101518583015201610475565b506000920191825250919050565b6000600182016104bd57634e487b7160e01b600052601160045260246000fd5b5060010190565b6000602082840312156104d657600080fd5b813561ffff811681146103ff57600080fd5b6000602082840312156104fa57600080fd5b813563ffffffff811681146103ff57600080fdfea2646970667358221220ef14cafda1540b640712c979619bc9b44781a6857c603dbd28f2eaa95f85267d64736f6c634300081c0033",
  "linkReferences": {},
  "deployedLinkReferences": {}
}