{
  "_format": "hh-sol-artifact-1",
  "contractName": "NFTMarketplace",
  "sourceName": "contracts/Marketplace.sol",
  "abi": [
    {
      "inputs": [
        {
          "internalType": "address",
          "name": "_nftContract",
          "type": "address"
        }
      ],
      "stateMutability": "nonpayable",
      "type": "constructor"
    },
    {
      "inputs": [
        {
          "internalType": "address",
          "name": "owner",
          "type": "address"
        }
      ],
      "name": "OwnableInvalidOwner",
      "type": "error"
    },
    {
      "inputs": [
        {
          "internalType": "address",
          "name": "account",
          "type": "address"
        }
      ],
      "name": "OwnableUnauthorizedAccount",
      "type": "error"
    },
    {
      "anonymous": false,
      "inputs": [
        {
          "indexed": true,
          "internalType": "uint256",
          "name": "listingId",
          "type": "uint256"
        },
        {
          "indexed": true,
          "internalType": "uint256",
          "name": "tokenId",
          "type": "uint256"
        },
        {
          "indexed": true,
          "internalType": "address",
          "name": "seller",
          "type": "address"
        },
        {
          "indexed": false,
          "internalType": "uint256",
          "name": "price",
          "type": "uint256"
        }
      ],
      "name": "NFTListed",
      "type": "event"
    },
    {
      "anonymous": false,
      "inputs": [
        {
          "indexed": true,
          "internalType": "uint256",
          "name": "listingId",
          "type": "uint256"
        },
        {
          "indexed": true,
          "internalType": "uint256",
          "name": "tokenId",
          "type": "uint256"
        },
        {
          "indexed": false,
          "internalType": "address",
          "name": "seller",
          "type": "address"
        },
        {
          "indexed": false,
          "internalType": "address",
          "name": "buyer",
          "type": "address"
        },
        {
          "indexed": false,
          "internalType": "uint256",
          "name": "price",
          "type": "uint256"
        }
      ],
      "name": "NFTSold",
      "type": "event"
    },
    {
      "anonymous": false,
      "inputs": [
        {
          "indexed": true,
          "internalType": "uint256",
          "name": "listingId",
          "type": "uint256"
        },
        {
          "indexed": true,
          "internalType": "uint256",
          "name": "tokenId",
          "type": "uint256"
        }
      ],
      "name": "NFTUnlisted",
      "type": "event"
    },
    {
      "anonymous": false,
      "inputs": [
        {
          "indexed": true,
          "internalType": "address",
          "name": "previousOwner",
          "type": "address"
        },
        {
          "indexed": true,
          "internalType": "address",
          "name": "newOwner",
          "type": "address"
        }
      ],
      "name": "OwnershipTransferred",
      "type": "event"
    },
    {
      "inputs": [
        {
          "internalType": "uint256",
          "name": "listingId",
          "type": "uint256"
        }
      ],
      "name": "buyNFT",
      "outputs": [],
      "stateMutability": "payable",
      "type": "function"
    },
    {
      "inputs": [
        {
          "internalType": "uint256",
          "name": "listingId",
          "type": "uint256"
        }
      ],
      "name": "getListing",
      "outputs": [
        {
          "components": [
            {
              "internalType": "uint256",
              "name": "listingId",
              "type": "uint256"
            },
            {
              "internalType": "uint256",
              "name": "tokenId",
              "type": "uint256"
            },
            {
              "internalType": "address",
              "name": "seller",
              "type": "address"
            },
            {
              "internalType": "uint256",
              "name": "price",
              "type": "uint256"
            },
            {
              "internalType": "enum NFTMarketplace.ListingStatus",
              "name": "status",
              "type": "uint8"
            },
            {
              "internalType": "uint256",
              "name": "createdAt",
              "type": "uint256"
            }
          ],
          "internalType": "struct NFTMarketplace.Listing",
          "name": "",
          "type": "tuple"
        }
      ],
      "stateMutability": "view",
      "type": "function"
    },
    {
      "inputs": [
        {
          "internalType": "uint256",
          "name": "tokenId",
          "type": "uint256"
        }
      ],
      "name": "isNFTListed",
      "outputs": [
        {
          "internalType": "bool",
          "name": "",
          "type": "bool"
        }
      ],
      "stateMutability": "view",
      "type": "function"
    },
    {
      "inputs": [
        {
          "internalType": "uint256",
          "name": "tokenId",
          "type": "uint256"
        },
        {
          "internalType": "uint256",
          "name": "price",
          "type": "uint256"
        }
      ],
      "name": "listNFT",
      "outputs": [
        {
          "internalType": "uint256",
          "name": "",
          "type": "uint256"
        }
      ],
      "stateMutability": "nonpayable",
      "type": "function"
    },
    {
      "inputs": [
        {
          "internalType": "uint256",
          "name": "",
          "type": "uint256"
        }
      ],
      "name": "listings",
      "outputs": [
        {
          "internalType": "uint256",
          "name": "listingId",
          "type": "uint256"
        },
        {
          "internalType": "uint256",
          "name": "tokenId",
          "type": "uint256"
        },
        {
          "internalType": "address",
          "name": "seller",
          "type": "address"
        },
        {
          "internalType": "uint256",
          "name": "price",
          "type": "uint256"
        },
        {
          "internalType": "enum NFTMarketplace.ListingStatus",
          "name": "status",
          "type": "uint8"
        },
        {
          "internalType": "uint256",
          "name": "createdAt",
          "type": "uint256"
        }
      ],
      "stateMutability": "view",
      "type": "function"
    },
    {
      "inputs": [],
      "name": "nft",
      "outputs": [
        {
          "internalType": "contract IERC721",
          "name": "",
          "type": "address"
        }
      ],
      "stateMutability": "view",
      "type": "function"
    },
    {
      "inputs": [],
      "name": "owner",
      "outputs": [
        {
          "internalType": "address",
          "name": "",
          "type": "address"
        }
      ],
      "stateMutability": "view",
      "type": "function"
    },
    {
      "inputs": [],
      "name": "renounceOwnership",
      "outputs": [],
      "stateMutability": "nonpayable",
      "type": "function"
    },
    {
      "inputs": [
        {
          "internalType": "uint256",
          "name": "",
          "type": "uint256"
        }
      ],
      "name": "tokenListingId",
      "outputs": [
        {
          "internalType": "uint256",
          "name": "",
          "type": "uint256"
        }
      ],
      "stateMutability": "view",
      "type": "function"
    },
    {
      "inputs": [
        {
          "internalType": "address",
          "name": "newOwner",
          "type": "address"
        }
      ],
      "name": "transferOwnership",
      "outputs": [],
      "stateMutability": "nonpayable",
      "type": "function"
    },
    {
      "inputs": [
        {
          "internalType": "uint256",
          "name": "listingId",
          "type": "uint256"
        }
      ],
      "name": "unlistNFT",
      "outputs": [],
      "stateMutability": "nonpayable",
      "type": "function"
    }
  ],
  "bytecode": "0x60a060405234801561001057600080fd5b50604051610f9f380380610f9f83398101604081905261002f91610117565b338061005657604051631e4fbdf760e01b8152600060048201526024015b60405180910390fd5b61005f816100c7565b506001600160a01b0381166100b65760405162461bcd60e51b815260206004820152601360248201527f496e76616c6964204e4654206164647265737300000000000000000000000000604482015260640161004d565b6001600160a01b0316608052610147565b600080546001600160a01b038381166001600160a01b0319831681178455604051919092169283917f8be0079c531659141344cd1fd0a4f28419497f9722a3daafe3b4186f6b6457e09190a35050565b60006020828403121561012957600080fd5b81516001600160a01b038116811461014057600080fd5b9392505050565b608051610e2261017d6000396000818160e9015281816104b201528181610683015281816107a7015261083d0152610e226000f3fe60806040526004361061009c5760003560e01c806394383f141161006457806394383f141461016b578063961f094414610199578063adb78eac146101b9578063bf84f13f146101f8578063de74e57b14610225578063f2fde38b1461029657600080fd5b8063107a274a146100a157806347ccca02146100d757806351ed828814610123578063715018a6146101385780638da5cb5b1461014d575b600080fd5b3480156100ad57600080fd5b506100c16100bc366004610c47565b6102b6565b6040516100ce9190610c98565b60405180910390f35b3480156100e357600080fd5b5061010b7f000000000000000000000000000000000000000000000000000000000000000081565b6040516001600160a01b0390911681526020016100ce565b610136610131366004610c47565b61034c565b005b34801561014457600080fd5b5061013661060a565b34801561015957600080fd5b506000546001600160a01b031661010b565b34801561017757600080fd5b5061018b610186366004610ce9565b61061e565b6040519081526020016100ce565b3480156101a557600080fd5b506101366101b4366004610c47565b610a3d565b3480156101c557600080fd5b506101e86101d4366004610c47565b600090815260036020526040902054151590565b60405190151581526020016100ce565b34801561020457600080fd5b5061018b610213366004610c47565b60036020526000908152604090205481565b34801561023157600080fd5b50610284610240366004610c47565b60026020819052600091825260409091208054600182015492820154600383015460048401546005909401549294936001600160a01b0390921692909160ff169086565b6040516100ce96959493929190610d0b565b3480156102a257600080fd5b506101366102b1366004610d62565b610b3c565b6102be610bf7565b600082815260026020818152604092839020835160c08101855281548152600182015492810192909252808301546001600160a01b031693820193909352600383015460608201526004830154909291608084019160ff169081111561032657610326610c60565b600281111561033757610337610c60565b81526020016005820154815250509050919050565b600081815260026020526040812090600482015460ff16600281111561037457610374610c60565b146103b35760405162461bcd60e51b815260206004820152600a6024820152694e6f742061637469766560b01b60448201526064015b60405180910390fd5b80600301543410156103fa5760405162461bcd60e51b815260206004820152601060248201526f092dce6eaccccd2c6d2cadce8408aa8960831b60448201526064016103aa565b60028101546001600160a01b031633036104565760405162461bcd60e51b815260206004820152601760248201527f43616e6e6f742062757920796f7572206f776e204e465400000000000000000060448201526064016103aa565b6004818101805460ff1916600190811790915582018054600090815260036020526040808220919091556002840154915490516323b872dd60e01b81526001600160a01b039283169381019390935233602484015260448301527f000000000000000000000000000000000000000000000000000000000000000016906323b872dd90606401600060405180830381600087803b1580156104f657600080fd5b505af115801561050a573d6000803e3d6000fd5b50505050600281015460038201546040516000926001600160a01b031691908381818185875af1925050503d8060008114610561576040519150601f19603f3d011682016040523d82523d6000602084013e610566565b606091505b50509050806105ad5760405162461bcd60e51b8152602060048201526013602482015272115512081d1c985b9cd9995c8819985a5b1959606a1b60448201526064016103aa565b600182015460028301546003840154604080516001600160a01b03909316835233602084015282015284907fde2403adaa99c81615d911f2279b4455cc41bcebed30c106c253b975873537e49060600160405180910390a3505050565b610612610b7a565b61061c6000610ba7565b565b60008082116106635760405162461bcd60e51b815260206004820152601160248201527005072696365206d757374206265203e203607c1b60448201526064016103aa565b6040516331a9108f60e11b81526004810184905233906001600160a01b037f00000000000000000000000000000000000000000000000000000000000000001690636352211e90602401602060405180830381865afa1580156106ca573d6000803e3d6000fd5b505050506040513d601f19601f820116820180604052508101906106ee9190610d86565b6001600160a01b0316146107365760405162461bcd60e51b815260206004820152600f60248201526e2737ba103a37b5b2b71037bbb732b960891b60448201526064016103aa565b600083815260036020526040902054156107875760405162461bcd60e51b815260206004820152601260248201527113919508185b1c9958591e481b1a5cdd195960721b60448201526064016103aa565b60405163020604bf60e21b81526004810184905230906001600160a01b037f0000000000000000000000000000000000000000000000000000000000000000169063081812fc90602401602060405180830381865afa1580156107ee573d6000803e3d6000fd5b505050506040513d601f19601f820116820180604052508101906108129190610d86565b6001600160a01b031614806108b0575060405163e985e9c560e01b81523360048201523060248201527f00000000000000000000000000000000000000000000000000000000000000006001600160a01b03169063e985e9c590604401602060405180830381865afa15801561088c573d6000803e3d6000fd5b505050506040513d601f19601f820116820180604052508101906108b09190610da3565b6108fc5760405162461bcd60e51b815260206004820152601860248201527f4d61726b6574706c616365206e6f7420617070726f766564000000000000000060448201526064016103aa565b600060016000815461090d90610dc5565b91905081905590506040518060c00160405280828152602001858152602001336001600160a01b031681526020018481526020016000600281111561095457610954610c60565b8152426020918201526000838152600280835260409182902084518155928401516001808501919091559184015183820180546001600160a01b0319166001600160a01b039092169190911790556060840151600384015560808401516004840180549193909260ff199092169184908111156109d3576109d3610c60565b021790555060a0919091015160059091015560008481526003602052604090819020829055513390859083907f0b17e24a391fc1c737bef358a1bf52f287f106279d5328d0b3dacd826d74b23690610a2e9088815260200190565b60405180910390a49392505050565b600081815260026020526040812090600482015460ff166002811115610a6557610a65610c60565b14610a9f5760405162461bcd60e51b815260206004820152600a6024820152694e6f742061637469766560b01b60448201526064016103aa565b60028101546001600160a01b03163314610ae85760405162461bcd60e51b815260206004820152600a6024820152692737ba1039b2b63632b960b11b60448201526064016103aa565b60048101805460ff191660021790556001810180546000908152600360205260408082208290559154915184917f9df0fe426747e10584f4ba0678ef3dbaca63aa31130c9257379dc3430bfacb7091a35050565b610b44610b7a565b6001600160a01b038116610b6e57604051631e4fbdf760e01b8152600060048201526024016103aa565b610b7781610ba7565b50565b6000546001600160a01b0316331461061c5760405163118cdaa760e01b81523360048201526024016103aa565b600080546001600160a01b038381166001600160a01b0319831681178455604051919092169283917f8be0079c531659141344cd1fd0a4f28419497f9722a3daafe3b4186f6b6457e09190a35050565b6040518060c00160405280600081526020016000815260200160006001600160a01b031681526020016000815260200160006002811115610c3a57610c3a610c60565b8152602001600081525090565b600060208284031215610c5957600080fd5b5035919050565b634e487b7160e01b600052602160045260246000fd5b60038110610c9457634e487b7160e01b600052602160045260246000fd5b9052565b81518152602080830151908201526040808301516001600160a01b0316908201526060808301519082015260808083015160c0830191610cda90840182610c76565b5060a092830151919092015290565b60008060408385031215610cfc57600080fd5b50508035926020909101359150565b868152602081018690526001600160a01b03851660408201526060810184905260c08101610d3c6080830185610c76565b8260a0830152979650505050505050565b6001600160a01b0381168114610b7757600080fd5b600060208284031215610d7457600080fd5b8135610d7f81610d4d565b9392505050565b600060208284031215610d9857600080fd5b8151610d7f81610d4d565b600060208284031215610db557600080fd5b81518015158114610d7f57600080fd5b600060018201610de557634e487b7160e01b600052601160045260246000fd5b506001019056fea2646970667358221220b27c050023197c0a56d9b0bf541665dabb18a2411a581e202a6ec8bff47da30d64736f6c634300081c0033",
  "linkReferences": {},
  "deployedLinkReferences": {}
}