{
  "_format": "hh-sol-artifact-1",
  "contractName": "NFTMarketplace",
  "sourceName": "contracts/Marketplace.sol",
  "abi": [
    {
      "inputs": [],
      "stateMutability": "nonpayable",
      "type": "constructor"
    },
    {
      "inputs": [
        {
          "internalType": "address",
          "name": "sender",
          "type": "address"
        },
        {
          "internalType": "uint256",
          "name": "tokenId",
          "type": "uint256"
        },
        {
          "internalType": "address",
          "name": "owner",
          "type": "address"
        }
      ],
      "name": "ERC721IncorrectOwner",
      "type": "error"
    },
    {
      "inputs": [
        {
          "internalType": "address",
          "name": "operator",
          "type": "address"
        },
        {
          "internalType": "uint256",
          "name": "tokenId",
          "type": "uint256"
        }
      ],
      "name": "ERC721InsufficientApproval",
      "type": "error"
    },
    {
      "inputs": [
        {
          "internalType": "address",
          "name": "approver",
          "type": "address"
        }
      ],
      "name": "ERC721InvalidApprover",
      "type": "error"
    },
    {
      "inputs": [
        {
          "internalType": "address",
          "name": "operator",
          "type": "address"
        }
      ],
      "name": "ERC721InvalidOperator",
      "type": "error"
    },
    {
      "inputs": [
        {
          "internalType": "address",
          "name": "owner",
          "type": "address"
        }
      ],
      "name": "ERC721InvalidOwner",
      "type": "error"
    },
    {
      "inputs": [
        {
          "internalType": "address",
          "name": "receiver",
          "type": "address"
        }
      ],
      "name": "ERC721InvalidReceiver",
      "type": "error"
    },
    {
      "inputs": [
        {
          "internalType": "address",
          "name": "sender",
          "type": "address"
        }
      ],
      "name": "ERC721InvalidSender",
      "type": "error"
    },
    {
      "inputs": [
        {
          "internalType": "uint256",
          "name": "tokenId",
          "type": "uint256"
        }
      ],
      "name": "ERC721NonexistentToken",
      "type": "error"
    },
    {
      "inputs": [
        {
          "internalType": "address",
          "name": "owner",
          "type": "address"
        }
      ],
      "name": "OwnableInvalidOwner",
      "type": "error"
    },
    {
      "inputs": [
        {
          "internalType": "address",
          "name": "account",
          "type": "address"
        }
      ],
      "name": "OwnableUnauthorizedAccount",
      "type": "error"
    },
    {
      "anonymous": false,
      "inputs": [
        {
          "indexed": true,
          "internalType": "address",
          "name": "owner",
          "type": "address"
        },
        {
          "indexed": true,
          "internalType": "address",
          "name": "approved",
          "type": "address"
        },
        {
          "indexed": true,
          "internalType": "uint256",
          "name": "tokenId",
          "type": "uint256"
        }
      ],
      "name": "Approval",
      "type": "event"
    },
    {
      "anonymous": false,
      "inputs": [
        {
          "indexed": true,
          "internalType": "address",
          "name": "owner",
          "type": "address"
        },
        {
          "indexed": true,
          "internalType": "address",
          "name": "operator",
          "type": "address"
        },
        {
          "indexed": false,
          "internalType": "bool",
          "name": "approved",
          "type": "bool"
        }
      ],
      "name": "ApprovalForAll",
      "type": "event"
    },
    {
      "anonymous": false,
      "inputs": [
        {
          "indexed": true,
          "internalType": "uint256",
          "name": "listingId",
          "type": "uint256"
        },
        {
          "indexed": true,
          "internalType": "uint256",
          "name": "tokenId",
          "type": "uint256"
        },
        {
          "indexed": true,
          "internalType": "address",
          "name": "seller",
          "type": "address"
        },
        {
          "indexed": false,
          "internalType": "uint256",
          "name": "price",
          "type": "uint256"
        }
      ],
      "name": "NFTListed",
      "type": "event"
    },
    {
      "anonymous": false,
      "inputs": [
        {
          "indexed": true,
          "internalType": "uint256",
          "name": "tokenId",
          "type": "uint256"
        },
        {
          "indexed": true,
          "internalType": "address",
          "name": "creator",
          "type": "address"
        },
        {
          "indexed": false,
          "internalType": "string",
          "name": "uri",
          "type": "string"
        }
      ],
      "name": "NFTMinted",
      "type": "event"
    },
    {
      "anonymous": false,
      "inputs": [
        {
          "indexed": true,
          "internalType": "uint256",
          "name": "tokenId",
          "type": "uint256"
        },
        {
          "indexed": true,
          "internalType": "address",
          "name": "from",
          "type": "address"
        },
        {
          "indexed": true,
          "internalType": "address",
          "name": "to",
          "type": "address"
        }
      ],
      "name": "NFTOwnershipTransferred",
      "type": "event"
    },
    {
      "anonymous": false,
      "inputs": [
        {
          "indexed": true,
          "internalType": "uint256",
          "name": "listingId",
          "type": "uint256"
        },
        {
          "indexed": true,
          "internalType": "uint256",
          "name": "tokenId",
          "type": "uint256"
        },
        {
          "indexed": false,
          "internalType": "address",
          "name": "seller",
          "type": "address"
        },
        {
          "indexed": true,
          "internalType": "address",
          "name": "buyer",
          "type": "address"
        },
        {
          "indexed": false,
          "internalType": "uint256",
          "name": "price",
          "type": "uint256"
        }
      ],
      "name": "NFTSold",
      "type": "event"
    },
    {
      "anonymous": false,
      "inputs": [
        {
          "indexed": true,
          "internalType": "uint256",
          "name": "listingId",
          "type": "uint256"
        },
        {
          "indexed": true,
          "internalType": "uint256",
          "name": "tokenId",
          "type": "uint256"
        },
        {
          "indexed": true,
          "internalType": "address",
          "name": "seller",
          "type": "address"
        }
      ],
      "name": "NFTUnlisted",
      "type": "event"
    },
    {
      "anonymous": false,
      "inputs": [
        {
          "indexed": true,
          "internalType": "address",
          "name": "previousOwner",
          "type": "address"
        },
        {
          "indexed": true,
          "internalType": "address",
          "name": "newOwner",
          "type": "address"
        }
      ],
      "name": "OwnershipTransferred",
      "type": "event"
    },
    {
      "anonymous": false,
      "inputs": [
        {
          "indexed": true,
          "internalType": "address",
          "name": "from",
          "type": "address"
        },
        {
          "indexed": true,
          "internalType": "address",
          "name": "to",
          "type": "address"
        },
        {
          "indexed": true,
          "internalType": "uint256",
          "name": "tokenId",
          "type": "uint256"
        }
      ],
      "name": "Transfer",
      "type": "event"
    },
    {
      "inputs": [
        {
          "internalType": "address",
          "name": "to",
          "type": "address"
        },
        {
          "internalType": "uint256",
          "name": "tokenId",
          "type": "uint256"
        }
      ],
      "name": "approve",
      "outputs": [],
      "stateMutability": "nonpayable",
      "type": "function"
    },
    {
      "inputs": [
        {
          "internalType": "address",
          "name": "owner",
          "type": "address"
        }
      ],
      "name": "balanceOf",
      "outputs": [
        {
          "internalType": "uint256",
          "name": "",
          "type": "uint256"
        }
      ],
      "stateMutability": "view",
      "type": "function"
    },
    {
      "inputs": [
        {
          "internalType": "uint256",
          "name": "listingId",
          "type": "uint256"
        }
      ],
      "name": "buyNFT",
      "outputs": [],
      "stateMutability": "payable",
      "type": "function"
    },
    {
      "inputs": [
        {
          "internalType": "uint256",
          "name": "tokenId",
          "type": "uint256"
        }
      ],
      "name": "getApproved",
      "outputs": [
        {
          "internalType": "address",
          "name": "",
          "type": "address"
        }
      ],
      "stateMutability": "view",
      "type": "function"
    },
    {
      "inputs": [],
      "name": "getCurrentListingId",
      "outputs": [
        {
          "internalType": "uint256",
          "name": "",
          "type": "uint256"
        }
      ],
      "stateMutability": "view",
      "type": "function"
    },
    {
      "inputs": [],
      "name": "getCurrentTokenId",
      "outputs": [
        {
          "internalType": "uint256",
          "name": "",
          "type": "uint256"
        }
      ],
      "stateMutability": "view",
      "type": "function"
    },
    {
      "inputs": [
        {
          "internalType": "uint256",
          "name": "listingId",
          "type": "uint256"
        }
      ],
      "name": "getListing",
      "outputs": [
        {
          "components": [
            {
              "internalType": "uint256",
              "name": "listingId",
              "type": "uint256"
            },
            {
              "internalType": "uint256",
              "name": "tokenId",
              "type": "uint256"
            },
            {
              "internalType": "address",
              "name": "seller",
              "type": "address"
            },
            {
              "internalType": "uint256",
              "name": "price",
              "type": "uint256"
            },
            {
              "internalType": "enum NFTMarketplace.ListingStatus",
              "name": "status",
              "type": "uint8"
            },
            {
              "internalType": "uint256",
              "name": "createdAt",
              "type": "uint256"
            }
          ],
          "internalType": "struct NFTMarketplace.Listing",
          "name": "",
          "type": "tuple"
        }
      ],
      "stateMutability": "view",
      "type": "function"
    },
    {
      "inputs": [
        {
          "internalType": "uint256",
          "name": "tokenId",
          "type": "uint256"
        }
      ],
      "name": "getTokenCreator",
      "outputs": [
        {
          "internalType": "address",
          "name": "",
          "type": "address"
        }
      ],
      "stateMutability": "view",
      "type": "function"
    },
    {
      "inputs": [
        {
          "internalType": "uint256",
          "name": "tokenId",
          "type": "uint256"
        }
      ],
      "name": "getTokenListingId",
      "outputs": [
        {
          "internalType": "uint256",
          "name": "",
          "type": "uint256"
        }
      ],
      "stateMutability": "view",
      "type": "function"
    },
    {
      "inputs": [
        {
          "internalType": "address",
          "name": "owner",
          "type": "address"
        },
        {
          "internalType": "address",
          "name": "operator",
          "type": "address"
        }
      ],
      "name": "isApprovedForAll",
      "outputs": [
        {
          "internalType": "bool",
          "name": "",
          "type": "bool"
        }
      ],
      "stateMutability": "view",
      "type": "function"
    },
    {
      "inputs": [
        {
          "internalType": "uint256",
          "name": "tokenId",
          "type": "uint256"
        }
      ],
      "name": "isNFTListed",
      "outputs": [
        {
          "internalType": "bool",
          "name": "",
          "type": "bool"
        }
      ],
      "stateMutability": "view",
      "type": "function"
    },
    {
      "inputs": [
        {
          "internalType": "uint256",
          "name": "tokenId",
          "type": "uint256"
        },
        {
          "internalType": "uint256",
          "name": "price",
          "type": "uint256"
        }
      ],
      "name": "listNFT",
      "outputs": [
        {
          "internalType": "uint256",
          "name": "",
          "type": "uint256"
        }
      ],
      "stateMutability": "nonpayable",
      "type": "function"
    },
    {
      "inputs": [
        {
          "internalType": "uint256",
          "name": "",
          "type": "uint256"
        }
      ],
      "name": "listings",
      "outputs": [
        {
          "internalType": "uint256",
          "name": "listingId",
          "type": "uint256"
        },
        {
          "internalType": "uint256",
          "name": "tokenId",
          "type": "uint256"
        },
        {
          "internalType": "address",
          "name": "seller",
          "type": "address"
        },
        {
          "internalType": "uint256",
          "name": "price",
          "type": "uint256"
        },
        {
          "internalType": "enum NFTMarketplace.ListingStatus",
          "name": "status",
          "type": "uint8"
        },
        {
          "internalType": "uint256",
          "name": "createdAt",
          "type": "uint256"
        }
      ],
      "stateMutability": "view",
      "type": "function"
    },
    {
      "inputs": [
        {
          "internalType": "address",
          "name": "to",
          "type": "address"
        },
        {
          "internalType": "string",
          "name": "uri",
          "type": "string"
        }
      ],
      "name": "mintNFT",
      "outputs": [
        {
          "internalType": "uint256",
          "name": "",
          "type": "uint256"
        }
      ],
      "stateMutability": "nonpayable",
      "type": "function"
    },
    {
      "inputs": [],
      "name": "name",
      "outputs": [
        {
          "internalType": "string",
          "name": "",
          "type": "string"
        }
      ],
      "stateMutability": "view",
      "type": "function"
    },
    {
      "inputs": [],
      "name": "owner",
      "outputs": [
        {
          "internalType": "address",
          "name": "",
          "type": "address"
        }
      ],
      "stateMutability": "view",
      "type": "function"
    },
    {
      "inputs": [
        {
          "internalType": "uint256",
          "name": "tokenId",
          "type": "uint256"
        }
      ],
      "name": "ownerOf",
      "outputs": [
        {
          "internalType": "address",
          "name": "",
          "type": "address"
        }
      ],
      "stateMutability": "view",
      "type": "function"
    },
    {
      "inputs": [],
      "name": "renounceOwnership",
      "outputs": [],
      "stateMutability": "nonpayable",
      "type": "function"
    },
    {
      "inputs": [
        {
          "internalType": "address",
          "name": "from",
          "type": "address"
        },
        {
          "internalType": "address",
          "name": "to",
          "type": "address"
        },
        {
          "internalType": "uint256",
          "name": "tokenId",
          "type": "uint256"
        }
      ],
      "name": "safeTransferFrom",
      "outputs": [],
      "stateMutability": "nonpayable",
      "type": "function"
    },
    {
      "inputs": [
        {
          "internalType": "address",
          "name": "from",
          "type": "address"
        },
        {
          "internalType": "address",
          "name": "to",
          "type": "address"
        },
        {
          "internalType": "uint256",
          "name": "tokenId",
          "type": "uint256"
        },
        {
          "internalType": "bytes",
          "name": "data",
          "type": "bytes"
        }
      ],
      "name": "safeTransferFrom",
      "outputs": [],
      "stateMutability": "nonpayable",
      "type": "function"
    },
    {
      "inputs": [
        {
          "internalType": "address",
          "name": "operator",
          "type": "address"
        },
        {
          "internalType": "bool",
          "name": "approved",
          "type": "bool"
        }
      ],
      "name": "setApprovalForAll",
      "outputs": [],
      "stateMutability": "nonpayable",
      "type": "function"
    },
    {
      "inputs": [
        {
          "internalType": "bytes4",
          "name": "interfaceId",
          "type": "bytes4"
        }
      ],
      "name": "supportsInterface",
      "outputs": [
        {
          "internalType": "bool",
          "name": "",
          "type": "bool"
        }
      ],
      "stateMutability": "view",
      "type": "function"
    },
    {
      "inputs": [],
      "name": "symbol",
      "outputs": [
        {
          "internalType": "string",
          "name": "",
          "type": "string"
        }
      ],
      "stateMutability": "view",
      "type": "function"
    },
    {
      "inputs": [
        {
          "internalType": "uint256",
          "name": "",
          "type": "uint256"
        }
      ],
      "name": "tokenCreators",
      "outputs": [
        {
          "internalType": "address",
          "name": "",
          "type": "address"
        }
      ],
      "stateMutability": "view",
      "type": "function"
    },
    {
      "inputs": [
        {
          "internalType": "uint256",
          "name": "",
          "type": "uint256"
        }
      ],
      "name": "tokenListingId",
      "outputs": [
        {
          "internalType": "uint256",
          "name": "",
          "type": "uint256"
        }
      ],
      "stateMutability": "view",
      "type": "function"
    },
    {
      "inputs": [
        {
          "internalType": "uint256",
          "name": "tokenId",
          "type": "uint256"
        }
      ],
      "name": "tokenURI",
      "outputs": [
        {
          "internalType": "string",
          "name": "",
          "type": "string"
        }
      ],
      "stateMutability": "view",
      "type": "function"
    },
    {
      "inputs": [
        {
          "internalType": "address",
          "name": "from",
          "type": "address"
        },
        {
          "internalType": "address",
          "name": "to",
          "type": "address"
        },
        {
          "internalType": "uint256",
          "name": "tokenId",
          "type": "uint256"
        }
      ],
      "name": "transferFrom",
      "outputs": [],
      "stateMutability": "nonpayable",
      "type": "function"
    },
    {
      "inputs": [
        {
          "internalType": "uint256",
          "name": "tokenId",
          "type": "uint256"
        },
        {
          "internalType": "address",
          "name": "to",
          "type": "address"
        }
      ],
      "name": "transferNFT",
      "outputs": [],
      "stateMutability": "nonpayable",
      "type": "function"
    },
    {
      "inputs": [
        {
          "internalType": "address",
          "name": "newOwner",
          "type": "address"
        }
      ],
      "name": "transferOwnership",
      "outputs": [],
      "stateMutability": "nonpayable",
      "type": "function"
    },
    {
      "inputs": [
        {
          "internalType": "uint256",
          "name": "listingId",
          "type": "uint256"
        }
      ],
      "name": "unlistNFT",
      "outputs": [],
      "stateMutability": "nonpayable",
      "type": "function"
    }
  ],
  "bytecode": "0x60806040526000600755600060085534801561001a57600080fd5b50336040518060400160405280600e81526020016d4e46544d61726b6574706c61636560901b815250604051806040016040528060048152602001634e46544d60e01b815250816000908161006f91906101ad565b50600161007c82826101ad565b5050506001600160a01b0381166100ad57604051631e4fbdf760e01b81526000600482015260240160405180910390fd5b6100b6816100bc565b5061026b565b600680546001600160a01b038381166001600160a01b0319831681179093556040519116919082907f8be0079c531659141344cd1fd0a4f28419497f9722a3daafe3b4186f6b6457e090600090a35050565b634e487b7160e01b600052604160045260246000fd5b600181811c9082168061013857607f821691505b60208210810361015857634e487b7160e01b600052602260045260246000fd5b50919050565b601f8211156101a857806000526020600020601f840160051c810160208510156101855750805b601f840160051c820191505b818110156101a55760008155600101610191565b50505b505050565b81516001600160401b038111156101c6576101c661010e565b6101da816101d48454610124565b8461015e565b6020601f82116001811461020e57600083156101f65750848201515b600019600385901b1c1916600184901b1784556101a5565b600084815260208120601f198516915b8281101561023e578785015182556020948501946001909201910161021e565b508482101561025c5786840151600019600387901b60f8161c191681555b50505050600190811b01905550565b611fcb8061027a6000396000f3fe6080604052600436106101cd5760003560e01c8063934689a9116100f7578063be9ad61e11610095578063e0fd045f11610064578063e0fd045f146105b4578063e985e9c5146105ea578063eacabe141461060a578063f2fde38b1461062a57600080fd5b8063be9ad61e146104e0578063bf84f13f146104f5578063c87b56dd14610522578063de74e57b1461054257600080fd5b8063961f0944116100d1578063961f094414610451578063a22cb46514610471578063adb78eac14610491578063b88d4fde146104c057600080fd5b8063934689a9146103e657806394383f141461041c57806395d89b411461043c57600080fd5b806342842e0e1161016f57806370a082311161013e57806370a0823114610373578063715018a6146103935780638da5cb5b146103a85780639036c050146103c657600080fd5b806342842e0e1461030b57806351ed82881461032b578063561892361461033e5780636352211e1461035357600080fd5b8063095ea7b3116101ab578063095ea7b314610261578063107a274a1461028357806323b872dd146102b0578063331dc7cf146102d057600080fd5b806301ffc9a7146101d257806306fdde0314610207578063081812fc14610229575b600080fd5b3480156101de57600080fd5b506101f26101ed366004611a87565b61064a565b60405190151581526020015b60405180910390f35b34801561021357600080fd5b5061021c61065b565b6040516101fe9190611af4565b34801561023557600080fd5b50610249610244366004611b07565b6106ed565b6040516001600160a01b0390911681526020016101fe565b34801561026d57600080fd5b5061028161027c366004611b3c565b610716565b005b34801561028f57600080fd5b506102a361029e366004611b07565b610725565b6040516101fe9190611b9e565b3480156102bc57600080fd5b506102816102cb366004611bef565b6107c0565b3480156102dc57600080fd5b506102fd6102eb366004611b07565b6000908152600a602052604090205490565b6040519081526020016101fe565b34801561031757600080fd5b50610281610326366004611bef565b610850565b610281610339366004611b07565b610870565b34801561034a57600080fd5b506007546102fd565b34801561035f57600080fd5b5061024961036e366004611b07565b610ac0565b34801561037f57600080fd5b506102fd61038e366004611c2c565b610acb565b34801561039f57600080fd5b50610281610b13565b3480156103b457600080fd5b506006546001600160a01b0316610249565b3480156103d257600080fd5b506102816103e1366004611c47565b610b27565b3480156103f257600080fd5b50610249610401366004611b07565b6000908152600b60205260409020546001600160a01b031690565b34801561042857600080fd5b506102fd610437366004611c73565b610c8f565b34801561044857600080fd5b5061021c610ece565b34801561045d57600080fd5b5061028161046c366004611b07565b610edd565b34801561047d57600080fd5b5061028161048c366004611c95565b610ff5565b34801561049d57600080fd5b506101f26104ac366004611b07565b6000908152600a6020526040902054151590565b3480156104cc57600080fd5b506102816104db366004611d61565b611000565b3480156104ec57600080fd5b506008546102fd565b34801561050157600080fd5b506102fd610510366004611b07565b600a6020526000908152604090205481565b34801561052e57600080fd5b5061021c61053d366004611b07565b611018565b34801561054e57600080fd5b506105a261055d366004611b07565b600960205260009081526040902080546001820154600283015460038401546004850154600590950154939492936001600160a01b0390921692909160ff9091169086565b6040516101fe96959493929190611ddd565b3480156105c057600080fd5b506102496105cf366004611b07565b600b602052600090815260409020546001600160a01b031681565b3480156105f657600080fd5b506101f2610605366004611e1f565b61108d565b34801561061657600080fd5b506102fd610625366004611e49565b6110bb565b34801561063657600080fd5b50610281610645366004611c2c565b611189565b6000610655826111c7565b92915050565b60606000805461066a90611eab565b80601f016020809104026020016040519081016040528092919081815260200182805461069690611eab565b80156106e35780601f106106b8576101008083540402835291602001916106e3565b820191906000526020600020905b8154815290600101906020018083116106c657829003601f168201915b5050505050905090565b60006106f882611217565b506000828152600460205260409020546001600160a01b0316610655565b610721828233611250565b5050565b61072d611a21565b600082815260096020908152604091829020825160c081018452815481526001820154928101929092526002808201546001600160a01b03169383019390935260038101546060830152600481015491929091608084019160ff9091169081111561079a5761079a611b66565b60028111156107ab576107ab611b66565b81526020016005820154815250509050919050565b6001600160a01b0382166107ef57604051633250574960e11b8152600060048201526024015b60405180910390fd5b60006107fc83833361125d565b9050836001600160a01b0316816001600160a01b03161461084a576040516364283d7b60e01b81526001600160a01b03808616600483015260248201849052821660448201526064016107e6565b50505050565b61086b83838360405180602001604052806000815250611000565b505050565b600081815260096020526040812090600482015460ff16600281111561089857610898611b66565b146108dd5760405162461bcd60e51b81526020600482015260156024820152744c697374696e67206973206e6f742061637469766560581b60448201526064016107e6565b80600301543410156109285760405162461bcd60e51b8152602060048201526014602482015273125b9cdd59999a58da595b9d081c185e5b595b9d60621b60448201526064016107e6565b6002810154336001600160a01b03909116036109865760405162461bcd60e51b815260206004820152601760248201527f43616e6e6f742062757920796f7572206f776e204e465400000000000000000060448201526064016107e6565b6002810154600180830154600384015460048501805460ff19169093179092556000818152600a60205260408120556001600160a01b0390921691906109cd833384611356565b6000836001600160a01b03163460405160006040518083038185875af1925050503d8060008114610a1a576040519150601f19603f3d011682016040523d82523d6000602084013e610a1f565b606091505b5050905080610a705760405162461bcd60e51b815260206004820152601760248201527f5061796d656e74207472616e73666572206661696c656400000000000000000060448201526064016107e6565b604080516001600160a01b0386168152602081018490523391859189917fde2403adaa99c81615d911f2279b4455cc41bcebed30c106c253b975873537e4910160405180910390a4505050505050565b600061065582611217565b60006001600160a01b038216610af7576040516322718ad960e21b8152600060048201526024016107e6565b506001600160a01b031660009081526003602052604090205490565b610b1b611406565b610b256000611433565b565b6001600160a01b038116610b7d5760405162461bcd60e51b815260206004820152601960248201527f496e76616c696420726563697069656e7420616464726573730000000000000060448201526064016107e6565b33610b8783610ac0565b6001600160a01b031614610bd55760405162461bcd60e51b81526020600482015260156024820152742cb7ba9030b932903737ba103a34329037bbb732b960591b60448201526064016107e6565b6000828152600a602052604090205415610c315760405162461bcd60e51b815260206004820181905260248201527f4e46542069732063757272656e746c79206c697374656420666f722073616c6560448201526064016107e6565b6000610c3c83610ac0565b9050610c498183856107c0565b816001600160a01b0316816001600160a01b0316847f7c05b3c20ca1bb4b7074c827aed0ac8409f570436d6a772c418be83deb3fc08d60405160405180910390a4505050565b600033610c9b84610ac0565b6001600160a01b031614610ce95760405162461bcd60e51b81526020600482015260156024820152742cb7ba9030b932903737ba103a34329037bbb732b960591b60448201526064016107e6565b60008211610d395760405162461bcd60e51b815260206004820152601c60248201527f5072696365206d7573742062652067726561746572207468616e20300000000060448201526064016107e6565b6000838152600a602052604090205415610d8d5760405162461bcd60e51b8152602060048201526015602482015274139195081a5cc8185b1c9958591e481b1a5cdd1959605a1b60448201526064016107e6565b600880549081906000610d9f83611ee5565b91905055506040518060c00160405280828152602001858152602001336001600160a01b0316815260200184815260200160006002811115610de357610de3611b66565b815242602091820152600083815260098252604090819020835181559183015160018084019190915590830151600280840180546001600160a01b0319166001600160a01b03909316929092179091556060840151600384015560808401516004840180549193909260ff19909216918490811115610e6457610e64611b66565b021790555060a091909101516005909101556000848152600a602052604090819020829055513390859083907f0b17e24a391fc1c737bef358a1bf52f287f106279d5328d0b3dacd826d74b23690610ebf9088815260200190565b60405180910390a49392505050565b60606001805461066a90611eab565b600081815260096020526040902060028101546001600160a01b03163314610f405760405162461bcd60e51b81526020600482015260166024820152752cb7ba9030b932903737ba103a34329039b2b63632b960511b60448201526064016107e6565b6000600482015460ff166002811115610f5b57610f5b611b66565b14610fa05760405162461bcd60e51b81526020600482015260156024820152744c697374696e67206973206e6f742061637469766560581b60448201526064016107e6565b60048101805460ff1916600217905560018101546000818152600a6020526040808220829055513391839186917ffc17a20f2f73f67012e09655a23e79c9db5d1a235d8e10e50e15b54916a1d95e91a4505050565b610721338383611485565b61100b8484846107c0565b61084a3385858585611524565b606061102382611217565b50600061103b60408051602081019091526000815290565b9050600081511161105b5760405180602001604052806000815250611086565b806110658461164f565b604051602001611076929190611f0c565b6040516020818303038152906040525b9392505050565b6001600160a01b03918216600090815260056020908152604080832093909416825291909152205460ff1690565b60006001600160a01b0383166111055760405162461bcd60e51b815260206004820152600f60248201526e496e76616c6964206164647265737360881b60448201526064016107e6565b60078054908190600061111783611ee5565b919050555061112684826116e2565b6000818152600b60205260409081902080546001600160a01b03191633908117909155905182907f06becd955c918828f6e985541acbf49cc842c9e9bd569fffc7698e721ef135759061117a908790611af4565b60405180910390a39392505050565b611191611406565b6001600160a01b0381166111bb57604051631e4fbdf760e01b8152600060048201526024016107e6565b6111c481611433565b50565b60006001600160e01b031982166380ac58cd60e01b14806111f857506001600160e01b03198216635b5e139f60e01b145b8061065557506301ffc9a760e01b6001600160e01b0319831614610655565b6000818152600260205260408120546001600160a01b03168061065557604051637e27328960e01b8152600481018490526024016107e6565b61086b83838360016116fc565b6000828152600260205260408120546001600160a01b039081169083161561128a5761128a818486611802565b6001600160a01b038116156112c8576112a76000856000806116fc565b6001600160a01b038116600090815260036020526040902080546000190190555b6001600160a01b038516156112f7576001600160a01b0385166000908152600360205260409020805460010190555b60008481526002602052604080822080546001600160a01b0319166001600160a01b0389811691821790925591518793918516917fddf252ad1be2c89b69c2b068fc378daa952ba7f163c4a11628f55a4df523b3ef91a4949350505050565b6001600160a01b03821661138057604051633250574960e11b8152600060048201526024016107e6565b600061138e8383600061125d565b90506001600160a01b0381166113ba57604051637e27328960e01b8152600481018390526024016107e6565b836001600160a01b0316816001600160a01b03161461084a576040516364283d7b60e01b81526001600160a01b03808616600483015260248201849052821660448201526064016107e6565b6006546001600160a01b03163314610b255760405163118cdaa760e01b81523360048201526024016107e6565b600680546001600160a01b038381166001600160a01b0319831681179093556040519116919082907f8be0079c531659141344cd1fd0a4f28419497f9722a3daafe3b4186f6b6457e090600090a35050565b6001600160a01b0382166114b757604051630b61174360e31b81526001600160a01b03831660048201526024016107e6565b6001600160a01b03838116600081815260056020908152604080832094871680845294825291829020805460ff191686151590811790915591519182527f17307eab39ab6107e8899845ad3d59bd9653f200f220920489ca2b5937696c31910160405180910390a3505050565b6001600160a01b0383163b1561164857604051630a85bd0160e11b81526001600160a01b0384169063150b7a0290611566908890889087908790600401611f3b565b6020604051808303816000875af19250505080156115a1575060408051601f3d908101601f1916820190925261159e91810190611f78565b60015b61160a573d8080156115cf576040519150601f19603f3d011682016040523d82523d6000602084013e6115d4565b606091505b50805160000361160257604051633250574960e11b81526001600160a01b03851660048201526024016107e6565b805160208201fd5b6001600160e01b03198116630a85bd0160e11b1461164657604051633250574960e11b81526001600160a01b03851660048201526024016107e6565b505b5050505050565b6060600061165c83611866565b600101905060008167ffffffffffffffff81111561167c5761167c611cd1565b6040519080825280601f01601f1916602001820160405280156116a6576020820181803683370190505b5090508181016020015b600019016f181899199a1a9b1b9c1cb0b131b232b360811b600a86061a8153600a85049450846116b057509392505050565b61072182826040518060200160405280600081525061193e565b808061171057506001600160a01b03821615155b156117d257600061172084611217565b90506001600160a01b0383161580159061174c5750826001600160a01b0316816001600160a01b031614155b801561175f575061175d818461108d565b155b156117885760405163a9fbf51f60e01b81526001600160a01b03841660048201526024016107e6565b81156117d05783856001600160a01b0316826001600160a01b03167f8c5be1e5ebec7d5bd14f71427d1e84f3dd0314c0f7b2291e5b200ac8c7c3b92560405160405180910390a45b505b5050600090815260046020526040902080546001600160a01b0319166001600160a01b0392909216919091179055565b61180d838383611956565b61086b576001600160a01b03831661183b57604051637e27328960e01b8152600481018290526024016107e6565b60405163177e802f60e01b81526001600160a01b0383166004820152602481018290526044016107e6565b60008072184f03e93ff9f4daa797ed6e38ed64bf6a1f0160401b83106118a55772184f03e93ff9f4daa797ed6e38ed64bf6a1f0160401b830492506040015b6d04ee2d6d415b85acef810000000083106118d1576d04ee2d6d415b85acef8100000000830492506020015b662386f26fc1000083106118ef57662386f26fc10000830492506010015b6305f5e1008310611907576305f5e100830492506008015b612710831061191b57612710830492506004015b6064831061192d576064830492506002015b600a83106106555760010192915050565b61194883836119bc565b61086b336000858585611524565b60006001600160a01b038316158015906119b45750826001600160a01b0316846001600160a01b031614806119905750611990848461108d565b806119b457506000828152600460205260409020546001600160a01b038481169116145b949350505050565b6001600160a01b0382166119e657604051633250574960e11b8152600060048201526024016107e6565b60006119f48383600061125d565b90506001600160a01b0381161561086b576040516339e3563760e11b8152600060048201526024016107e6565b6040518060c00160405280600081526020016000815260200160006001600160a01b031681526020016000815260200160006002811115611a6457611a64611b66565b8152602001600081525090565b6001600160e01b0319811681146111c457600080fd5b600060208284031215611a9957600080fd5b813561108681611a71565b60005b83811015611abf578181015183820152602001611aa7565b50506000910152565b60008151808452611ae0816020860160208601611aa4565b601f01601f19169290920160200192915050565b6020815260006110866020830184611ac8565b600060208284031215611b1957600080fd5b5035919050565b80356001600160a01b0381168114611b3757600080fd5b919050565b60008060408385031215611b4f57600080fd5b611b5883611b20565b946020939093013593505050565b634e487b7160e01b600052602160045260246000fd5b60038110611b9a57634e487b7160e01b600052602160045260246000fd5b9052565b81518152602080830151908201526040808301516001600160a01b0316908201526060808301519082015260808083015160c0830191611be090840182611b7c565b5060a092830151919092015290565b600080600060608486031215611c0457600080fd5b611c0d84611b20565b9250611c1b60208501611b20565b929592945050506040919091013590565b600060208284031215611c3e57600080fd5b61108682611b20565b60008060408385031215611c5a57600080fd5b82359150611c6a60208401611b20565b90509250929050565b60008060408385031215611c8657600080fd5b50508035926020909101359150565b60008060408385031215611ca857600080fd5b611cb183611b20565b915060208301358015158114611cc657600080fd5b809150509250929050565b634e487b7160e01b600052604160045260246000fd5b60008067ffffffffffffffff841115611d0257611d02611cd1565b50604051601f19601f85018116603f0116810181811067ffffffffffffffff82111715611d3157611d31611cd1565b604052838152905080828401851015611d4957600080fd5b83836020830137600060208583010152509392505050565b60008060008060808587031215611d7757600080fd5b611d8085611b20565b9350611d8e60208601611b20565b925060408501359150606085013567ffffffffffffffff811115611db157600080fd5b8501601f81018713611dc257600080fd5b611dd187823560208401611ce7565b91505092959194509250565b868152602081018690526001600160a01b03851660408201526060810184905260c08101611e0e6080830185611b7c565b8260a0830152979650505050505050565b60008060408385031215611e3257600080fd5b611e3b83611b20565b9150611c6a60208401611b20565b60008060408385031215611e5c57600080fd5b611e6583611b20565b9150602083013567ffffffffffffffff811115611e8157600080fd5b8301601f81018513611e9257600080fd5b611ea185823560208401611ce7565b9150509250929050565b600181811c90821680611ebf57607f821691505b602082108103611edf57634e487b7160e01b600052602260045260246000fd5b50919050565b600060018201611f0557634e487b7160e01b600052601160045260246000fd5b5060010190565b60008351611f1e818460208801611aa4565b835190830190611f32818360208801611aa4565b01949350505050565b6001600160a01b0385811682528416602082015260408101839052608060608201819052600090611f6e90830184611ac8565b9695505050505050565b600060208284031215611f8a57600080fd5b815161108681611a7156fea2646970667358221220cd421523f63c551109f516c6cc73c6b868cbb0ddd0b28c445dfb164411c8398964736f6c634300081c0033",
  "linkReferences": {},
  "deployedLinkReferences": {}
}