{
  "_format": "hh-sol-artifact-1",
  "contractName": "NFT",
  "sourceName": "contracts/NFT.sol",
  "abi": [
    {
      "inputs": [
        {
          "internalType": "string",
          "name": "_baseTokenURI",
          "type": "string"
        }
      ],
      "stateMutability": "nonpayable",
      "type": "constructor"
    },
    {
      "inputs": [],
      "name": "ERC721EnumerableForbiddenBatchMint",
      "type": "error"
    },
    {
      "inputs": [
        {
          "internalType": "address",
          "name": "sender",
          "type": "address"
        },
        {
          "internalType": "uint256",
          "name": "tokenId",
          "type": "uint256"
        },
        {
          "internalType": "address",
          "name": "owner",
          "type": "address"
        }
      ],
      "name": "ERC721IncorrectOwner",
      "type": "error"
    },
    {
      "inputs": [
        {
          "internalType": "address",
          "name": "operator",
          "type": "address"
        },
        {
          "internalType": "uint256",
          "name": "tokenId",
          "type": "uint256"
        }
      ],
      "name": "ERC721InsufficientApproval",
      "type": "error"
    },
    {
      "inputs": [
        {
          "internalType": "address",
          "name": "approver",
          "type": "address"
        }
      ],
      "name": "ERC721InvalidApprover",
      "type": "error"
    },
    {
      "inputs": [
        {
          "internalType": "address",
          "name": "operator",
          "type": "address"
        }
      ],
      "name": "ERC721InvalidOperator",
      "type": "error"
    },
    {
      "inputs": [
        {
          "internalType": "address",
          "name": "owner",
          "type": "address"
        }
      ],
      "name": "ERC721InvalidOwner",
      "type": "error"
    },
    {
      "inputs": [
        {
          "internalType": "address",
          "name": "receiver",
          "type": "address"
        }
      ],
      "name": "ERC721InvalidReceiver",
      "type": "error"
    },
    {
      "inputs": [
        {
          "internalType": "address",
          "name": "sender",
          "type": "address"
        }
      ],
      "name": "ERC721InvalidSender",
      "type": "error"
    },
    {
      "inputs": [
        {
          "internalType": "uint256",
          "name": "tokenId",
          "type": "uint256"
        }
      ],
      "name": "ERC721NonexistentToken",
      "type": "error"
    },
    {
      "inputs": [
        {
          "internalType": "address",
          "name": "owner",
          "type": "address"
        },
        {
          "internalType": "uint256",
          "name": "index",
          "type": "uint256"
        }
      ],
      "name": "ERC721OutOfBoundsIndex",
      "type": "error"
    },
    {
      "anonymous": false,
      "inputs": [
        {
          "indexed": true,
          "internalType": "address",
          "name": "owner",
          "type": "address"
        },
        {
          "indexed": true,
          "internalType": "address",
          "name": "approved",
          "type": "address"
        },
        {
          "indexed": true,
          "internalType": "uint256",
          "name": "tokenId",
          "type": "uint256"
        }
      ],
      "name": "Approval",
      "type": "event"
    },
    {
      "anonymous": false,
      "inputs": [
        {
          "indexed": true,
          "internalType": "address",
          "name": "owner",
          "type": "address"
        },
        {
          "indexed": true,
          "internalType": "address",
          "name": "operator",
          "type": "address"
        },
        {
          "indexed": false,
          "internalType": "bool",
          "name": "approved",
          "type": "bool"
        }
      ],
      "name": "ApprovalForAll",
      "type": "event"
    },
    {
      "anonymous": false,
      "inputs": [
        {
          "indexed": true,
          "internalType": "address",
          "name": "from",
          "type": "address"
        },
        {
          "indexed": true,
          "internalType": "address",
          "name": "to",
          "type": "address"
        },
        {
          "indexed": true,
          "internalType": "uint256",
          "name": "tokenId",
          "type": "uint256"
        }
      ],
      "name": "Transfer",
      "type": "event"
    },
    {
      "inputs": [],
      "name": "admin",
      "outputs": [
        {
          "internalType": "address",
          "name": "",
          "type": "address"
        }
      ],
      "stateMutability": "view",
      "type": "function"
    },
    {
      "inputs": [
        {
          "internalType": "address",
          "name": "to",
          "type": "address"
        },
        {
          "internalType": "uint256",
          "name": "tokenId",
          "type": "uint256"
        }
      ],
      "name": "approve",
      "outputs": [],
      "stateMutability": "nonpayable",
      "type": "function"
    },
    {
      "inputs": [
        {
          "internalType": "address",
          "name": "owner",
          "type": "address"
        }
      ],
      "name": "balanceOf",
      "outputs": [
        {
          "internalType": "uint256",
          "name": "",
          "type": "uint256"
        }
      ],
      "stateMutability": "view",
      "type": "function"
    },
    {
      "inputs": [],
      "name": "baseTokenURI",
      "outputs": [
        {
          "internalType": "string",
          "name": "",
          "type": "string"
        }
      ],
      "stateMutability": "view",
      "type": "function"
    },
    {
      "inputs": [
        {
          "internalType": "uint256",
          "name": "tokenId",
          "type": "uint256"
        }
      ],
      "name": "getApproved",
      "outputs": [
        {
          "internalType": "address",
          "name": "",
          "type": "address"
        }
      ],
      "stateMutability": "view",
      "type": "function"
    },
    {
      "inputs": [
        {
          "internalType": "address",
          "name": "owner",
          "type": "address"
        },
        {
          "internalType": "address",
          "name": "operator",
          "type": "address"
        }
      ],
      "name": "isApprovedForAll",
      "outputs": [
        {
          "internalType": "bool",
          "name": "",
          "type": "bool"
        }
      ],
      "stateMutability": "view",
      "type": "function"
    },
    {
      "inputs": [
        {
          "internalType": "uint256[]",
          "name": "tokenIds",
          "type": "uint256[]"
        },
        {
          "internalType": "string",
          "name": "city",
          "type": "string"
        }
      ],
      "name": "mergeNFT",
      "outputs": [
        {
          "internalType": "uint256",
          "name": "",
          "type": "uint256"
        }
      ],
      "stateMutability": "nonpayable",
      "type": "function"
    },
    {
      "inputs": [
        {
          "internalType": "address",
          "name": "winner",
          "type": "address"
        }
      ],
      "name": "mintPiece",
      "outputs": [
        {
          "internalType": "uint256",
          "name": "",
          "type": "uint256"
        }
      ],
      "stateMutability": "nonpayable",
      "type": "function"
    },
    {
      "inputs": [],
      "name": "name",
      "outputs": [
        {
          "internalType": "string",
          "name": "",
          "type": "string"
        }
      ],
      "stateMutability": "view",
      "type": "function"
    },
    {
      "inputs": [],
      "name": "nextTokenId",
      "outputs": [
        {
          "internalType": "uint256",
          "name": "",
          "type": "uint256"
        }
      ],
      "stateMutability": "view",
      "type": "function"
    },
    {
      "inputs": [
        {
          "internalType": "uint256",
          "name": "",
          "type": "uint256"
        }
      ],
      "name": "nftTypes",
      "outputs": [
        {
          "internalType": "enum NFT.NFTType",
          "name": "",
          "type": "uint8"
        }
      ],
      "stateMutability": "view",
      "type": "function"
    },
    {
      "inputs": [
        {
          "internalType": "uint256",
          "name": "tokenId",
          "type": "uint256"
        }
      ],
      "name": "ownerOf",
      "outputs": [
        {
          "internalType": "address",
          "name": "",
          "type": "address"
        }
      ],
      "stateMutability": "view",
      "type": "function"
    },
    {
      "inputs": [
        {
          "internalType": "address",
          "name": "from",
          "type": "address"
        },
        {
          "internalType": "address",
          "name": "to",
          "type": "address"
        },
        {
          "internalType": "uint256",
          "name": "tokenId",
          "type": "uint256"
        }
      ],
      "name": "safeTransferFrom",
      "outputs": [],
      "stateMutability": "nonpayable",
      "type": "function"
    },
    {
      "inputs": [
        {
          "internalType": "address",
          "name": "from",
          "type": "address"
        },
        {
          "internalType": "address",
          "name": "to",
          "type": "address"
        },
        {
          "internalType": "uint256",
          "name": "tokenId",
          "type": "uint256"
        },
        {
          "internalType": "bytes",
          "name": "data",
          "type": "bytes"
        }
      ],
      "name": "safeTransferFrom",
      "outputs": [],
      "stateMutability": "nonpayable",
      "type": "function"
    },
    {
      "inputs": [
        {
          "internalType": "address",
          "name": "operator",
          "type": "address"
        },
        {
          "internalType": "bool",
          "name": "approved",
          "type": "bool"
        }
      ],
      "name": "setApprovalForAll",
      "outputs": [],
      "stateMutability": "nonpayable",
      "type": "function"
    },
    {
      "inputs": [
        {
          "internalType": "bytes4",
          "name": "interfaceId",
          "type": "bytes4"
        }
      ],
      "name": "supportsInterface",
      "outputs": [
        {
          "internalType": "bool",
          "name": "",
          "type": "bool"
        }
      ],
      "stateMutability": "view",
      "type": "function"
    },
    {
      "inputs": [],
      "name": "symbol",
      "outputs": [
        {
          "internalType": "string",
          "name": "",
          "type": "string"
        }
      ],
      "stateMutability": "view",
      "type": "function"
    },
    {
      "inputs": [
        {
          "internalType": "uint256",
          "name": "index",
          "type": "uint256"
        }
      ],
      "name": "tokenByIndex",
      "outputs": [
        {
          "internalType": "uint256",
          "name": "",
          "type": "uint256"
        }
      ],
      "stateMutability": "view",
      "type": "function"
    },
    {
      "inputs": [
        {
          "internalType": "uint256",
          "name": "",
          "type": "uint256"
        }
      ],
      "name": "tokenCity",
      "outputs": [
        {
          "internalType": "string",
          "name": "",
          "type": "string"
        }
      ],
      "stateMutability": "view",
      "type": "function"
    },
    {
      "inputs": [
        {
          "internalType": "address",
          "name": "owner",
          "type": "address"
        },
        {
          "internalType": "uint256",
          "name": "index",
          "type": "uint256"
        }
      ],
      "name": "tokenOfOwnerByIndex",
      "outputs": [
        {
          "internalType": "uint256",
          "name": "",
          "type": "uint256"
        }
      ],
      "stateMutability": "view",
      "type": "function"
    },
    {
      "inputs": [
        {
          "internalType": "uint256",
          "name": "tokenId",
          "type": "uint256"
        }
      ],
      "name": "tokenURI",
      "outputs": [
        {
          "internalType": "string",
          "name": "",
          "type": "string"
        }
      ],
      "stateMutability": "view",
      "type": "function"
    },
    {
      "inputs": [],
      "name": "totalSupply",
      "outputs": [
        {
          "internalType": "uint256",
          "name": "",
          "type": "uint256"
        }
      ],
      "stateMutability": "view",
      "type": "function"
    },
    {
      "inputs": [
        {
          "internalType": "address",
          "name": "from",
          "type": "address"
        },
        {
          "internalType": "address",
          "name": "to",
          "type": "address"
        },
        {
          "internalType": "uint256",
          "name": "tokenId",
          "type": "uint256"
        }
      ],
      "name": "transferFrom",
      "outputs": [],
      "stateMutability": "nonpayable",
      "type": "function"
    }
  ],
  "bytecode": "0x608060405234801561001057600080fd5b50604051611f6e380380611f6e83398101604081905261002f916100c4565b60405180604001604052806005815260200164135e53919560da1b815250604051806040016040528060048152602001631353919560e21b81525081600090816100799190610219565b5060016100868282610219565b5050600b80546001600160a01b0319163317905550600c6100a78282610219565b50506102d7565b634e487b7160e01b600052604160045260246000fd5b6000602082840312156100d657600080fd5b81516001600160401b038111156100ec57600080fd5b8201601f810184136100fd57600080fd5b80516001600160401b03811115610116576101166100ae565b604051601f8201601f19908116603f011681016001600160401b0381118282101715610144576101446100ae565b60405281815282820160200186101561015c57600080fd5b60005b8281101561017b5760208185018101518383018201520161015f565b50600091810160200191909152949350505050565b600181811c908216806101a457607f821691505b6020821081036101c457634e487b7160e01b600052602260045260246000fd5b50919050565b601f82111561021457806000526020600020601f840160051c810160208510156101f15750805b601f840160051c820191505b8181101561021157600081556001016101fd565b50505b505050565b81516001600160401b03811115610232576102326100ae565b610246816102408454610190565b846101ca565b6020601f82116001811461027a57600083156102625750848201515b600019600385901b1c1916600184901b178455610211565b600084815260208120601f198516915b828110156102aa578785015182556020948501946001909201910161028a565b50848210156102c85786840151600019600387901b60f8161c191681555b50505050600190811b01905550565b611c88806102e66000396000f3fe608060405234801561001057600080fd5b506004361061014d5760003560e01c806370a08231116100c3578063c5d67f971161007c578063c5d67f97146102cd578063c87b56dd146102e0578063d547cfb7146102f3578063e985e9c5146102fb578063f049e46b1461030e578063f851a4401461032157600080fd5b806370a082311461025357806375794a3c1461026657806379b2ab231461026f57806395d89b411461029f578063a22cb465146102a7578063b88d4fde146102ba57600080fd5b806323b872dd1161011557806323b872dd146101e15780632f745c59146101f4578063368402181461020757806342842e0e1461021a5780634f6ccce71461022d5780636352211e1461024057600080fd5b806301ffc9a71461015257806306fdde031461017a578063081812fc1461018f578063095ea7b3146101ba57806318160ddd146101cf575b600080fd5b610165610160366004611533565b610334565b60405190151581526020015b60405180910390f35b61018261035f565b60405161017191906115a7565b6101a261019d3660046115ba565b6103f1565b6040516001600160a01b039091168152602001610171565b6101cd6101c83660046115ef565b61041a565b005b6008545b604051908152602001610171565b6101cd6101ef366004611619565b610429565b6101d36102023660046115ef565b6104b9565b6101d3610215366004611656565b61051e565b6101cd610228366004611619565b61055e565b6101d361023b3660046115ba565b61057e565b6101a261024e3660046115ba565b6105d7565b6101d3610261366004611656565b6105e2565b6101d3600a5481565b61029261027d3660046115ba565b600d6020526000908152604090205460ff1681565b6040516101719190611687565b61018261062a565b6101cd6102b53660046116af565b610639565b6101cd6102c8366004611701565b610644565b6101d36102db36600461182e565b61065c565b6101826102ee3660046115ba565b610862565b610182610a3a565b6101656103093660046118d1565b610ac8565b61018261031c3660046115ba565b610af6565b600b546101a2906001600160a01b031681565b60006001600160e01b0319821663780e9d6360e01b1480610359575061035982610b0f565b92915050565b60606000805461036e90611904565b80601f016020809104026020016040519081016040528092919081815260200182805461039a90611904565b80156103e75780601f106103bc576101008083540402835291602001916103e7565b820191906000526020600020905b8154815290600101906020018083116103ca57829003601f168201915b5050505050905090565b60006103fc82610b5f565b506000828152600460205260409020546001600160a01b0316610359565b610425828233610b98565b5050565b6001600160a01b03821661045857604051633250574960e11b8152600060048201526024015b60405180910390fd5b6000610465838333610ba5565b9050836001600160a01b0316816001600160a01b0316146104b3576040516364283d7b60e01b81526001600160a01b038086166004830152602482018490528216604482015260640161044f565b50505050565b60006104c4836105e2565b82106104f55760405163295f44f760e21b81526001600160a01b03841660048201526024810183905260440161044f565b506001600160a01b03919091166000908152600660209081526040808320938352929052205490565b600a5460009061052e8382610c7a565b6000818152600d60205260408120805460ff19169055600a8054916105528361194e565b90915550909392505050565b61057983838360405180602001604052806000815250610644565b505050565b600061058960085490565b82106105b25760405163295f44f760e21b8152600060048201526024810183905260440161044f565b600882815481106105c5576105c5611967565b90600052602060002001549050919050565b600061035982610b5f565b60006001600160a01b03821661060e576040516322718ad960e21b81526000600482015260240161044f565b506001600160a01b031660009081526003602052604090205490565b60606001805461036e90611904565b610425338383610c94565b61064f848484610429565b6104b33385858585610d33565b600060028410156106a75760405162461bcd60e51b81526020600482015260156024820152744e6f7420656e6f756768204e46542070696563657360581b604482015260640161044f565b60005b848110156107a25760008686838181106106c6576106c6611967565b905060200201359050336001600160a01b03166106e2826105d7565b6001600160a01b0316146107305760405162461bcd60e51b81526020600482015260156024820152742cb7ba9030b932903737ba103a34329037bbb732b960591b604482015260640161044f565b6000818152600d602052604081205460ff16600181111561075357610753611671565b146107995760405162461bcd60e51b815260206004820152601660248201527513db9b1e48141a5958d94813919508185b1b1bddd95960521b604482015260640161044f565b506001016106aa565b5060005b848110156108065760008686838181106107c2576107c2611967565b9050602002013590506107d481610e5e565b6000818152600d60209081526040808320805460ff19169055600e90915281206107fd916114c7565b506001016107a6565b50600a546108143382610c7a565b6000818152600d60209081526040808320805460ff19166001179055600e90915290206108428486836119c4565b50600a80549060006108538361194e565b90915550909695505050505050565b6000818152600260205260409020546060906001600160a01b03166108c05760405162461bcd60e51b8152602060048201526014602482015273151bdad95b88191bd95cc81b9bdd08195e1a5cdd60621b604482015260640161044f565b6000600c80546108cf90611904565b80601f01602080910402602001604051908101604052809291908181526020018280546108fb90611904565b80156109485780601f1061091d57610100808354040283529160200191610948565b820191906000526020600020905b81548152906001019060200180831161092b57829003601f168201915b50505050509050806001825161095e9190611a84565b8151811061096e5761096e611967565b6020910101516001600160f81b031916602f60f81b146109ab57806040516020016109999190611a97565b60405160208183030381529060405290505b6000838152600d602052604081205460ff1660018111156109ce576109ce611671565b03610a0f57806109e76109e2856001611abc565b610e99565b6040516020016109f8929190611acf565b604051602081830303815290604052915050919050565b80600e60008581526020019081526020016000206040516020016109f8929190611b2f565b50919050565b600c8054610a4790611904565b80601f0160208091040260200160405190810160405280929190818152602001828054610a7390611904565b8015610ac05780601f10610a9557610100808354040283529160200191610ac0565b820191906000526020600020905b815481529060010190602001808311610aa357829003601f168201915b505050505081565b6001600160a01b03918216600090815260056020908152604080832093909416825291909152205460ff1690565b600e6020526000908152604090208054610a4790611904565b60006001600160e01b031982166380ac58cd60e01b1480610b4057506001600160e01b03198216635b5e139f60e01b145b8061035957506301ffc9a760e01b6001600160e01b0319831614610359565b6000818152600260205260408120546001600160a01b03168061035957604051637e27328960e01b81526004810184905260240161044f565b6105798383836001610f2c565b600080610bb3858585611032565b90506001600160a01b038116610c1057610c0b84600880546000838152600960205260408120829055600182018355919091527ff3f7a9fe364faab93b216da50a3214154f22a0a2b415b23a84c8169e8b636ee30155565b610c33565b846001600160a01b0316816001600160a01b031614610c3357610c33818561112b565b6001600160a01b038516610c4f57610c4a846111ac565b610c72565b846001600160a01b0316816001600160a01b031614610c7257610c72858561125b565b949350505050565b6104258282604051806020016040528060008152506112ab565b6001600160a01b038216610cc657604051630b61174360e31b81526001600160a01b038316600482015260240161044f565b6001600160a01b03838116600081815260056020908152604080832094871680845294825291829020805460ff191686151590811790915591519182527f17307eab39ab6107e8899845ad3d59bd9653f200f220920489ca2b5937696c31910160405180910390a3505050565b6001600160a01b0383163b15610e5757604051630a85bd0160e11b81526001600160a01b0384169063150b7a0290610d75908890889087908790600401611bec565b6020604051808303816000875af1925050508015610db0575060408051601f3d908101601f19168201909252610dad91810190611c1f565b60015b610e19573d808015610dde576040519150601f19603f3d011682016040523d82523d6000602084013e610de3565b606091505b508051600003610e1157604051633250574960e11b81526001600160a01b038516600482015260240161044f565b805160208201fd5b6001600160e01b03198116630a85bd0160e11b14610e5557604051633250574960e11b81526001600160a01b038516600482015260240161044f565b505b5050505050565b6000610e6d6000836000610ba5565b90506001600160a01b03811661042557604051637e27328960e01b81526004810183905260240161044f565b60606000610ea6836112c3565b600101905060008167ffffffffffffffff811115610ec657610ec66116eb565b6040519080825280601f01601f191660200182016040528015610ef0576020820181803683370190505b5090508181016020015b600019016f181899199a1a9b1b9c1cb0b131b232b360811b600a86061a8153600a8504945084610efa57509392505050565b8080610f4057506001600160a01b03821615155b15611002576000610f5084610b5f565b90506001600160a01b03831615801590610f7c5750826001600160a01b0316816001600160a01b031614155b8015610f8f5750610f8d8184610ac8565b155b15610fb85760405163a9fbf51f60e01b81526001600160a01b038416600482015260240161044f565b81156110005783856001600160a01b0316826001600160a01b03167f8c5be1e5ebec7d5bd14f71427d1e84f3dd0314c0f7b2291e5b200ac8c7c3b92560405160405180910390a45b505b5050600090815260046020526040902080546001600160a01b0319166001600160a01b0392909216919091179055565b6000828152600260205260408120546001600160a01b039081169083161561105f5761105f81848661139b565b6001600160a01b0381161561109d5761107c600085600080610f2c565b6001600160a01b038116600090815260036020526040902080546000190190555b6001600160a01b038516156110cc576001600160a01b0385166000908152600360205260409020805460010190555b60008481526002602052604080822080546001600160a01b0319166001600160a01b0389811691821790925591518793918516917fddf252ad1be2c89b69c2b068fc378daa952ba7f163c4a11628f55a4df523b3ef91a4949350505050565b6000611136836105e2565b6000838152600760209081526040808320546001600160a01b038816845260069092529091209192509081831461118d57600083815260208281526040808320548584528184208190558352600790915290208290555b6000938452600760209081526040808620869055938552525081205550565b6008546000906111be90600190611a84565b600083815260096020526040812054600880549394509092849081106111e6576111e6611967565b90600052602060002001549050806008838154811061120757611207611967565b600091825260208083209091019290925582815260099091526040808220849055858252812055600880548061123f5761123f611c3c565b6001900381819060005260206000200160009055905550505050565b60006001611268846105e2565b6112729190611a84565b6001600160a01b039093166000908152600660209081526040808320868452825280832085905593825260079052919091209190915550565b6112b583836113ff565b610579336000858585610d33565b60008072184f03e93ff9f4daa797ed6e38ed64bf6a1f0160401b83106113025772184f03e93ff9f4daa797ed6e38ed64bf6a1f0160401b830492506040015b6d04ee2d6d415b85acef8100000000831061132e576d04ee2d6d415b85acef8100000000830492506020015b662386f26fc10000831061134c57662386f26fc10000830492506010015b6305f5e1008310611364576305f5e100830492506008015b612710831061137857612710830492506004015b6064831061138a576064830492506002015b600a83106103595760010192915050565b6113a6838383611464565b610579576001600160a01b0383166113d457604051637e27328960e01b81526004810182905260240161044f565b60405163177e802f60e01b81526001600160a01b03831660048201526024810182905260440161044f565b6001600160a01b03821661142957604051633250574960e11b81526000600482015260240161044f565b600061143783836000610ba5565b90506001600160a01b03811615610579576040516339e3563760e11b81526000600482015260240161044f565b60006001600160a01b03831615801590610c725750826001600160a01b0316846001600160a01b0316148061149e575061149e8484610ac8565b80610c725750506000908152600460205260409020546001600160a01b03908116911614919050565b5080546114d390611904565b6000825580601f106114e3575050565b601f0160209004906000526020600020908101906115019190611504565b50565b5b808211156115195760008155600101611505565b5090565b6001600160e01b03198116811461150157600080fd5b60006020828403121561154557600080fd5b81356115508161151d565b9392505050565b60005b8381101561157257818101518382015260200161155a565b50506000910152565b60008151808452611593816020860160208601611557565b601f01601f19169290920160200192915050565b602081526000611550602083018461157b565b6000602082840312156115cc57600080fd5b5035919050565b80356001600160a01b03811681146115ea57600080fd5b919050565b6000806040838503121561160257600080fd5b61160b836115d3565b946020939093013593505050565b60008060006060848603121561162e57600080fd5b611637846115d3565b9250611645602085016115d3565b929592945050506040919091013590565b60006020828403121561166857600080fd5b611550826115d3565b634e487b7160e01b600052602160045260246000fd5b60208101600283106116a957634e487b7160e01b600052602160045260246000fd5b91905290565b600080604083850312156116c257600080fd5b6116cb836115d3565b9150602083013580151581146116e057600080fd5b809150509250929050565b634e487b7160e01b600052604160045260246000fd5b6000806000806080858703121561171757600080fd5b611720856115d3565b935061172e602086016115d3565b925060408501359150606085013567ffffffffffffffff81111561175157600080fd5b8501601f8101871361176257600080fd5b803567ffffffffffffffff81111561177c5761177c6116eb565b604051601f8201601f19908116603f0116810167ffffffffffffffff811182821017156117ab576117ab6116eb565b6040528181528282016020018910156117c357600080fd5b8160208401602083013760006020838301015280935050505092959194509250565b60008083601f8401126117f757600080fd5b50813567ffffffffffffffff81111561180f57600080fd5b60208301915083602082850101111561182757600080fd5b9250929050565b6000806000806040858703121561184457600080fd5b843567ffffffffffffffff81111561185b57600080fd5b8501601f8101871361186c57600080fd5b803567ffffffffffffffff81111561188357600080fd5b8760208260051b840101111561189857600080fd5b60209182019550935085013567ffffffffffffffff8111156118b957600080fd5b6118c5878288016117e5565b95989497509550505050565b600080604083850312156118e457600080fd5b6118ed836115d3565b91506118fb602084016115d3565b90509250929050565b600181811c9082168061191857607f821691505b602082108103610a3457634e487b7160e01b600052602260045260246000fd5b634e487b7160e01b600052601160045260246000fd5b60006001820161196057611960611938565b5060010190565b634e487b7160e01b600052603260045260246000fd5b601f82111561057957806000526020600020601f840160051c810160208510156119a45750805b601f840160051c820191505b81811015610e5757600081556001016119b0565b67ffffffffffffffff8311156119dc576119dc6116eb565b6119f0836119ea8354611904565b8361197d565b6000601f841160018114611a245760008515611a0c5750838201355b600019600387901b1c1916600186901b178355610e57565b600083815260209020601f19861690835b82811015611a555786850135825560209485019460019092019101611a35565b5086821015611a725760001960f88860031b161c19848701351681555b505060018560011b0183555050505050565b8181038181111561035957610359611938565b60008251611aa9818460208701611557565b602f60f81b920191825250600101919050565b8082018082111561035957610359611938565b60008351611ae1818460208801611557565b7270696563655f6d657461646174612f4e46545f60681b9083019081528351611b11816013840160208801611557565b64173539b7b760d91b60139290910191820152601801949350505050565b60008351611b41818460208801611557565b80830190506d66756c6c5f6d657461646174612f60901b815260008454611b6781611904565b600182168015611b7e5760018114611b9957611bcf565b60ff198316600e860152600e82151583028601019350611bcf565b87600052602060002060005b83811015611bc4578154878201600e0152600190910190602001611ba5565b5050600e8286010193505b505064173539b7b760d91b825250600581015b9695505050505050565b6001600160a01b0385811682528416602082015260408101839052608060608201819052600090611be29083018461157b565b600060208284031215611c3157600080fd5b81516115508161151d565b634e487b7160e01b600052603160045260246000fdfea2646970667358221220c5514340b692283e0b625b48d71f5c55aa46af1b889326dfe8b08ad1e7c64bcd64736f6c634300081c0033",
  "linkReferences": {},
  "deployedLinkReferences": {}
}