{
  "_format": "hh-sol-artifact-1",
  "contractName": "NFT",
  "sourceName": "contracts/NFT.sol",
  "abi": [
    {
      "inputs": [
        {
          "internalType": "string",
          "name": "_baseTokenURI",
          "type": "string"
        }
      ],
      "stateMutability": "nonpayable",
      "type": "constructor"
    },
    {
      "inputs": [],
      "name": "ERC721EnumerableForbiddenBatchMint",
      "type": "error"
    },
    {
      "inputs": [
        {
          "internalType": "address",
          "name": "sender",
          "type": "address"
        },
        {
          "internalType": "uint256",
          "name": "tokenId",
          "type": "uint256"
        },
        {
          "internalType": "address",
          "name": "owner",
          "type": "address"
        }
      ],
      "name": "ERC721IncorrectOwner",
      "type": "error"
    },
    {
      "inputs": [
        {
          "internalType": "address",
          "name": "operator",
          "type": "address"
        },
        {
          "internalType": "uint256",
          "name": "tokenId",
          "type": "uint256"
        }
      ],
      "name": "ERC721InsufficientApproval",
      "type": "error"
    },
    {
      "inputs": [
        {
          "internalType": "address",
          "name": "approver",
          "type": "address"
        }
      ],
      "name": "ERC721InvalidApprover",
      "type": "error"
    },
    {
      "inputs": [
        {
          "internalType": "address",
          "name": "operator",
          "type": "address"
        }
      ],
      "name": "ERC721InvalidOperator",
      "type": "error"
    },
    {
      "inputs": [
        {
          "internalType": "address",
          "name": "owner",
          "type": "address"
        }
      ],
      "name": "ERC721InvalidOwner",
      "type": "error"
    },
    {
      "inputs": [
        {
          "internalType": "address",
          "name": "receiver",
          "type": "address"
        }
      ],
      "name": "ERC721InvalidReceiver",
      "type": "error"
    },
    {
      "inputs": [
        {
          "internalType": "address",
          "name": "sender",
          "type": "address"
        }
      ],
      "name": "ERC721InvalidSender",
      "type": "error"
    },
    {
      "inputs": [
        {
          "internalType": "uint256",
          "name": "tokenId",
          "type": "uint256"
        }
      ],
      "name": "ERC721NonexistentToken",
      "type": "error"
    },
    {
      "inputs": [
        {
          "internalType": "address",
          "name": "owner",
          "type": "address"
        },
        {
          "internalType": "uint256",
          "name": "index",
          "type": "uint256"
        }
      ],
      "name": "ERC721OutOfBoundsIndex",
      "type": "error"
    },
    {
      "anonymous": false,
      "inputs": [
        {
          "indexed": true,
          "internalType": "address",
          "name": "owner",
          "type": "address"
        },
        {
          "indexed": true,
          "internalType": "address",
          "name": "approved",
          "type": "address"
        },
        {
          "indexed": true,
          "internalType": "uint256",
          "name": "tokenId",
          "type": "uint256"
        }
      ],
      "name": "Approval",
      "type": "event"
    },
    {
      "anonymous": false,
      "inputs": [
        {
          "indexed": true,
          "internalType": "address",
          "name": "owner",
          "type": "address"
        },
        {
          "indexed": true,
          "internalType": "address",
          "name": "operator",
          "type": "address"
        },
        {
          "indexed": false,
          "internalType": "bool",
          "name": "approved",
          "type": "bool"
        }
      ],
      "name": "ApprovalForAll",
      "type": "event"
    },
    {
      "anonymous": false,
      "inputs": [
        {
          "indexed": true,
          "internalType": "address",
          "name": "from",
          "type": "address"
        },
        {
          "indexed": true,
          "internalType": "address",
          "name": "to",
          "type": "address"
        },
        {
          "indexed": true,
          "internalType": "uint256",
          "name": "tokenId",
          "type": "uint256"
        }
      ],
      "name": "Transfer",
      "type": "event"
    },
    {
      "inputs": [],
      "name": "admin",
      "outputs": [
        {
          "internalType": "address",
          "name": "",
          "type": "address"
        }
      ],
      "stateMutability": "view",
      "type": "function"
    },
    {
      "inputs": [
        {
          "internalType": "address",
          "name": "to",
          "type": "address"
        },
        {
          "internalType": "uint256",
          "name": "tokenId",
          "type": "uint256"
        }
      ],
      "name": "approve",
      "outputs": [],
      "stateMutability": "nonpayable",
      "type": "function"
    },
    {
      "inputs": [
        {
          "internalType": "address",
          "name": "owner",
          "type": "address"
        }
      ],
      "name": "balanceOf",
      "outputs": [
        {
          "internalType": "uint256",
          "name": "",
          "type": "uint256"
        }
      ],
      "stateMutability": "view",
      "type": "function"
    },
    {
      "inputs": [],
      "name": "baseTokenURI",
      "outputs": [
        {
          "internalType": "string",
          "name": "",
          "type": "string"
        }
      ],
      "stateMutability": "view",
      "type": "function"
    },
    {
      "inputs": [
        {
          "internalType": "uint256",
          "name": "tokenId",
          "type": "uint256"
        }
      ],
      "name": "getApproved",
      "outputs": [
        {
          "internalType": "address",
          "name": "",
          "type": "address"
        }
      ],
      "stateMutability": "view",
      "type": "function"
    },
    {
      "inputs": [
        {
          "internalType": "address",
          "name": "owner",
          "type": "address"
        },
        {
          "internalType": "address",
          "name": "operator",
          "type": "address"
        }
      ],
      "name": "isApprovedForAll",
      "outputs": [
        {
          "internalType": "bool",
          "name": "",
          "type": "bool"
        }
      ],
      "stateMutability": "view",
      "type": "function"
    },
    {
      "inputs": [
        {
          "internalType": "address",
          "name": "winner",
          "type": "address"
        }
      ],
      "name": "mint",
      "outputs": [
        {
          "internalType": "uint256",
          "name": "",
          "type": "uint256"
        }
      ],
      "stateMutability": "nonpayable",
      "type": "function"
    },
    {
      "inputs": [],
      "name": "name",
      "outputs": [
        {
          "internalType": "string",
          "name": "",
          "type": "string"
        }
      ],
      "stateMutability": "view",
      "type": "function"
    },
    {
      "inputs": [],
      "name": "nextTokenId",
      "outputs": [
        {
          "internalType": "uint256",
          "name": "",
          "type": "uint256"
        }
      ],
      "stateMutability": "view",
      "type": "function"
    },
    {
      "inputs": [
        {
          "internalType": "uint256",
          "name": "tokenId",
          "type": "uint256"
        }
      ],
      "name": "ownerOf",
      "outputs": [
        {
          "internalType": "address",
          "name": "",
          "type": "address"
        }
      ],
      "stateMutability": "view",
      "type": "function"
    },
    {
      "inputs": [
        {
          "internalType": "address",
          "name": "from",
          "type": "address"
        },
        {
          "internalType": "address",
          "name": "to",
          "type": "address"
        },
        {
          "internalType": "uint256",
          "name": "tokenId",
          "type": "uint256"
        }
      ],
      "name": "safeTransferFrom",
      "outputs": [],
      "stateMutability": "nonpayable",
      "type": "function"
    },
    {
      "inputs": [
        {
          "internalType": "address",
          "name": "from",
          "type": "address"
        },
        {
          "internalType": "address",
          "name": "to",
          "type": "address"
        },
        {
          "internalType": "uint256",
          "name": "tokenId",
          "type": "uint256"
        },
        {
          "internalType": "bytes",
          "name": "data",
          "type": "bytes"
        }
      ],
      "name": "safeTransferFrom",
      "outputs": [],
      "stateMutability": "nonpayable",
      "type": "function"
    },
    {
      "inputs": [
        {
          "internalType": "address",
          "name": "operator",
          "type": "address"
        },
        {
          "internalType": "bool",
          "name": "approved",
          "type": "bool"
        }
      ],
      "name": "setApprovalForAll",
      "outputs": [],
      "stateMutability": "nonpayable",
      "type": "function"
    },
    {
      "inputs": [
        {
          "internalType": "bytes4",
          "name": "interfaceId",
          "type": "bytes4"
        }
      ],
      "name": "supportsInterface",
      "outputs": [
        {
          "internalType": "bool",
          "name": "",
          "type": "bool"
        }
      ],
      "stateMutability": "view",
      "type": "function"
    },
    {
      "inputs": [],
      "name": "symbol",
      "outputs": [
        {
          "internalType": "string",
          "name": "",
          "type": "string"
        }
      ],
      "stateMutability": "view",
      "type": "function"
    },
    {
      "inputs": [
        {
          "internalType": "uint256",
          "name": "index",
          "type": "uint256"
        }
      ],
      "name": "tokenByIndex",
      "outputs": [
        {
          "internalType": "uint256",
          "name": "",
          "type": "uint256"
        }
      ],
      "stateMutability": "view",
      "type": "function"
    },
    {
      "inputs": [
        {
          "internalType": "address",
          "name": "owner",
          "type": "address"
        },
        {
          "internalType": "uint256",
          "name": "index",
          "type": "uint256"
        }
      ],
      "name": "tokenOfOwnerByIndex",
      "outputs": [
        {
          "internalType": "uint256",
          "name": "",
          "type": "uint256"
        }
      ],
      "stateMutability": "view",
      "type": "function"
    },
    {
      "inputs": [
        {
          "internalType": "uint256",
          "name": "_tokenId",
          "type": "uint256"
        }
      ],
      "name": "tokenURI",
      "outputs": [
        {
          "internalType": "string",
          "name": "",
          "type": "string"
        }
      ],
      "stateMutability": "view",
      "type": "function"
    },
    {
      "inputs": [],
      "name": "totalSupply",
      "outputs": [
        {
          "internalType": "uint256",
          "name": "",
          "type": "uint256"
        }
      ],
      "stateMutability": "view",
      "type": "function"
    },
    {
      "inputs": [
        {
          "internalType": "address",
          "name": "from",
          "type": "address"
        },
        {
          "internalType": "address",
          "name": "to",
          "type": "address"
        },
        {
          "internalType": "uint256",
          "name": "tokenId",
          "type": "uint256"
        }
      ],
      "name": "transferFrom",
      "outputs": [],
      "stateMutability": "nonpayable",
      "type": "function"
    }
  ],
  "bytecode": "0x608060405234801561001057600080fd5b5060405161191638038061191683398101604081905261002f916100c4565b60405180604001604052806005815260200164135e53919560da1b815250604051806040016040528060048152602001631353919560e21b81525081600090816100799190610219565b5060016100868282610219565b5050600b80546001600160a01b0319163317905550600c6100a78282610219565b50506102d7565b634e487b7160e01b600052604160045260246000fd5b6000602082840312156100d657600080fd5b81516001600160401b038111156100ec57600080fd5b8201601f810184136100fd57600080fd5b80516001600160401b03811115610116576101166100ae565b604051601f8201601f19908116603f011681016001600160401b0381118282101715610144576101446100ae565b60405281815282820160200186101561015c57600080fd5b60005b8281101561017b5760208185018101518383018201520161015f565b50600091810160200191909152949350505050565b600181811c908216806101a457607f821691505b6020821081036101c457634e487b7160e01b600052602260045260246000fd5b50919050565b601f82111561021457806000526020600020601f840160051c810160208510156101f15750805b601f840160051c820191505b8181101561021157600081556001016101fd565b50505b505050565b81516001600160401b03811115610232576102326100ae565b610246816102408454610190565b846101ca565b6020601f82116001811461027a57600083156102625750848201515b600019600385901b1c1916600184901b178455610211565b600084815260208120601f198516915b828110156102aa578785015182556020948501946001909201910161028a565b50848210156102c85786840151600019600387901b60f8161c191681555b50505050600190811b01905550565b611630806102e66000396000f3fe608060405234801561001057600080fd5b506004361061012c5760003560e01c80636a627842116100ad578063b88d4fde11610071578063b88d4fde14610269578063c87b56dd1461027c578063d547cfb71461028f578063e985e9c514610297578063f851a440146102aa57600080fd5b80636a6278421461021f57806370a082311461023257806375794a3c1461024557806395d89b411461024e578063a22cb4651461025657600080fd5b806323b872dd116100f457806323b872dd146101c05780632f745c59146101d357806342842e0e146101e65780634f6ccce7146101f95780636352211e1461020c57600080fd5b806301ffc9a71461013157806306fdde0314610159578063081812fc1461016e578063095ea7b31461019957806318160ddd146101ae575b600080fd5b61014461013f3660046111b9565b6102bd565b60405190151581526020015b60405180910390f35b6101616102e8565b604051610150919061122d565b61018161017c366004611240565b61037a565b6040516001600160a01b039091168152602001610150565b6101ac6101a7366004611275565b6103a3565b005b6008545b604051908152602001610150565b6101ac6101ce36600461129f565b6103b2565b6101b26101e1366004611275565b610442565b6101ac6101f436600461129f565b6104a7565b6101b2610207366004611240565b6104c7565b61018161021a366004611240565b610520565b6101b261022d3660046112dc565b61052b565b6101b26102403660046112dc565b610557565b6101b2600a5481565b61016161059f565b6101ac6102643660046112f7565b6105ae565b6101ac610277366004611349565b6105b9565b61016161028a366004611240565b6105d1565b610161610767565b6101446102a536600461142d565b6107f5565b600b54610181906001600160a01b031681565b60006001600160e01b0319821663780e9d6360e01b14806102e257506102e282610823565b92915050565b6060600080546102f790611460565b80601f016020809104026020016040519081016040528092919081815260200182805461032390611460565b80156103705780601f1061034557610100808354040283529160200191610370565b820191906000526020600020905b81548152906001019060200180831161035357829003601f168201915b5050505050905090565b600061038582610873565b506000828152600460205260409020546001600160a01b03166102e2565b6103ae8282336108ac565b5050565b6001600160a01b0382166103e157604051633250574960e11b8152600060048201526024015b60405180910390fd5b60006103ee8383336108b9565b9050836001600160a01b0316816001600160a01b03161461043c576040516364283d7b60e01b81526001600160a01b03808616600483015260248201849052821660448201526064016103d8565b50505050565b600061044d83610557565b821061047e5760405163295f44f760e21b81526001600160a01b0384166004820152602481018390526044016103d8565b506001600160a01b03919091166000908152600660209081526040808320938352929052205490565b6104c2838383604051806020016040528060008152506105b9565b505050565b60006104d260085490565b82106104fb5760405163295f44f760e21b815260006004820152602481018390526044016103d8565b6008828154811061050e5761050e61149a565b90600052602060002001549050919050565b60006102e282610873565b600a5460009061053b838261098e565b600a805490600061054b836114c6565b90915550909392505050565b60006001600160a01b038216610583576040516322718ad960e21b8152600060048201526024016103d8565b506001600160a01b031660009081526003602052604090205490565b6060600180546102f790611460565b6103ae3383836109a8565b6105c48484846103b2565b61043c3385858585610a47565b6000818152600260205260409020546060906001600160a01b0316806106305760405162461bcd60e51b8152602060048201526014602482015273151bdad95b88191bd95cc81b9bdd08195e1a5cdd60621b60448201526064016103d8565b6000600c805461063f90611460565b80601f016020809104026020016040519081016040528092919081815260200182805461066b90611460565b80156106b85780601f1061068d576101008083540402835291602001916106b8565b820191906000526020600020905b81548152906001019060200180831161069b57829003601f168201915b5050505050905060008151118015610702575080600182516106da91906114df565b815181106106ea576106ea61149a565b6020910101516001600160f81b031916602f60f81b14155b1561072a578060405160200161071891906114f2565b60405160208183030381529060405290505b8061073e610739866001611517565b610b72565b60405160200161074f92919061152a565b60405160208183030381529060405292505050919050565b600c805461077490611460565b80601f01602080910402602001604051908101604052809291908181526020018280546107a090611460565b80156107ed5780601f106107c2576101008083540402835291602001916107ed565b820191906000526020600020905b8154815290600101906020018083116107d057829003601f168201915b505050505081565b6001600160a01b03918216600090815260056020908152604080832093909416825291909152205460ff1690565b60006001600160e01b031982166380ac58cd60e01b148061085457506001600160e01b03198216635b5e139f60e01b145b806102e257506301ffc9a760e01b6001600160e01b03198316146102e2565b6000818152600260205260408120546001600160a01b0316806102e257604051637e27328960e01b8152600481018490526024016103d8565b6104c28383836001610c05565b6000806108c7858585610d0b565b90506001600160a01b0381166109245761091f84600880546000838152600960205260408120829055600182018355919091527ff3f7a9fe364faab93b216da50a3214154f22a0a2b415b23a84c8169e8b636ee30155565b610947565b846001600160a01b0316816001600160a01b031614610947576109478185610e04565b6001600160a01b0385166109635761095e84610e85565b610986565b846001600160a01b0316816001600160a01b031614610986576109868585610f34565b949350505050565b6103ae828260405180602001604052806000815250610f84565b6001600160a01b0382166109da57604051630b61174360e31b81526001600160a01b03831660048201526024016103d8565b6001600160a01b03838116600081815260056020908152604080832094871680845294825291829020805460ff191686151590811790915591519182527f17307eab39ab6107e8899845ad3d59bd9653f200f220920489ca2b5937696c31910160405180910390a3505050565b6001600160a01b0383163b15610b6b57604051630a85bd0160e11b81526001600160a01b0384169063150b7a0290610a8990889088908790879060040161158a565b6020604051808303816000875af1925050508015610ac4575060408051601f3d908101601f19168201909252610ac1918101906115c7565b60015b610b2d573d808015610af2576040519150601f19603f3d011682016040523d82523d6000602084013e610af7565b606091505b508051600003610b2557604051633250574960e11b81526001600160a01b03851660048201526024016103d8565b805160208201fd5b6001600160e01b03198116630a85bd0160e11b14610b6957604051633250574960e11b81526001600160a01b03851660048201526024016103d8565b505b5050505050565b60606000610b7f83610f9c565b600101905060008167ffffffffffffffff811115610b9f57610b9f611333565b6040519080825280601f01601f191660200182016040528015610bc9576020820181803683370190505b5090508181016020015b600019016f181899199a1a9b1b9c1cb0b131b232b360811b600a86061a8153600a8504945084610bd357509392505050565b8080610c1957506001600160a01b03821615155b15610cdb576000610c2984610873565b90506001600160a01b03831615801590610c555750826001600160a01b0316816001600160a01b031614155b8015610c685750610c6681846107f5565b155b15610c915760405163a9fbf51f60e01b81526001600160a01b03841660048201526024016103d8565b8115610cd95783856001600160a01b0316826001600160a01b03167f8c5be1e5ebec7d5bd14f71427d1e84f3dd0314c0f7b2291e5b200ac8c7c3b92560405160405180910390a45b505b5050600090815260046020526040902080546001600160a01b0319166001600160a01b0392909216919091179055565b6000828152600260205260408120546001600160a01b0390811690831615610d3857610d38818486611074565b6001600160a01b03811615610d7657610d55600085600080610c05565b6001600160a01b038116600090815260036020526040902080546000190190555b6001600160a01b03851615610da5576001600160a01b0385166000908152600360205260409020805460010190555b60008481526002602052604080822080546001600160a01b0319166001600160a01b0389811691821790925591518793918516917fddf252ad1be2c89b69c2b068fc378daa952ba7f163c4a11628f55a4df523b3ef91a4949350505050565b6000610e0f83610557565b6000838152600760209081526040808320546001600160a01b0388168452600690925290912091925090818314610e6657600083815260208281526040808320548584528184208190558352600790915290208290555b6000938452600760209081526040808620869055938552525081205550565b600854600090610e97906001906114df565b60008381526009602052604081205460088054939450909284908110610ebf57610ebf61149a565b906000526020600020015490508060088381548110610ee057610ee061149a565b6000918252602080832090910192909255828152600990915260408082208490558582528120556008805480610f1857610f186115e4565b6001900381819060005260206000200160009055905550505050565b60006001610f4184610557565b610f4b91906114df565b6001600160a01b039093166000908152600660209081526040808320868452825280832085905593825260079052919091209190915550565b610f8e83836110d8565b6104c2336000858585610a47565b60008072184f03e93ff9f4daa797ed6e38ed64bf6a1f0160401b8310610fdb5772184f03e93ff9f4daa797ed6e38ed64bf6a1f0160401b830492506040015b6d04ee2d6d415b85acef81000000008310611007576d04ee2d6d415b85acef8100000000830492506020015b662386f26fc10000831061102557662386f26fc10000830492506010015b6305f5e100831061103d576305f5e100830492506008015b612710831061105157612710830492506004015b60648310611063576064830492506002015b600a83106102e25760010192915050565b61107f83838361113d565b6104c2576001600160a01b0383166110ad57604051637e27328960e01b8152600481018290526024016103d8565b60405163177e802f60e01b81526001600160a01b0383166004820152602481018290526044016103d8565b6001600160a01b03821661110257604051633250574960e11b8152600060048201526024016103d8565b6000611110838360006108b9565b90506001600160a01b038116156104c2576040516339e3563760e11b8152600060048201526024016103d8565b60006001600160a01b038316158015906109865750826001600160a01b0316846001600160a01b03161480611177575061117784846107f5565b806109865750506000908152600460205260409020546001600160a01b03908116911614919050565b6001600160e01b0319811681146111b657600080fd5b50565b6000602082840312156111cb57600080fd5b81356111d6816111a0565b9392505050565b60005b838110156111f85781810151838201526020016111e0565b50506000910152565b600081518084526112198160208601602086016111dd565b601f01601f19169290920160200192915050565b6020815260006111d66020830184611201565b60006020828403121561125257600080fd5b5035919050565b80356001600160a01b038116811461127057600080fd5b919050565b6000806040838503121561128857600080fd5b61129183611259565b946020939093013593505050565b6000806000606084860312156112b457600080fd5b6112bd84611259565b92506112cb60208501611259565b929592945050506040919091013590565b6000602082840312156112ee57600080fd5b6111d682611259565b6000806040838503121561130a57600080fd5b61131383611259565b91506020830135801515811461132857600080fd5b809150509250929050565b634e487b7160e01b600052604160045260246000fd5b6000806000806080858703121561135f57600080fd5b61136885611259565b935061137660208601611259565b925060408501359150606085013567ffffffffffffffff81111561139957600080fd5b8501601f810187136113aa57600080fd5b803567ffffffffffffffff8111156113c4576113c4611333565b604051601f8201601f19908116603f0116810167ffffffffffffffff811182821017156113f3576113f3611333565b60405281815282820160200189101561140b57600080fd5b8160208401602083013760006020838301015280935050505092959194509250565b6000806040838503121561144057600080fd5b61144983611259565b915061145760208401611259565b90509250929050565b600181811c9082168061147457607f821691505b60208210810361149457634e487b7160e01b600052602260045260246000fd5b50919050565b634e487b7160e01b600052603260045260246000fd5b634e487b7160e01b600052601160045260246000fd5b6000600182016114d8576114d86114b0565b5060010190565b818103818111156102e2576102e26114b0565b600082516115048184602087016111dd565b602f60f81b920191825250600101919050565b808201808211156102e2576102e26114b0565b6000835161153c8184602088016111dd565b7270696563655f6d657461646174612f4e46545f60681b908301908152835161156c8160138401602088016111dd565b64173539b7b760d91b60139290910191820152601801949350505050565b6001600160a01b03858116825284166020820152604081018390526080606082018190526000906115bd90830184611201565b9695505050505050565b6000602082840312156115d957600080fd5b81516111d6816111a0565b634e487b7160e01b600052603160045260246000fdfea2646970667358221220eca68583f6195e9cc46fad35e1b053efe8f1c745fae4505c025cad449d1eb0f364736f6c634300081c0033",
  "linkReferences": {},
  "deployedLinkReferences": {}
}