{
  "_format": "hh-sol-artifact-1",
  "contractName": "NFT",
  "sourceName": "contracts/NFT.sol",
  "abi": [
    {
      "inputs": [],
      "stateMutability": "nonpayable",
      "type": "constructor"
    },
    {
      "inputs": [
        {
          "internalType": "address",
          "name": "sender",
          "type": "address"
        },
        {
          "internalType": "uint256",
          "name": "tokenId",
          "type": "uint256"
        },
        {
          "internalType": "address",
          "name": "owner",
          "type": "address"
        }
      ],
      "name": "ERC721IncorrectOwner",
      "type": "error"
    },
    {
      "inputs": [
        {
          "internalType": "address",
          "name": "operator",
          "type": "address"
        },
        {
          "internalType": "uint256",
          "name": "tokenId",
          "type": "uint256"
        }
      ],
      "name": "ERC721InsufficientApproval",
      "type": "error"
    },
    {
      "inputs": [
        {
          "internalType": "address",
          "name": "approver",
          "type": "address"
        }
      ],
      "name": "ERC721InvalidApprover",
      "type": "error"
    },
    {
      "inputs": [
        {
          "internalType": "address",
          "name": "operator",
          "type": "address"
        }
      ],
      "name": "ERC721InvalidOperator",
      "type": "error"
    },
    {
      "inputs": [
        {
          "internalType": "address",
          "name": "owner",
          "type": "address"
        }
      ],
      "name": "ERC721InvalidOwner",
      "type": "error"
    },
    {
      "inputs": [
        {
          "internalType": "address",
          "name": "receiver",
          "type": "address"
        }
      ],
      "name": "ERC721InvalidReceiver",
      "type": "error"
    },
    {
      "inputs": [
        {
          "internalType": "address",
          "name": "sender",
          "type": "address"
        }
      ],
      "name": "ERC721InvalidSender",
      "type": "error"
    },
    {
      "inputs": [
        {
          "internalType": "uint256",
          "name": "tokenId",
          "type": "uint256"
        }
      ],
      "name": "ERC721NonexistentToken",
      "type": "error"
    },
    {
      "inputs": [
        {
          "internalType": "address",
          "name": "owner",
          "type": "address"
        }
      ],
      "name": "OwnableInvalidOwner",
      "type": "error"
    },
    {
      "inputs": [
        {
          "internalType": "address",
          "name": "account",
          "type": "address"
        }
      ],
      "name": "OwnableUnauthorizedAccount",
      "type": "error"
    },
    {
      "anonymous": false,
      "inputs": [
        {
          "indexed": true,
          "internalType": "address",
          "name": "owner",
          "type": "address"
        },
        {
          "indexed": true,
          "internalType": "address",
          "name": "approved",
          "type": "address"
        },
        {
          "indexed": true,
          "internalType": "uint256",
          "name": "tokenId",
          "type": "uint256"
        }
      ],
      "name": "Approval",
      "type": "event"
    },
    {
      "anonymous": false,
      "inputs": [
        {
          "indexed": true,
          "internalType": "address",
          "name": "owner",
          "type": "address"
        },
        {
          "indexed": true,
          "internalType": "address",
          "name": "operator",
          "type": "address"
        },
        {
          "indexed": false,
          "internalType": "bool",
          "name": "approved",
          "type": "bool"
        }
      ],
      "name": "ApprovalForAll",
      "type": "event"
    },
    {
      "anonymous": false,
      "inputs": [
        {
          "indexed": false,
          "internalType": "uint256",
          "name": "_fromTokenId",
          "type": "uint256"
        },
        {
          "indexed": false,
          "internalType": "uint256",
          "name": "_toTokenId",
          "type": "uint256"
        }
      ],
      "name": "BatchMetadataUpdate",
      "type": "event"
    },
    {
      "anonymous": false,
      "inputs": [
        {
          "indexed": false,
          "internalType": "uint256",
          "name": "_tokenId",
          "type": "uint256"
        }
      ],
      "name": "MetadataUpdate",
      "type": "event"
    },
    {
      "anonymous": false,
      "inputs": [
        {
          "indexed": true,
          "internalType": "address",
          "name": "winner",
          "type": "address"
        },
        {
          "indexed": false,
          "internalType": "uint256",
          "name": "tokenId",
          "type": "uint256"
        },
        {
          "indexed": false,
          "internalType": "uint256",
          "name": "round",
          "type": "uint256"
        }
      ],
      "name": "NFTMinted",
      "type": "event"
    },
    {
      "anonymous": false,
      "inputs": [
        {
          "indexed": true,
          "internalType": "address",
          "name": "previousOwner",
          "type": "address"
        },
        {
          "indexed": true,
          "internalType": "address",
          "name": "newOwner",
          "type": "address"
        }
      ],
      "name": "OwnershipTransferred",
      "type": "event"
    },
    {
      "anonymous": false,
      "inputs": [
        {
          "indexed": true,
          "internalType": "address",
          "name": "from",
          "type": "address"
        },
        {
          "indexed": true,
          "internalType": "address",
          "name": "to",
          "type": "address"
        },
        {
          "indexed": true,
          "internalType": "uint256",
          "name": "tokenId",
          "type": "uint256"
        }
      ],
      "name": "Transfer",
      "type": "event"
    },
    {
      "inputs": [
        {
          "internalType": "address",
          "name": "to",
          "type": "address"
        },
        {
          "internalType": "uint256",
          "name": "tokenId",
          "type": "uint256"
        }
      ],
      "name": "approve",
      "outputs": [],
      "stateMutability": "nonpayable",
      "type": "function"
    },
    {
      "inputs": [
        {
          "internalType": "address",
          "name": "owner",
          "type": "address"
        }
      ],
      "name": "balanceOf",
      "outputs": [
        {
          "internalType": "uint256",
          "name": "",
          "type": "uint256"
        }
      ],
      "stateMutability": "view",
      "type": "function"
    },
    {
      "inputs": [
        {
          "internalType": "uint256",
          "name": "tokenId",
          "type": "uint256"
        }
      ],
      "name": "getApproved",
      "outputs": [
        {
          "internalType": "address",
          "name": "",
          "type": "address"
        }
      ],
      "stateMutability": "view",
      "type": "function"
    },
    {
      "inputs": [
        {
          "internalType": "uint256",
          "name": "tokenId",
          "type": "uint256"
        }
      ],
      "name": "getTokenInfo",
      "outputs": [
        {
          "internalType": "address",
          "name": "owner",
          "type": "address"
        },
        {
          "internalType": "uint256",
          "name": "round",
          "type": "uint256"
        },
        {
          "internalType": "uint256",
          "name": "timestamp",
          "type": "uint256"
        }
      ],
      "stateMutability": "view",
      "type": "function"
    },
    {
      "inputs": [
        {
          "internalType": "address",
          "name": "owner",
          "type": "address"
        },
        {
          "internalType": "address",
          "name": "operator",
          "type": "address"
        }
      ],
      "name": "isApprovedForAll",
      "outputs": [
        {
          "internalType": "bool",
          "name": "",
          "type": "bool"
        }
      ],
      "stateMutability": "view",
      "type": "function"
    },
    {
      "inputs": [
        {
          "internalType": "address",
          "name": "winner",
          "type": "address"
        }
      ],
      "name": "mint",
      "outputs": [
        {
          "internalType": "uint256",
          "name": "",
          "type": "uint256"
        }
      ],
      "stateMutability": "nonpayable",
      "type": "function"
    },
    {
      "inputs": [
        {
          "internalType": "address",
          "name": "winner",
          "type": "address"
        },
        {
          "internalType": "uint256",
          "name": "round",
          "type": "uint256"
        }
      ],
      "name": "mintWithRound",
      "outputs": [
        {
          "internalType": "uint256",
          "name": "",
          "type": "uint256"
        }
      ],
      "stateMutability": "nonpayable",
      "type": "function"
    },
    {
      "inputs": [],
      "name": "name",
      "outputs": [
        {
          "internalType": "string",
          "name": "",
          "type": "string"
        }
      ],
      "stateMutability": "view",
      "type": "function"
    },
    {
      "inputs": [],
      "name": "owner",
      "outputs": [
        {
          "internalType": "address",
          "name": "",
          "type": "address"
        }
      ],
      "stateMutability": "view",
      "type": "function"
    },
    {
      "inputs": [
        {
          "internalType": "uint256",
          "name": "tokenId",
          "type": "uint256"
        }
      ],
      "name": "ownerOf",
      "outputs": [
        {
          "internalType": "address",
          "name": "",
          "type": "address"
        }
      ],
      "stateMutability": "view",
      "type": "function"
    },
    {
      "inputs": [],
      "name": "renounceOwnership",
      "outputs": [],
      "stateMutability": "nonpayable",
      "type": "function"
    },
    {
      "inputs": [
        {
          "internalType": "address",
          "name": "from",
          "type": "address"
        },
        {
          "internalType": "address",
          "name": "to",
          "type": "address"
        },
        {
          "internalType": "uint256",
          "name": "tokenId",
          "type": "uint256"
        }
      ],
      "name": "safeTransferFrom",
      "outputs": [],
      "stateMutability": "nonpayable",
      "type": "function"
    },
    {
      "inputs": [
        {
          "internalType": "address",
          "name": "from",
          "type": "address"
        },
        {
          "internalType": "address",
          "name": "to",
          "type": "address"
        },
        {
          "internalType": "uint256",
          "name": "tokenId",
          "type": "uint256"
        },
        {
          "internalType": "bytes",
          "name": "data",
          "type": "bytes"
        }
      ],
      "name": "safeTransferFrom",
      "outputs": [],
      "stateMutability": "nonpayable",
      "type": "function"
    },
    {
      "inputs": [
        {
          "internalType": "address",
          "name": "operator",
          "type": "address"
        },
        {
          "internalType": "bool",
          "name": "approved",
          "type": "bool"
        }
      ],
      "name": "setApprovalForAll",
      "outputs": [],
      "stateMutability": "nonpayable",
      "type": "function"
    },
    {
      "inputs": [
        {
          "internalType": "uint256",
          "name": "tokenId",
          "type": "uint256"
        },
        {
          "internalType": "string",
          "name": "uri",
          "type": "string"
        }
      ],
      "name": "setTokenURI",
      "outputs": [],
      "stateMutability": "nonpayable",
      "type": "function"
    },
    {
      "inputs": [
        {
          "internalType": "bytes4",
          "name": "interfaceId",
          "type": "bytes4"
        }
      ],
      "name": "supportsInterface",
      "outputs": [
        {
          "internalType": "bool",
          "name": "",
          "type": "bool"
        }
      ],
      "stateMutability": "view",
      "type": "function"
    },
    {
      "inputs": [],
      "name": "symbol",
      "outputs": [
        {
          "internalType": "string",
          "name": "",
          "type": "string"
        }
      ],
      "stateMutability": "view",
      "type": "function"
    },
    {
      "inputs": [
        {
          "internalType": "uint256",
          "name": "",
          "type": "uint256"
        }
      ],
      "name": "tokenToRound",
      "outputs": [
        {
          "internalType": "uint256",
          "name": "",
          "type": "uint256"
        }
      ],
      "stateMutability": "view",
      "type": "function"
    },
    {
      "inputs": [
        {
          "internalType": "uint256",
          "name": "",
          "type": "uint256"
        }
      ],
      "name": "tokenToTimestamp",
      "outputs": [
        {
          "internalType": "uint256",
          "name": "",
          "type": "uint256"
        }
      ],
      "stateMutability": "view",
      "type": "function"
    },
    {
      "inputs": [
        {
          "internalType": "uint256",
          "name": "tokenId",
          "type": "uint256"
        }
      ],
      "name": "tokenURI",
      "outputs": [
        {
          "internalType": "string",
          "name": "",
          "type": "string"
        }
      ],
      "stateMutability": "view",
      "type": "function"
    },
    {
      "inputs": [],
      "name": "totalSupply",
      "outputs": [
        {
          "internalType": "uint256",
          "name": "",
          "type": "uint256"
        }
      ],
      "stateMutability": "view",
      "type": "function"
    },
    {
      "inputs": [
        {
          "internalType": "address",
          "name": "from",
          "type": "address"
        },
        {
          "internalType": "address",
          "name": "to",
          "type": "address"
        },
        {
          "internalType": "uint256",
          "name": "tokenId",
          "type": "uint256"
        }
      ],
      "name": "transferFrom",
      "outputs": [],
      "stateMutability": "nonpayable",
      "type": "function"
    },
    {
      "inputs": [
        {
          "internalType": "address",
          "name": "newOwner",
          "type": "address"
        }
      ],
      "name": "transferOwnership",
      "outputs": [],
      "stateMutability": "nonpayable",
      "type": "function"
    }
  ],
  "bytecode": "0x608060405234801561001057600080fd5b50336040518060400160405280600d81526020016c2637ba3a32b93cabb4b73732b960991b81525060405180604001604052806004815260200163262ba4a760e11b815250816000908161006491906101a2565b50600161007182826101a2565b5050506001600160a01b0381166100a257604051631e4fbdf760e01b81526000600482015260240160405180910390fd5b6100ab816100b1565b50610260565b600780546001600160a01b038381166001600160a01b0319831681179093556040519116919082907f8be0079c531659141344cd1fd0a4f28419497f9722a3daafe3b4186f6b6457e090600090a35050565b634e487b7160e01b600052604160045260246000fd5b600181811c9082168061012d57607f821691505b60208210810361014d57634e487b7160e01b600052602260045260246000fd5b50919050565b601f82111561019d57806000526020600020601f840160051c8101602085101561017a5750805b601f840160051c820191505b8181101561019a5760008155600101610186565b50505b505050565b81516001600160401b038111156101bb576101bb610103565b6101cf816101c98454610119565b84610153565b6020601f82116001811461020357600083156101eb5750848201515b600019600385901b1c1916600184901b17845561019a565b600084815260208120601f198516915b828110156102335787850151825560209485019460019092019101610213565b50848210156102515786840151600019600387901b60f8161c191681555b50505050600190811b01905550565b6116438061026f6000396000f3fe608060405234801561001057600080fd5b506004361061014d5760003560e01c8063715018a6116100c3578063a75250d61161007c578063a75250d6146102df578063b88d4fde146102f2578063c87b56dd14610305578063dd0e4e0914610318578063e985e9c514610338578063f2fde38b1461034b57600080fd5b8063715018a61461025357806384773cc11461025b5780638c7a63ae1461027b5780638da5cb5b146102b357806395d89b41146102c4578063a22cb465146102cc57600080fd5b806318160ddd1161011557806318160ddd146101e257806323b872dd146101f457806342842e0e146102075780636352211e1461021a5780636a6278421461022d57806370a082311461024057600080fd5b806301ffc9a71461015257806306fdde031461017a578063081812fc1461018f578063095ea7b3146101ba578063162094c4146101cf575b600080fd5b610165610160366004611115565b61035e565b60405190151581526020015b60405180910390f35b61018261036f565b6040516101719190611182565b6101a261019d366004611195565b610401565b6040516001600160a01b039091168152602001610171565b6101cd6101c83660046111c5565b61042a565b005b6101cd6101dd36600461127f565b610439565b6008545b604051908152602001610171565b6101cd6102023660046112da565b61044b565b6101cd6102153660046112da565b6104db565b6101a2610228366004611195565b6104fb565b6101e661023b366004611317565b610506565b6101e661024e366004611317565b610593565b6101cd6105db565b6101e6610269366004611195565b60096020526000908152604090205481565b61028e610289366004611195565b6105ef565b604080516001600160a01b039094168452602084019290925290820152606001610171565b6007546001600160a01b03166101a2565b610182610622565b6101cd6102da366004611332565b610631565b6101e66102ed3660046111c5565b61063c565b6101cd61030036600461136e565b6106ce565b610182610313366004611195565b6106e6565b6101e6610326366004611195565b600a6020526000908152604090205481565b6101656103463660046113ea565b6106f1565b6101cd610359366004611317565b61071f565b60006103698261075d565b92915050565b60606000805461037e9061141d565b80601f01602080910402602001604051908101604052809291908181526020018280546103aa9061141d565b80156103f75780601f106103cc576101008083540402835291602001916103f7565b820191906000526020600020905b8154815290600101906020018083116103da57829003601f168201915b5050505050905090565b600061040c82610782565b506000828152600460205260409020546001600160a01b0316610369565b6104358282336107bb565b5050565b6104416107c8565b61043582826107f5565b6001600160a01b03821661047a57604051633250574960e11b8152600060048201526024015b60405180910390fd5b6000610487838333610845565b9050836001600160a01b0316816001600160a01b0316146104d5576040516364283d7b60e01b81526001600160a01b0380861660048301526024820184905282166044820152606401610471565b50505050565b6104f6838383604051806020016040528060008152506106ce565b505050565b600061036982610782565b60006105106107c8565b600880546000918261052183611457565b919050559050610531838261093e565b6000818152600a6020526040808220429055516001600160a01b038516917f3a8a89b59a31c39a36febecb987e0657ab7b7c73b60ebacb44dcb9886c2d5c8a9161058391858252602082015260400190565b60405180910390a290505b919050565b60006001600160a01b0382166105bf576040516322718ad960e21b815260006004820152602401610471565b506001600160a01b031660009081526003602052604090205490565b6105e36107c8565b6105ed6000610958565b565b60008060006105fd846104fb565b600094855260096020908152604080872054600a909252909520549095909350915050565b60606001805461037e9061141d565b6104353383836109aa565b60006106466107c8565b600880546000918261065783611457565b919050559050610667848261093e565b6000818152600960209081526040808320869055600a82529182902042905581518381529081018590526001600160a01b038616917f3a8a89b59a31c39a36febecb987e0657ab7b7c73b60ebacb44dcb9886c2d5c8a910160405180910390a29392505050565b6106d984848461044b565b6104d53385858585610a49565b606061036982610b74565b6001600160a01b03918216600090815260056020908152604080832093909416825291909152205460ff1690565b6107276107c8565b6001600160a01b03811661075157604051631e4fbdf760e01b815260006004820152602401610471565b61075a81610958565b50565b60006001600160e01b03198216632483248360e11b1480610369575061036982610c85565b6000818152600260205260408120546001600160a01b03168061036957604051637e27328960e01b815260048101849052602401610471565b6104f68383836001610cd5565b6007546001600160a01b031633146105ed5760405163118cdaa760e01b8152336004820152602401610471565b600082815260066020526040902061080d82826114c5565b506040518281527ff8e1a15aba9398e019f0b49df1a4fde98ee17ae345cb5f6b5e2c27f5033e8ce79060200160405180910390a15050565b6000828152600260205260408120546001600160a01b039081169083161561087257610872818486610ddb565b6001600160a01b038116156108b05761088f600085600080610cd5565b6001600160a01b038116600090815260036020526040902080546000190190555b6001600160a01b038516156108df576001600160a01b0385166000908152600360205260409020805460010190555b60008481526002602052604080822080546001600160a01b0319166001600160a01b0389811691821790925591518793918516917fddf252ad1be2c89b69c2b068fc378daa952ba7f163c4a11628f55a4df523b3ef91a4949350505050565b610435828260405180602001604052806000815250610e3f565b600780546001600160a01b038381166001600160a01b0319831681179093556040519116919082907f8be0079c531659141344cd1fd0a4f28419497f9722a3daafe3b4186f6b6457e090600090a35050565b6001600160a01b0382166109dc57604051630b61174360e31b81526001600160a01b0383166004820152602401610471565b6001600160a01b03838116600081815260056020908152604080832094871680845294825291829020805460ff191686151590811790915591519182527f17307eab39ab6107e8899845ad3d59bd9653f200f220920489ca2b5937696c31910160405180910390a3505050565b6001600160a01b0383163b15610b6d57604051630a85bd0160e11b81526001600160a01b0384169063150b7a0290610a8b908890889087908790600401611584565b6020604051808303816000875af1925050508015610ac6575060408051601f3d908101601f19168201909252610ac3918101906115c1565b60015b610b2f573d808015610af4576040519150601f19603f3d011682016040523d82523d6000602084013e610af9565b606091505b508051600003610b2757604051633250574960e11b81526001600160a01b0385166004820152602401610471565b805160208201fd5b6001600160e01b03198116630a85bd0160e11b14610b6b57604051633250574960e11b81526001600160a01b0385166004820152602401610471565b505b5050505050565b6060610b7f82610782565b5060008281526006602052604081208054610b999061141d565b80601f0160208091040260200160405190810160405280929190818152602001828054610bc59061141d565b8015610c125780601f10610be757610100808354040283529160200191610c12565b820191906000526020600020905b815481529060010190602001808311610bf557829003601f168201915b505050505090506000610c3060408051602081019091526000815290565b90508051600003610c42575092915050565b815115610c74578082604051602001610c5c9291906115de565b60405160208183030381529060405292505050919050565b610c7d84610e57565b949350505050565b60006001600160e01b031982166380ac58cd60e01b1480610cb657506001600160e01b03198216635b5e139f60e01b145b8061036957506301ffc9a760e01b6001600160e01b0319831614610369565b8080610ce957506001600160a01b03821615155b15610dab576000610cf984610782565b90506001600160a01b03831615801590610d255750826001600160a01b0316816001600160a01b031614155b8015610d385750610d3681846106f1565b155b15610d615760405163a9fbf51f60e01b81526001600160a01b0384166004820152602401610471565b8115610da95783856001600160a01b0316826001600160a01b03167f8c5be1e5ebec7d5bd14f71427d1e84f3dd0314c0f7b2291e5b200ac8c7c3b92560405160405180910390a45b505b5050600090815260046020526040902080546001600160a01b0319166001600160a01b0392909216919091179055565b610de6838383610ecc565b6104f6576001600160a01b038316610e1457604051637e27328960e01b815260048101829052602401610471565b60405163177e802f60e01b81526001600160a01b038316600482015260248101829052604401610471565b610e498383610f2f565b6104f6336000858585610a49565b6060610e6282610782565b506000610e7a60408051602081019091526000815290565b90506000815111610e9a5760405180602001604052806000815250610ec5565b80610ea484610f94565b604051602001610eb59291906115de565b6040516020818303038152906040525b9392505050565b60006001600160a01b03831615801590610c7d5750826001600160a01b0316846001600160a01b03161480610f065750610f0684846106f1565b80610c7d5750506000908152600460205260409020546001600160a01b03908116911614919050565b6001600160a01b038216610f5957604051633250574960e11b815260006004820152602401610471565b6000610f6783836000610845565b90506001600160a01b038116156104f6576040516339e3563760e11b815260006004820152602401610471565b60606000610fa183611027565b600101905060008167ffffffffffffffff811115610fc157610fc16111ef565b6040519080825280601f01601f191660200182016040528015610feb576020820181803683370190505b5090508181016020015b600019016f181899199a1a9b1b9c1cb0b131b232b360811b600a86061a8153600a8504945084610ff557509392505050565b60008072184f03e93ff9f4daa797ed6e38ed64bf6a1f0160401b83106110665772184f03e93ff9f4daa797ed6e38ed64bf6a1f0160401b830492506040015b6d04ee2d6d415b85acef81000000008310611092576d04ee2d6d415b85acef8100000000830492506020015b662386f26fc1000083106110b057662386f26fc10000830492506010015b6305f5e10083106110c8576305f5e100830492506008015b61271083106110dc57612710830492506004015b606483106110ee576064830492506002015b600a83106103695760010192915050565b6001600160e01b03198116811461075a57600080fd5b60006020828403121561112757600080fd5b8135610ec5816110ff565b60005b8381101561114d578181015183820152602001611135565b50506000910152565b6000815180845261116e816020860160208601611132565b601f01601f19169290920160200192915050565b602081526000610ec56020830184611156565b6000602082840312156111a757600080fd5b5035919050565b80356001600160a01b038116811461058e57600080fd5b600080604083850312156111d857600080fd5b6111e1836111ae565b946020939093013593505050565b634e487b7160e01b600052604160045260246000fd5b60008067ffffffffffffffff841115611220576112206111ef565b50604051601f19601f85018116603f0116810181811067ffffffffffffffff8211171561124f5761124f6111ef565b60405283815290508082840185101561126757600080fd5b83836020830137600060208583010152509392505050565b6000806040838503121561129257600080fd5b82359150602083013567ffffffffffffffff8111156112b057600080fd5b8301601f810185136112c157600080fd5b6112d085823560208401611205565b9150509250929050565b6000806000606084860312156112ef57600080fd5b6112f8846111ae565b9250611306602085016111ae565b929592945050506040919091013590565b60006020828403121561132957600080fd5b610ec5826111ae565b6000806040838503121561134557600080fd5b61134e836111ae565b91506020830135801515811461136357600080fd5b809150509250929050565b6000806000806080858703121561138457600080fd5b61138d856111ae565b935061139b602086016111ae565b925060408501359150606085013567ffffffffffffffff8111156113be57600080fd5b8501601f810187136113cf57600080fd5b6113de87823560208401611205565b91505092959194509250565b600080604083850312156113fd57600080fd5b611406836111ae565b9150611414602084016111ae565b90509250929050565b600181811c9082168061143157607f821691505b60208210810361145157634e487b7160e01b600052602260045260246000fd5b50919050565b60006001820161147757634e487b7160e01b600052601160045260246000fd5b5060010190565b601f8211156104f657806000526020600020601f840160051c810160208510156114a55750805b601f840160051c820191505b81811015610b6d57600081556001016114b1565b815167ffffffffffffffff8111156114df576114df6111ef565b6114f3816114ed845461141d565b8461147e565b6020601f821160018114611527576000831561150f5750848201515b600019600385901b1c1916600184901b178455610b6d565b600084815260208120601f198516915b828110156115575787850151825560209485019460019092019101611537565b50848210156115755786840151600019600387901b60f8161c191681555b50505050600190811b01905550565b6001600160a01b03858116825284166020820152604081018390526080606082018190526000906115b790830184611156565b9695505050505050565b6000602082840312156115d357600080fd5b8151610ec5816110ff565b600083516115f0818460208801611132565b835190830190611604818360208801611132565b0194935050505056fea2646970667358221220c707222c269666c800add0b4bddaab1aeb233f85399aa2d301dc99324fb39e3c64736f6c634300081c0033",
  "linkReferences": {},
  "deployedLinkReferences": {}
}