{
  "_format": "hh-sol-artifact-1",
  "contractName": "RandomGenerator",
  "sourceName": "contracts/RandomGenerator.sol",
  "abi": [
    {
      "inputs": [
        {
          "internalType": "uint256",
          "name": "_ticketCount",
          "type": "uint256"
        }
      ],
      "name": "generateRandomIndex",
      "outputs": [
        {
          "internalType": "uint256",
          "name": "",
          "type": "uint256"
        }
      ],
      "stateMutability": "view",
      "type": "function"
    }
  ],
  "bytecode": "0x6080604052348015600f57600080fd5b506101058061001f6000396000f3fe6080604052348015600f57600080fd5b506004361060285760003560e01c806387cc49b914602d575b600080fd5b603c60383660046096565b604e565b60405190815260200160405180910390f35b6040805142602082015244918101919091526060810182905260009082906080016040516020818303038152906040528051906020012060001c6090919060ae565b92915050565b60006020828403121560a757600080fd5b5035919050565b60008260ca57634e487b7160e01b600052601260045260246000fd5b50069056fea26469706673582212201bf9b07a9c29902fc4433530bd7184f4efe335373b21de97286ff5a92a725eae64736f6c634300081c0033",
  "linkReferences": {},
  "deployedLinkReferences": {}
}