{
  "_format": "hh-sol-artifact-1",
  "contractName": "RandomNumberConsumerV2Plus",
  "sourceName": "contracts/RandomNumberConsumerV2Plus.sol",
  "abi": [
    {
      "inputs": [
        {
          "internalType": "uint256",
          "name": "subscriptionId",
          "type": "uint256"
        },
        {
          "internalType": "address",
          "name": "vrfCoordinator",
          "type": "address"
        },
        {
          "internalType": "bytes32",
          "name": "keyHash",
          "type": "bytes32"
        },
        {
          "internalType": "address",
          "name": "lotteryAddress",
          "type": "address"
        }
      ],
      "stateMutability": "nonpayable",
      "type": "constructor"
    },
    {
      "inputs": [
        {
          "internalType": "address",
          "name": "have",
          "type": "address"
        },
        {
          "internalType": "address",
          "name": "want",
          "type": "address"
        }
      ],
      "name": "OnlyCoordinatorCanFulfill",
      "type": "error"
    },
    {
      "inputs": [
        {
          "internalType": "address",
          "name": "have",
          "type": "address"
        },
        {
          "internalType": "address",
          "name": "owner",
          "type": "address"
        },
        {
          "internalType": "address",
          "name": "coordinator",
          "type": "address"
        }
      ],
      "name": "OnlyOwnerOrCoordinator",
      "type": "error"
    },
    {
      "inputs": [],
      "name": "ZeroAddress",
      "type": "error"
    },
    {
      "anonymous": false,
      "inputs": [
        {
          "indexed": false,
          "internalType": "address",
          "name": "vrfCoordinator",
          "type": "address"
        }
      ],
      "name": "CoordinatorSet",
      "type": "event"
    },
    {
      "anonymous": false,
      "inputs": [
        {
          "indexed": true,
          "internalType": "address",
          "name": "from",
          "type": "address"
        },
        {
          "indexed": true,
          "internalType": "address",
          "name": "to",
          "type": "address"
        }
      ],
      "name": "OwnershipTransferRequested",
      "type": "event"
    },
    {
      "anonymous": false,
      "inputs": [
        {
          "indexed": true,
          "internalType": "address",
          "name": "from",
          "type": "address"
        },
        {
          "indexed": true,
          "internalType": "address",
          "name": "to",
          "type": "address"
        }
      ],
      "name": "OwnershipTransferred",
      "type": "event"
    },
    {
      "anonymous": false,
      "inputs": [
        {
          "indexed": false,
          "internalType": "uint256",
          "name": "requestId",
          "type": "uint256"
        }
      ],
      "name": "RandomnessRequested",
      "type": "event"
    },
    {
      "anonymous": false,
      "inputs": [
        {
          "indexed": false,
          "internalType": "uint256[]",
          "name": "randomWords",
          "type": "uint256[]"
        }
      ],
      "name": "ReturnedRandomness",
      "type": "event"
    },
    {
      "inputs": [],
      "name": "acceptOwnership",
      "outputs": [],
      "stateMutability": "nonpayable",
      "type": "function"
    },
    {
      "inputs": [],
      "name": "lottery",
      "outputs": [
        {
          "internalType": "address",
          "name": "",
          "type": "address"
        }
      ],
      "stateMutability": "view",
      "type": "function"
    },
    {
      "inputs": [],
      "name": "owner",
      "outputs": [
        {
          "internalType": "address",
          "name": "",
          "type": "address"
        }
      ],
      "stateMutability": "view",
      "type": "function"
    },
    {
      "inputs": [
        {
          "internalType": "uint256",
          "name": "requestId",
          "type": "uint256"
        },
        {
          "internalType": "uint256[]",
          "name": "randomWords",
          "type": "uint256[]"
        }
      ],
      "name": "rawFulfillRandomWords",
      "outputs": [],
      "stateMutability": "nonpayable",
      "type": "function"
    },
    {
      "inputs": [],
      "name": "requestRandomWords",
      "outputs": [
        {
          "internalType": "uint256",
          "name": "",
          "type": "uint256"
        }
      ],
      "stateMutability": "nonpayable",
      "type": "function"
    },
    {
      "inputs": [],
      "name": "requestRandomWordsFromLottery",
      "outputs": [
        {
          "internalType": "uint256",
          "name": "",
          "type": "uint256"
        }
      ],
      "stateMutability": "nonpayable",
      "type": "function"
    },
    {
      "inputs": [
        {
          "internalType": "uint256",
          "name": "",
          "type": "uint256"
        }
      ],
      "name": "s_randomWords",
      "outputs": [
        {
          "internalType": "uint256",
          "name": "",
          "type": "uint256"
        }
      ],
      "stateMutability": "view",
      "type": "function"
    },
    {
      "inputs": [],
      "name": "s_requestId",
      "outputs": [
        {
          "internalType": "uint256",
          "name": "",
          "type": "uint256"
        }
      ],
      "stateMutability": "view",
      "type": "function"
    },
    {
      "inputs": [],
      "name": "s_vrfCoordinator",
      "outputs": [
        {
          "internalType": "contract IVRFCoordinatorV2Plus",
          "name": "",
          "type": "address"
        }
      ],
      "stateMutability": "view",
      "type": "function"
    },
    {
      "inputs": [
        {
          "internalType": "address",
          "name": "_vrfCoordinator",
          "type": "address"
        }
      ],
      "name": "setCoordinator",
      "outputs": [],
      "stateMutability": "nonpayable",
      "type": "function"
    },
    {
      "inputs": [
        {
          "internalType": "address",
          "name": "lotteryAddress",
          "type": "address"
        }
      ],
      "name": "setLottery",
      "outputs": [],
      "stateMutability": "nonpayable",
      "type": "function"
    },
    {
      "inputs": [
        {
          "internalType": "address",
          "name": "to",
          "type": "address"
        }
      ],
      "name": "transferOwnership",
      "outputs": [],
      "stateMutability": "nonpayable",
      "type": "function"
    }
  ],
  "bytecode": "0x60c060405234801561001057600080fd5b50604051610c91380380610c9183398101604081905261002f916101e4565b8233806000816100865760405162461bcd60e51b815260206004820152601860248201527f43616e6e6f7420736574206f776e657220746f207a65726f000000000000000060448201526064015b60405180910390fd5b600080546001600160a01b0319166001600160a01b03848116919091179091558116156100b6576100b68161011f565b5050506001600160a01b0381166100e05760405163d92e233d60e01b815260040160405180910390fd5b600280546001600160a01b039283166001600160a01b03199182161790915560a09390935260809490945260058054919094169116179091555061022a565b336001600160a01b038216036101775760405162461bcd60e51b815260206004820152601760248201527f43616e6e6f74207472616e7366657220746f2073656c66000000000000000000604482015260640161007d565b600180546001600160a01b0319166001600160a01b0383811691821790925560008054604051929316917fed8889f560326eb138920d842192f0eb3dd22b4f139c87a2c57538e05bae12789190a350565b80516001600160a01b03811681146101df57600080fd5b919050565b600080600080608085870312156101fa57600080fd5b8451935061020a602086016101c8565b92506040850151915061021f606086016101c8565b905092959194509250565b60805160a051610a4261024f600039600061051c0152600061053f0152610a426000f3fe608060405234801561001057600080fd5b50600436106100b45760003560e01c8063c155f06b11610071578063c155f06b14610139578063e0c862891461014f578063e89e106a14610157578063f298083b14610160578063f2fde38b14610173578063f6eaffc81461018657600080fd5b80631fe543e3146100b957806379ba5097146100ce5780638da5cb5b146100d65780638ea98117146101005780639eccacf614610113578063ba13a57214610126575b600080fd5b6100cc6100c736600461081c565b610199565b005b6100cc6101ee565b6000546001600160a01b03165b6040516001600160a01b0390911681526020015b60405180910390f35b6100cc61010e36600461089d565b610298565b6002546100e3906001600160a01b031681565b6005546100e3906001600160a01b031681565b61014161038a565b6040519081526020016100f7565b6101416103e2565b61014160045481565b6100cc61016e36600461089d565b6103ec565b6100cc61018136600461089d565b610416565b6101416101943660046108cd565b61042a565b6002546001600160a01b031633146101de5760025460405163073e64fd60e21b81523360048201526001600160a01b0390911660248201526044015b60405180910390fd5b6101e983838361044b565b505050565b6001546001600160a01b031633146102415760405162461bcd60e51b815260206004820152601660248201527526bab9ba10313290383937b837b9b2b21037bbb732b960511b60448201526064016101d5565b60008054336001600160a01b0319808316821784556001805490911690556040516001600160a01b0390921692909183917f8be0079c531659141344cd1fd0a4f28419497f9722a3daafe3b4186f6b6457e091a350565b6000546001600160a01b031633148015906102be57506002546001600160a01b03163314155b1561030f57336102d66000546001600160a01b031690565b60025460405163061db9c160e01b81526001600160a01b03938416600482015291831660248301529190911660448201526064016101d5565b6001600160a01b0381166103365760405163d92e233d60e01b815260040160405180910390fd5b600280546001600160a01b0319166001600160a01b0383169081179091556040519081527fd1a6a14209a385a964d036e404cb5cfb71f4000cdb03c9366292430787261be69060200160405180910390a150565b6005546000906001600160a01b031633146103d55760405162461bcd60e51b815260206004820152600b60248201526a4e6f74206c6f747465727960a81b60448201526064016101d5565b6103dd61050d565b905090565b60006103d561064d565b6103f461064d565b600580546001600160a01b0319166001600160a01b0392909216919091179055565b61041e61064d565b610427816106a2565b50565b6003818154811061043a57600080fd5b600091825260209091200154905081565b610457600383836107bc565b507fefb16d61046900da527008568620fb9f8420e2f5ed4de3bfbded5035c9362b0e8282604051610489929190610918565b60405180910390a16005546001600160a01b0316156101e957600554604051634046bad360e01b81526001600160a01b0390911690634046bad3906104d690869086908690600401610934565b600060405180830381600087803b1580156104f057600080fd5b505af1158015610504573d6000803e3d6000fd5b50505050505050565b6002546040805160c0810182527f000000000000000000000000000000000000000000000000000000000000000081527f000000000000000000000000000000000000000000000000000000000000000060208083019190915260038284015262030d40606083015260016080830181905283519182019093529182526000926001600160a01b031691639b1c385e919060a08201906105ac9061074b565b8152506040518263ffffffff1660e01b81526004016105cb9190610957565b6020604051808303816000875af11580156105ea573d6000803e3d6000fd5b505050506040513d601f19601f8201168201806040525081019061060e91906109f3565b60048190556040519081527f9ac10fb18c93d33ad7b0a941897aef048d0f8d30756684e82b4552ba12764d459060200160405180910390a15060045490565b6000546001600160a01b031633146106a05760405162461bcd60e51b815260206004820152601660248201527527b7363c9031b0b63630b1363290313c9037bbb732b960511b60448201526064016101d5565b565b336001600160a01b038216036106fa5760405162461bcd60e51b815260206004820152601760248201527f43616e6e6f74207472616e7366657220746f2073656c6600000000000000000060448201526064016101d5565b600180546001600160a01b0319166001600160a01b0383811691821790925560008054604051929316917fed8889f560326eb138920d842192f0eb3dd22b4f139c87a2c57538e05bae12789190a350565b60607f92fd13387c7fe7befbc38d303d6468778fb9731bc4583f17d92989c6fcfdeaaa8260405160240161078491511515815260200190565b60408051601f198184030181529190526020810180516001600160e01b03166001600160e01b03199093169290921790915292915050565b8280548282559060005260206000209081019282156107f7579160200282015b828111156107f75782358255916020019190600101906107dc565b50610803929150610807565b5090565b5b808211156108035760008155600101610808565b60008060006040848603121561083157600080fd5b83359250602084013567ffffffffffffffff81111561084f57600080fd5b8401601f8101861361086057600080fd5b803567ffffffffffffffff81111561087757600080fd5b8660208260051b840101111561088c57600080fd5b939660209190910195509293505050565b6000602082840312156108af57600080fd5b81356001600160a01b03811681146108c657600080fd5b9392505050565b6000602082840312156108df57600080fd5b5035919050565b81835260006001600160fb1b038311156108ff57600080fd5b8260051b80836020870137939093016020019392505050565b60208152600061092c6020830184866108e6565b949350505050565b83815260406020820152600061094e6040830184866108e6565b95945050505050565b60208152815160208201526020820151604082015261ffff604083015116606082015263ffffffff606083015116608082015263ffffffff60808301511660a0820152600060a083015160c08084015280518060e085015260005b818110156109d05760208184018101516101008784010152016109b2565b5060006101008286010152610100601f19601f8301168501019250505092915050565b600060208284031215610a0557600080fd5b505191905056fea264697066735822122099fe2bbe224c2a46cdf0852aa34247f89865e518fb72131547f58eed04fd02c764736f6c634300081c0033",
  "linkReferences": {},
  "deployedLinkReferences": {}
}